{"abi":[{"inputs":[{"internalType":"contract FELToken","name":"_token","type":"address"}],"stateMutability":"nonpayable","type":"constructor","name":"constructor"},{"anonymous":false,"inputs":[{"indexed":true,"internalType":"address","name":"previousOwner","type":"address"},{"indexed":true,"internalType":"address","name":"newOwner","type":"address"}],"name":"OwnershipTransferred","type":"event"},{"inputs":[{"internalType":"address","name":"_contract","type":"address"},{"internalType":"string","name":"name","type":"string"},{"internalType":"string","name":"description","type":"string"},{"internalType":"uint256","name":"transferAmount","type":"uint256"}],"name":"activateProject","outputs":[{"internalType":"bool","name":"","type":"bool"}],"stateMutability":"nonpayable","type":"function"},{"inputs":[],"name":"activationFee","outputs":[{"internalType":"uint256","name":"","type":"uint256"}],"stateMutability":"view","type":"function"},{"inputs":[],"name":"getProjectsLength","outputs":[{"internalType":"uint256","name":"","type":"uint256"}],"stateMutability":"view","type":"function"},{"inputs":[],"name":"owner","outputs":[{"internalType":"address","name":"","type":"address"}],"stateMutability":"view","type":"function"},{"inputs":[{"internalType":"uint256","name":"","type":"uint256"}],"name":"projects","outputs":[{"internalType":"address","name":"_address","type":"address"},{"internalType":"string","name":"name","type":"string"},{"internalType":"string","name":"description","type":"string"},{"internalType":"uint256","name":"creationTime","type":"uint256"}],"stateMutability":"view","type":"function"},{"inputs":[],"name":"renounceOwnership","outputs":[],"stateMutability":"nonpayable","type":"function"},{"inputs":[{"internalType":"uint256","name":"fee","type":"uint256"}],"name":"setFee","outputs":[],"stateMutability":"nonpayable","type":"function"},{"inputs":[{"internalType":"address","name":"newOwner","type":"address"}],"name":"transferOwnership","outputs":[],"stateMutability":"nonpayable","type":"function"}],"bytecode":"6080604052600060035534801561001557600080fd5b50604051610a9a380380610a9a833981016040819052610034916100b2565b61003d33610062565b600180546001600160a01b0319166001600160a01b03929092169190911790556100e2565b600080546001600160a01b038381166001600160a01b0319831681178455604051919092169283917f8be0079c531659141344cd1fd0a4f28419497f9722a3daafe3b4186f6b6457e09190a35050565b6000602082840312156100c457600080fd5b81516001600160a01b03811681146100db57600080fd5b9392505050565b6109a9806100f16000396000f3fe608060405234801561001057600080fd5b50600436106100885760003560e01c80638da5cb5b1161005b5780638da5cb5b146100ed578063c0bf972514610108578063c6bdc0a21461012b578063f2fde38b1461013357600080fd5b8063107046bd1461008d57806369fe0e2d146100b9578063715018a6146100ce57806377d630ae146100d6575b600080fd5b6100a061009b3660046105cf565b610146565b6040516100b0949392919061062e565b60405180910390f35b6100cc6100c73660046105cf565b61029c565b005b6100cc6102d4565b6100df60035481565b6040519081526020016100b0565b6000546040516001600160a01b0390911681526020016100b0565b61011b610116366004610735565b61030a565b60405190151581526020016100b0565b6002546100df565b6100cc6101413660046107b1565b6104e4565b6002818154811061015657600080fd5b6000918252602090912060049091020180546001820180546001600160a01b03909216935090610185906107d3565b80601f01602080910402602001604051908101604052809291908181526020018280546101b1906107d3565b80156101fe5780601f106101d3576101008083540402835291602001916101fe565b820191906000526020600020905b8154815290600101906020018083116101e157829003601f168201915b505050505090806002018054610213906107d3565b80601f016020809104026020016040519081016040528092919081815260200182805461023f906107d3565b801561028c5780601f106102615761010080835404028352916020019161028c565b820191906000526020600020905b81548152906001019060200180831161026f57829003601f168201915b5050505050908060030154905084565b6000546001600160a01b031633146102cf5760405162461bcd60e51b81526004016102c69061080d565b60405180910390fd5b600355565b6000546001600160a01b031633146102fe5760405162461bcd60e51b81526004016102c69061080d565b610308600061057f565b565b6001546003546040516323b872dd60e01b815233600482015230602482015260448101919091526000916001600160a01b0316906323b872dd906064016020604051808303816000875af1158015610366573d6000803e3d6000fd5b505050506040513d601f19601f8201168201806040525081019061038a9190610842565b506001546040516323b872dd60e01b81523360048201526001600160a01b03878116602483015260448201859052909116906323b872dd906064016020604051808303816000875af11580156103e4573d6000803e3d6000fd5b505050506040513d601f19601f820116820180604052508101906104089190610842565b50604080516080810182526001600160a01b038781168252602082018781529282018690524260608301526002805460018101825560009190915282517f405787fa12a823e0f2b7631cc41b3ba8828b3321ca811111fa75cd3aa3bb5ace600490920291820180546001600160a01b031916919093161782559251919290917f405787fa12a823e0f2b7631cc41b3ba8828b3321ca811111fa75cd3aa3bb5acf909101906104b690826108b3565b50604082015160028201906104cb90826108b3565b5060608201518160030155505060019050949350505050565b6000546001600160a01b0316331461050e5760405162461bcd60e51b81526004016102c69061080d565b6001600160a01b0381166105735760405162461bcd60e51b815260206004820152602660248201527f4f776e61626c653a206e6577206f776e657220697320746865207a65726f206160448201526564647265737360d01b60648201526084016102c6565b61057c8161057f565b50565b600080546001600160a01b038381166001600160a01b0319831681178455604051919092169283917f8be0079c531659141344cd1fd0a4f28419497f9722a3daafe3b4186f6b6457e09190a35050565b6000602082840312156105e157600080fd5b5035919050565b6000815180845260005b8181101561060e576020818501810151868301820152016105f2565b506000602082860101526020601f19601f83011685010191505092915050565b6001600160a01b0385168152608060208201819052600090610652908301866105e8565b828103604084015261066481866105e8565b91505082606083015295945050505050565b80356001600160a01b038116811461068d57600080fd5b919050565b634e487b7160e01b600052604160045260246000fd5b600082601f8301126106b957600080fd5b813567ffffffffffffffff808211156106d4576106d4610692565b604051601f8301601f19908116603f011681019082821181831017156106fc576106fc610692565b8160405283815286602085880101111561071557600080fd5b836020870160208301376000602085830101528094505050505092915050565b6000806000806080858703121561074b57600080fd5b61075485610676565b9350602085013567ffffffffffffffff8082111561077157600080fd5b61077d888389016106a8565b9450604087013591508082111561079357600080fd5b506107a0878288016106a8565b949793965093946060013593505050565b6000602082840312156107c357600080fd5b6107cc82610676565b9392505050565b600181811c908216806107e757607f821691505b60208210810361080757634e487b7160e01b600052602260045260246000fd5b50919050565b6020808252818101527f4f776e61626c653a2063616c6c6572206973206e6f7420746865206f776e6572604082015260600190565b60006020828403121561085457600080fd5b815180151581146107cc57600080fd5b601f8211156108ae57600081815260208120601f850160051c8101602086101561088b5750805b601f850160051c820191505b818110156108aa57828155600101610897565b5050505b505050565b815167ffffffffffffffff8111156108cd576108cd610692565b6108e1816108db84546107d3565b84610864565b602080601f83116001811461091657600084156108fe5750858301515b600019600386901b1c1916600185901b1785556108aa565b600085815260208120601f198616915b8281101561094557888601518255948401946001909101908401610926565b50858210156109635787850151600019600388901b60f8161c191681555b5050505050600190811b0190555056fea2646970667358221220cc6836eda626d863270860d686b25b2058c9e79a019e718a7c7408f6801d316d64736f6c63430008110033","bytecodeSha1":"8b4861f6e2773f271534613cba31b60afcdc94dd","compiler":{"evm_version":"istanbul","optimizer":{"enabled":true,"runs":200},"version":"0.8.17+commit.8df45f5f"},"contractName":"ProjectManager","language":"Solidity","natspec":{"details":"Helps with activation and referencing of the contract and allows referencing contracts from the webapp.","kind":"dev","methods":{"activateProject(address,string,string,uint256)":{"notice":"Add a new project contract to the list of projects."},"owner()":{"details":"Returns the address of the current owner."},"renounceOwnership()":{"details":"Leaves the contract without owner. It will not be possible to call `onlyOwner` functions anymore. Can only be called by the current owner. NOTE: Renouncing ownership will leave the contract without an owner, thereby removing any functionality that is only available to the owner."},"transferOwnership(address)":{"details":"Transfers ownership of the contract to a new account (`newOwner`). Can only be called by the current owner."}},"notice":"Contract for managing individual projects at one place.","title":"Project Contract Manager","version":1},"opcodes":"PUSH1 0x80 PUSH1 0x40 MSTORE CALLVALUE DUP1 ISZERO PUSH2 0x10 JUMPI PUSH1 0x0 DUP1 REVERT JUMPDEST POP PUSH1 0x4 CALLDATASIZE LT PUSH2 0x88 JUMPI PUSH1 0x0 CALLDATALOAD PUSH1 0xE0 SHR DUP1 PUSH4 0x8DA5CB5B GT PUSH2 0x5B JUMPI DUP1 PUSH4 0x8DA5CB5B EQ PUSH2 0xED JUMPI DUP1 PUSH4 0xC0BF9725 EQ PUSH2 0x108 JUMPI DUP1 PUSH4 0xC6BDC0A2 EQ PUSH2 0x12B JUMPI DUP1 PUSH4 0xF2FDE38B EQ PUSH2 0x133 JUMPI PUSH1 0x0 DUP1 REVERT JUMPDEST DUP1 PUSH4 0x107046BD EQ PUSH2 0x8D JUMPI DUP1 PUSH4 0x69FE0E2D EQ PUSH2 0xB9 JUMPI DUP1 PUSH4 0x715018A6 EQ PUSH2 0xCE JUMPI DUP1 PUSH4 0x77D630AE EQ PUSH2 0xD6 JUMPI JUMPDEST PUSH1 0x0 DUP1 REVERT JUMPDEST PUSH2 0xA0 PUSH2 0x9B CALLDATASIZE PUSH1 0x4 PUSH2 0x5CF JUMP JUMPDEST PUSH2 0x146 JUMP JUMPDEST PUSH1 0x40 MLOAD PUSH2 0xB0 SWAP5 SWAP4 SWAP3 SWAP2 SWAP1 PUSH2 0x62E JUMP JUMPDEST PUSH1 0x40 MLOAD DUP1 SWAP2 SUB SWAP1 RETURN JUMPDEST PUSH2 0xCC PUSH2 0xC7 CALLDATASIZE PUSH1 0x4 PUSH2 0x5CF JUMP JUMPDEST PUSH2 0x29C JUMP JUMPDEST STOP JUMPDEST PUSH2 0xCC PUSH2 0x2D4 JUMP JUMPDEST PUSH2 0xDF PUSH1 0x3 SLOAD DUP2 JUMP JUMPDEST PUSH1 0x40 MLOAD SWAP1 DUP2 MSTORE PUSH1 0x20 ADD PUSH2 0xB0 JUMP JUMPDEST PUSH1 0x0 SLOAD PUSH1 0x40 MLOAD PUSH1 0x1 PUSH1 0x1 PUSH1 0xA0 SHL SUB SWAP1 SWAP2 AND DUP2 MSTORE PUSH1 0x20 ADD PUSH2 0xB0 JUMP JUMPDEST PUSH2 0x11B PUSH2 0x116 CALLDATASIZE PUSH1 0x4 PUSH2 0x735 JUMP JUMPDEST PUSH2 0x30A JUMP JUMPDEST PUSH1 0x40 MLOAD SWAP1 ISZERO ISZERO DUP2 MSTORE PUSH1 0x20 ADD PUSH2 0xB0 JUMP JUMPDEST PUSH1 0x2 SLOAD PUSH2 0xDF JUMP JUMPDEST PUSH2 0xCC PUSH2 0x141 CALLDATASIZE PUSH1 0x4 PUSH2 0x7B1 JUMP JUMPDEST PUSH2 0x4E4 JUMP JUMPDEST PUSH1 0x2 DUP2 DUP2 SLOAD DUP2 LT PUSH2 0x156 JUMPI PUSH1 0x0 DUP1 REVERT JUMPDEST PUSH1 0x0 SWAP2 DUP3 MSTORE PUSH1 0x20 SWAP1 SWAP2 KECCAK256 PUSH1 0x4 SWAP1 SWAP2 MUL ADD DUP1 SLOAD PUSH1 0x1 DUP3 ADD DUP1 SLOAD PUSH1 0x1 PUSH1 0x1 PUSH1 0xA0 SHL SUB SWAP1 SWAP3 AND SWAP4 POP SWAP1 PUSH2 0x185 SWAP1 PUSH2 0x7D3 JUMP JUMPDEST DUP1 PUSH1 0x1F ADD PUSH1 0x20 DUP1 SWAP2 DIV MUL PUSH1 0x20 ADD PUSH1 0x40 MLOAD SWAP1 DUP2 ADD PUSH1 0x40 MSTORE DUP1 SWAP3 SWAP2 SWAP1 DUP2 DUP2 MSTORE PUSH1 0x20 ADD DUP3 DUP1 SLOAD PUSH2 0x1B1 SWAP1 PUSH2 0x7D3 JUMP JUMPDEST DUP1 ISZERO PUSH2 0x1FE JUMPI DUP1 PUSH1 0x1F LT PUSH2 0x1D3 JUMPI PUSH2 0x100 DUP1 DUP4 SLOAD DIV MUL DUP4 MSTORE SWAP2 PUSH1 0x20 ADD SWAP2 PUSH2 0x1FE JUMP JUMPDEST DUP3 ADD SWAP2 SWAP1 PUSH1 0x0 MSTORE PUSH1 0x20 PUSH1 0x0 KECCAK256 SWAP1 JUMPDEST DUP2 SLOAD DUP2 MSTORE SWAP1 PUSH1 0x1 ADD SWAP1 PUSH1 0x20 ADD DUP1 DUP4 GT PUSH2 0x1E1 JUMPI DUP3 SWAP1 SUB PUSH1 0x1F AND DUP3 ADD SWAP2 JUMPDEST POP POP POP POP POP SWAP1 DUP1 PUSH1 0x2 ADD DUP1 SLOAD PUSH2 0x213 SWAP1 PUSH2 0x7D3 JUMP JUMPDEST DUP1 PUSH1 0x1F ADD PUSH1 0x20 DUP1 SWAP2 DIV MUL PUSH1 0x20 ADD PUSH1 0x40 MLOAD SWAP1 DUP2 ADD PUSH1 0x40 MSTORE DUP1 SWAP3 SWAP2 SWAP1 DUP2 DUP2 MSTORE PUSH1 0x20 ADD DUP3 DUP1 SLOAD PUSH2 0x23F SWAP1 PUSH2 0x7D3 JUMP JUMPDEST DUP1 ISZERO PUSH2 0x28C JUMPI DUP1 PUSH1 0x1F LT PUSH2 0x261 JUMPI PUSH2 0x100 DUP1 DUP4 SLOAD DIV MUL DUP4 MSTORE SWAP2 PUSH1 0x20 ADD SWAP2 PUSH2 0x28C JUMP JUMPDEST DUP3 ADD SWAP2 SWAP1 PUSH1 0x0 MSTORE PUSH1 0x20 PUSH1 0x0 KECCAK256 SWAP1 JUMPDEST DUP2 SLOAD DUP2 MSTORE SWAP1 PUSH1 0x1 ADD SWAP1 PUSH1 0x20 ADD DUP1 DUP4 GT PUSH2 0x26F JUMPI DUP3 SWAP1 SUB PUSH1 0x1F AND DUP3 ADD SWAP2 JUMPDEST POP POP POP POP POP SWAP1 DUP1 PUSH1 0x3 ADD SLOAD SWAP1 POP DUP5 JUMP JUMPDEST PUSH1 0x0 SLOAD PUSH1 0x1 PUSH1 0x1 PUSH1 0xA0 SHL SUB AND CALLER EQ PUSH2 0x2CF JUMPI PUSH1 0x40 MLOAD PUSH3 0x461BCD PUSH1 0xE5 SHL DUP2 MSTORE PUSH1 0x4 ADD PUSH2 0x2C6 SWAP1 PUSH2 0x80D JUMP JUMPDEST PUSH1 0x40 MLOAD DUP1 SWAP2 SUB SWAP1 REVERT JUMPDEST PUSH1 0x3 SSTORE JUMP JUMPDEST PUSH1 0x0 SLOAD PUSH1 0x1 PUSH1 0x1 PUSH1 0xA0 SHL SUB AND CALLER EQ PUSH2 0x2FE JUMPI PUSH1 0x40 MLOAD PUSH3 0x461BCD PUSH1 0xE5 SHL DUP2 MSTORE PUSH1 0x4 ADD PUSH2 0x2C6 SWAP1 PUSH2 0x80D JUMP JUMPDEST PUSH2 0x308 PUSH1 0x0 PUSH2 0x57F JUMP JUMPDEST JUMP JUMPDEST PUSH1 0x1 SLOAD PUSH1 0x3 SLOAD PUSH1 0x40 MLOAD PUSH4 0x23B872DD PUSH1 0xE0 SHL DUP2 MSTORE CALLER PUSH1 0x4 DUP3 ADD MSTORE ADDRESS PUSH1 0x24 DUP3 ADD MSTORE PUSH1 0x44 DUP2 ADD SWAP2 SWAP1 SWAP2 MSTORE PUSH1 0x0 SWAP2 PUSH1 0x1 PUSH1 0x1 PUSH1 0xA0 SHL SUB AND SWAP1 PUSH4 0x23B872DD SWAP1 PUSH1 0x64 ADD PUSH1 0x20 PUSH1 0x40 MLOAD DUP1 DUP4 SUB DUP2 PUSH1 0x0 DUP8 GAS CALL ISZERO DUP1 ISZERO PUSH2 0x366 JUMPI RETURNDATASIZE PUSH1 0x0 DUP1 RETURNDATACOPY RETURNDATASIZE PUSH1 0x0 REVERT JUMPDEST POP POP POP POP PUSH1 0x40 MLOAD RETURNDATASIZE PUSH1 0x1F NOT PUSH1 0x1F DUP3 ADD AND DUP3 ADD DUP1 PUSH1 0x40 MSTORE POP DUP2 ADD SWAP1 PUSH2 0x38A SWAP2 SWAP1 PUSH2 0x842 JUMP JUMPDEST POP PUSH1 0x1 SLOAD PUSH1 0x40 MLOAD PUSH4 0x23B872DD PUSH1 0xE0 SHL DUP2 MSTORE CALLER PUSH1 0x4 DUP3 ADD MSTORE PUSH1 0x1 PUSH1 0x1 PUSH1 0xA0 SHL SUB DUP8 DUP2 AND PUSH1 0x24 DUP4 ADD MSTORE PUSH1 0x44 DUP3 ADD DUP6 SWAP1 MSTORE SWAP1 SWAP2 AND SWAP1 PUSH4 0x23B872DD SWAP1 PUSH1 0x64 ADD PUSH1 0x20 PUSH1 0x40 MLOAD DUP1 DUP4 SUB DUP2 PUSH1 0x0 DUP8 GAS CALL ISZERO DUP1 ISZERO PUSH2 0x3E4 JUMPI RETURNDATASIZE PUSH1 0x0 DUP1 RETURNDATACOPY RETURNDATASIZE PUSH1 0x0 REVERT JUMPDEST POP POP POP POP PUSH1 0x40 MLOAD RETURNDATASIZE PUSH1 0x1F NOT PUSH1 0x1F DUP3 ADD AND DUP3 ADD DUP1 PUSH1 0x40 MSTORE POP DUP2 ADD SWAP1 PUSH2 0x408 SWAP2 SWAP1 PUSH2 0x842 JUMP JUMPDEST POP PUSH1 0x40 DUP1 MLOAD PUSH1 0x80 DUP2 ADD DUP3 MSTORE PUSH1 0x1 PUSH1 0x1 PUSH1 0xA0 SHL SUB DUP8 DUP2 AND DUP3 MSTORE PUSH1 0x20 DUP3 ADD DUP8 DUP2 MSTORE SWAP3 DUP3 ADD DUP7 SWAP1 MSTORE TIMESTAMP PUSH1 0x60 DUP4 ADD MSTORE PUSH1 0x2 DUP1 SLOAD PUSH1 0x1 DUP2 ADD DUP3 SSTORE PUSH1 0x0 SWAP2 SWAP1 SWAP2 MSTORE DUP3 MLOAD PUSH32 0x405787FA12A823E0F2B7631CC41B3BA8828B3321CA811111FA75CD3AA3BB5ACE PUSH1 0x4 SWAP1 SWAP3 MUL SWAP2 DUP3 ADD DUP1 SLOAD PUSH1 0x1 PUSH1 0x1 PUSH1 0xA0 SHL SUB NOT AND SWAP2 SWAP1 SWAP4 AND OR DUP3 SSTORE SWAP3 MLOAD SWAP2 SWAP3 SWAP1 SWAP2 PUSH32 0x405787FA12A823E0F2B7631CC41B3BA8828B3321CA811111FA75CD3AA3BB5ACF SWAP1 SWAP2 ADD SWAP1 PUSH2 0x4B6 SWAP1 DUP3 PUSH2 0x8B3 JUMP JUMPDEST POP PUSH1 0x40 DUP3 ADD MLOAD PUSH1 0x2 DUP3 ADD SWAP1 PUSH2 0x4CB SWAP1 DUP3 PUSH2 0x8B3 JUMP JUMPDEST POP PUSH1 0x60 DUP3 ADD MLOAD DUP2 PUSH1 0x3 ADD SSTORE POP POP PUSH1 0x1 SWAP1 POP SWAP5 SWAP4 POP POP POP POP JUMP JUMPDEST PUSH1 0x0 SLOAD PUSH1 0x1 PUSH1 0x1 PUSH1 0xA0 SHL SUB AND CALLER EQ PUSH2 0x50E JUMPI PUSH1 0x40 MLOAD PUSH3 0x461BCD PUSH1 0xE5 SHL DUP2 MSTORE PUSH1 0x4 ADD PUSH2 0x2C6 SWAP1 PUSH2 0x80D JUMP JUMPDEST PUSH1 0x1 PUSH1 0x1 PUSH1 0xA0 SHL SUB DUP2 AND PUSH2 0x573 JUMPI PUSH1 0x40 MLOAD PUSH3 0x461BCD PUSH1 0xE5 SHL DUP2 MSTORE PUSH1 0x20 PUSH1 0x4 DUP3 ADD MSTORE PUSH1 0x26 PUSH1 0x24 DUP3 ADD MSTORE PUSH32 0x4F776E61626C653A206E6577206F776E657220697320746865207A65726F2061 PUSH1 0x44 DUP3 ADD MSTORE PUSH6 0x646472657373 PUSH1 0xD0 SHL PUSH1 0x64 DUP3 ADD MSTORE PUSH1 0x84 ADD PUSH2 0x2C6 JUMP JUMPDEST PUSH2 0x57C DUP2 PUSH2 0x57F JUMP JUMPDEST POP JUMP JUMPDEST PUSH1 0x0 DUP1 SLOAD PUSH1 0x1 PUSH1 0x1 PUSH1 0xA0 SHL SUB DUP4 DUP2 AND PUSH1 0x1 PUSH1 0x1 PUSH1 0xA0 SHL SUB NOT DUP4 AND DUP2 OR DUP5 SSTORE PUSH1 0x40 MLOAD SWAP2 SWAP1 SWAP3 AND SWAP3 DUP4 SWAP2 PUSH32 0x8BE0079C531659141344CD1FD0A4F28419497F9722A3DAAFE3B4186F6B6457E0 SWAP2 SWAP1 LOG3 POP POP JUMP JUMPDEST PUSH1 0x0 PUSH1 0x20 DUP3 DUP5 SUB SLT ISZERO PUSH2 0x5E1 JUMPI PUSH1 0x0 DUP1 REVERT JUMPDEST POP CALLDATALOAD SWAP2 SWAP1 POP JUMP JUMPDEST PUSH1 0x0 DUP2 MLOAD DUP1 DUP5 MSTORE PUSH1 0x0 JUMPDEST DUP2 DUP2 LT ISZERO PUSH2 0x60E JUMPI PUSH1 0x20 DUP2 DUP6 ADD DUP2 ADD MLOAD DUP7 DUP4 ADD DUP3 ADD MSTORE ADD PUSH2 0x5F2 JUMP JUMPDEST POP PUSH1 0x0 PUSH1 0x20 DUP3 DUP7 ADD ADD MSTORE PUSH1 0x20 PUSH1 0x1F NOT PUSH1 0x1F DUP4 ADD AND DUP6 ADD ADD SWAP2 POP POP SWAP3 SWAP2 POP POP JUMP JUMPDEST PUSH1 0x1 PUSH1 0x1 PUSH1 0xA0 SHL SUB DUP6 AND DUP2 MSTORE PUSH1 0x80 PUSH1 0x20 DUP3 ADD DUP2 SWAP1 MSTORE PUSH1 0x0 SWAP1 PUSH2 0x652 SWAP1 DUP4 ADD DUP7 PUSH2 0x5E8 JUMP JUMPDEST DUP3 DUP2 SUB PUSH1 0x40 DUP5 ADD MSTORE PUSH2 0x664 DUP2 DUP7 PUSH2 0x5E8 JUMP JUMPDEST SWAP2 POP POP DUP3 PUSH1 0x60 DUP4 ADD MSTORE SWAP6 SWAP5 POP POP POP POP POP JUMP JUMPDEST DUP1 CALLDATALOAD PUSH1 0x1 PUSH1 0x1 PUSH1 0xA0 SHL SUB DUP2 AND DUP2 EQ PUSH2 0x68D JUMPI PUSH1 0x0 DUP1 REVERT JUMPDEST SWAP2 SWAP1 POP JUMP JUMPDEST PUSH4 0x4E487B71 PUSH1 0xE0 SHL PUSH1 0x0 MSTORE PUSH1 0x41 PUSH1 0x4 MSTORE PUSH1 0x24 PUSH1 0x0 REVERT JUMPDEST PUSH1 0x0 DUP3 PUSH1 0x1F DUP4 ADD SLT PUSH2 0x6B9 JUMPI PUSH1 0x0 DUP1 REVERT JUMPDEST DUP2 CALLDATALOAD PUSH8 0xFFFFFFFFFFFFFFFF DUP1 DUP3 GT ISZERO PUSH2 0x6D4 JUMPI PUSH2 0x6D4 PUSH2 0x692 JUMP JUMPDEST PUSH1 0x40 MLOAD PUSH1 0x1F DUP4 ADD PUSH1 0x1F NOT SWAP1 DUP2 AND PUSH1 0x3F ADD AND DUP2 ADD SWAP1 DUP3 DUP3 GT DUP2 DUP4 LT OR ISZERO PUSH2 0x6FC JUMPI PUSH2 0x6FC PUSH2 0x692 JUMP JUMPDEST DUP2 PUSH1 0x40 MSTORE DUP4 DUP2 MSTORE DUP7 PUSH1 0x20 DUP6 DUP9 ADD ADD GT ISZERO PUSH2 0x715 JUMPI PUSH1 0x0 DUP1 REVERT JUMPDEST DUP4 PUSH1 0x20 DUP8 ADD PUSH1 0x20 DUP4 ADD CALLDATACOPY PUSH1 0x0 PUSH1 0x20 DUP6 DUP4 ADD ADD MSTORE DUP1 SWAP5 POP POP POP POP POP SWAP3 SWAP2 POP POP JUMP JUMPDEST PUSH1 0x0 DUP1 PUSH1 0x0 DUP1 PUSH1 0x80 DUP6 DUP8 SUB SLT ISZERO PUSH2 0x74B JUMPI PUSH1 0x0 DUP1 REVERT JUMPDEST PUSH2 0x754 DUP6 PUSH2 0x676 JUMP JUMPDEST SWAP4 POP PUSH1 0x20 DUP6 ADD CALLDATALOAD PUSH8 0xFFFFFFFFFFFFFFFF DUP1 DUP3 GT ISZERO PUSH2 0x771 JUMPI PUSH1 0x0 DUP1 REVERT JUMPDEST PUSH2 0x77D DUP9 DUP4 DUP10 ADD PUSH2 0x6A8 JUMP JUMPDEST SWAP5 POP PUSH1 0x40 DUP8 ADD CALLDATALOAD SWAP2 POP DUP1 DUP3 GT ISZERO PUSH2 0x793 JUMPI PUSH1 0x0 DUP1 REVERT JUMPDEST POP PUSH2 0x7A0 DUP8 DUP3 DUP9 ADD PUSH2 0x6A8 JUMP JUMPDEST SWAP5 SWAP8 SWAP4 SWAP7 POP SWAP4 SWAP5 PUSH1 0x60 ADD CALLDATALOAD SWAP4 POP POP POP JUMP JUMPDEST PUSH1 0x0 PUSH1 0x20 DUP3 DUP5 SUB SLT ISZERO PUSH2 0x7C3 JUMPI PUSH1 0x0 DUP1 REVERT JUMPDEST PUSH2 0x7CC DUP3 PUSH2 0x676 JUMP JUMPDEST SWAP4 SWAP3 POP POP POP JUMP JUMPDEST PUSH1 0x1 DUP2 DUP2 SHR SWAP1 DUP3 AND DUP1 PUSH2 0x7E7 JUMPI PUSH1 0x7F DUP3 AND SWAP2 POP JUMPDEST PUSH1 0x20 DUP3 LT DUP2 SUB PUSH2 0x807 JUMPI PUSH4 0x4E487B71 PUSH1 0xE0 SHL PUSH1 0x0 MSTORE PUSH1 0x22 PUSH1 0x4 MSTORE PUSH1 0x24 PUSH1 0x0 REVERT JUMPDEST POP SWAP2 SWAP1 POP JUMP JUMPDEST PUSH1 0x20 DUP1 DUP3 MSTORE DUP2 DUP2 ADD MSTORE PUSH32 0x4F776E61626C653A2063616C6C6572206973206E6F7420746865206F776E6572 PUSH1 0x40 DUP3 ADD MSTORE PUSH1 0x60 ADD SWAP1 JUMP JUMPDEST PUSH1 0x0 PUSH1 0x20 DUP3 DUP5 SUB SLT ISZERO PUSH2 0x854 JUMPI PUSH1 0x0 DUP1 REVERT JUMPDEST DUP2 MLOAD DUP1 ISZERO ISZERO DUP2 EQ PUSH2 0x7CC JUMPI PUSH1 0x0 DUP1 REVERT JUMPDEST PUSH1 0x1F DUP3 GT ISZERO PUSH2 0x8AE JUMPI PUSH1 0x0 DUP2 DUP2 MSTORE PUSH1 0x20 DUP2 KECCAK256 PUSH1 0x1F DUP6 ADD PUSH1 0x5 SHR DUP2 ADD PUSH1 0x20 DUP7 LT ISZERO PUSH2 0x88B JUMPI POP DUP1 JUMPDEST PUSH1 0x1F DUP6 ADD PUSH1 0x5 SHR DUP3 ADD SWAP2 POP JUMPDEST DUP2 DUP2 LT ISZERO PUSH2 0x8AA JUMPI DUP3 DUP2 SSTORE PUSH1 0x1 ADD PUSH2 0x897 JUMP JUMPDEST POP POP POP JUMPDEST POP POP POP JUMP JUMPDEST DUP2 MLOAD PUSH8 0xFFFFFFFFFFFFFFFF DUP2 GT ISZERO PUSH2 0x8CD JUMPI PUSH2 0x8CD PUSH2 0x692 JUMP JUMPDEST PUSH2 0x8E1 DUP2 PUSH2 0x8DB DUP5 SLOAD PUSH2 0x7D3 JUMP JUMPDEST DUP5 PUSH2 0x864 JUMP JUMPDEST PUSH1 0x20 DUP1 PUSH1 0x1F DUP4 GT PUSH1 0x1 DUP2 EQ PUSH2 0x916 JUMPI PUSH1 0x0 DUP5 ISZERO PUSH2 0x8FE JUMPI POP DUP6 DUP4 ADD MLOAD JUMPDEST PUSH1 0x0 NOT PUSH1 0x3 DUP7 SWAP1 SHL SHR NOT AND PUSH1 0x1 DUP6 SWAP1 SHL OR DUP6 SSTORE PUSH2 0x8AA JUMP JUMPDEST PUSH1 0x0 DUP6 DUP2 MSTORE PUSH1 0x20 DUP2 KECCAK256 PUSH1 0x1F NOT DUP7 AND SWAP2 JUMPDEST DUP3 DUP2 LT ISZERO PUSH2 0x945 JUMPI DUP9 DUP7 ADD MLOAD DUP3 SSTORE SWAP5 DUP5 ADD SWAP5 PUSH1 0x1 SWAP1 SWAP2 ADD SWAP1 DUP5 ADD PUSH2 0x926 JUMP JUMPDEST POP DUP6 DUP3 LT ISZERO PUSH2 0x963 JUMPI DUP8 DUP6 ADD MLOAD PUSH1 0x0 NOT PUSH1 0x3 DUP9 SWAP1 SHL PUSH1 0xF8 AND SHR NOT AND DUP2 SSTORE JUMPDEST POP POP POP POP POP PUSH1 0x1 SWAP1 DUP2 SHL ADD SWAP1 SSTORE POP JUMP INVALID LOG2 PUSH5 0x6970667358 0x22 SLT KECCAK256 0xCC PUSH9 0x36EDA626D863270860 0xD6 DUP7 0xB2 JUMPDEST KECCAK256 PC 0xC9 0xE7 SWAP11 ADD SWAP15 PUSH18 0x8A7C7408F6801D316D64736F6C6343000811 STOP CALLER ","sha1":"8bcf08d2dabb043f1cadc4c1e686495bba2722c5","source":"// SPDX-License-Identifier: GPL3\npragma solidity ^0.8.0;\n\nimport \"@openzeppelin/contracts/access/Ownable.sol\";\nimport \"./Token.sol\";\n\n/**\n * @title Project Contract Manager\n * @notice Contract for managing individual projects at one place.\n * @dev Helps with activation and referencing of the contract and allows referencing contracts from the webapp.\n */\ncontract ProjectManager is Ownable {\n    struct Project {\n        address _address;\n        string name;\n        string description;\n        uint256 creationTime;\n    }\n\n    // Referencing active contracts\n    FELToken private token;\n    Project[] public projects;\n    uint256 public activationFee = 0;\n\n    constructor(FELToken _token) {\n        token = _token;\n    }\n\n    function setFee(uint256 fee) public onlyOwner {\n        activationFee = fee;\n    }\n\n    function getProjectsLength() external view returns (uint256) {\n        return projects.length;\n    }\n\n    /**\n     * @notice Add a new project contract to the list of projects.\n     */\n    function activateProject(\n        address _contract,\n        string memory name,\n        string memory description,\n        uint256 transferAmount\n    ) public returns(bool) {\n        token.transferFrom(msg.sender, address(this), activationFee);\n        token.transferFrom(msg.sender, _contract, transferAmount);\n\n        projects.push(Project(_contract, name, description, block.timestamp));\n\n        return true;\n    }\n\n    // TODO: Add contract creation function\n}\n\n","sourcePath":"contracts/ProjectManager.sol","type":"contract","deployment":{"address":"0x58c4c98F8DA1c3326C25f2c406b7F2b902299550","chainid":"dev","blockHeight":5}}