{"abi":[{"inputs":[{"internalType":"contract FELToken","name":"_token","type":"address"},{"internalType":"bytes32","name":"publicKey","type":"bytes32"},{"internalType":"bytes[112]","name":"secret","type":"bytes[112]"}],"stateMutability":"nonpayable","type":"constructor","name":"constructor"},{"inputs":[],"name":"abortPlan","outputs":[],"stateMutability":"nonpayable","type":"function"},{"inputs":[{"internalType":"address","name":"newBuilderAddress","type":"address"}],"name":"acceptBuilderJoinRequest","outputs":[],"stateMutability":"nonpayable","type":"function"},{"inputs":[{"internalType":"bytes[112]","name":"secret","type":"bytes[112]"}],"name":"acceptNode","outputs":[],"stateMutability":"nonpayable","type":"function"},{"inputs":[],"name":"activate","outputs":[],"stateMutability":"nonpayable","type":"function"},{"inputs":[],"name":"activeNodes","outputs":[{"internalType":"uint32","name":"","type":"uint32"}],"stateMutability":"view","type":"function"},{"inputs":[{"internalType":"address","name":"newBuilderAddress","type":"address"},{"internalType":"bytes32","name":"publicKey","type":"bytes32"}],"name":"addBuilder","outputs":[],"stateMutability":"nonpayable","type":"function"},{"inputs":[{"internalType":"address","name":"","type":"address"}],"name":"builderRequests","outputs":[{"internalType":"address","name":"builderAddress","type":"address"},{"internalType":"bytes32","name":"publicKey","type":"bytes32"},{"internalType":"uint256","name":"index","type":"uint256"}],"stateMutability":"view","type":"function"},{"inputs":[{"internalType":"uint256","name":"","type":"uint256"}],"name":"builderRequestsArray","outputs":[{"internalType":"address","name":"","type":"address"}],"stateMutability":"view","type":"function"},{"inputs":[{"internalType":"address","name":"","type":"address"}],"name":"builders","outputs":[{"internalType":"address","name":"_address","type":"address"},{"internalType":"bytes32","name":"publicKey","type":"bytes32"}],"stateMutability":"view","type":"function"},{"inputs":[{"internalType":"uint256","name":"","type":"uint256"}],"name":"buildersArray","outputs":[{"internalType":"address","name":"","type":"address"}],"stateMutability":"view","type":"function"},{"inputs":[{"internalType":"bool","name":"status","type":"bool"}],"name":"changeNodeStatus","outputs":[],"stateMutability":"nonpayable","type":"function"},{"inputs":[{"internalType":"string","name":"modelCID","type":"string"},{"internalType":"uint32","name":"rounds","type":"uint32"},{"internalType":"uint256","name":"reward","type":"uint256"}],"name":"createPlan","outputs":[],"stateMutability":"nonpayable","type":"function"},{"inputs":[],"name":"currentRound","outputs":[{"internalType":"uint32","name":"","type":"uint32"}],"stateMutability":"view","type":"function"},{"inputs":[],"name":"deactivate","outputs":[],"stateMutability":"nonpayable","type":"function"},{"inputs":[{"internalType":"address","name":"newBuilderAddress","type":"address"}],"name":"declineBuilderJoinRequest","outputs":[],"stateMutability":"nonpayable","type":"function"},{"inputs":[],"name":"declineNode","outputs":[],"stateMutability":"nonpayable","type":"function"},{"inputs":[{"internalType":"string","name":"modelCID","type":"string"}],"name":"finishPlan","outputs":[],"stateMutability":"nonpayable","type":"function"},{"inputs":[],"name":"getBuilderRequestsLength","outputs":[{"internalType":"uint256","name":"","type":"uint256"}],"stateMutability":"view","type":"function"},{"inputs":[],"name":"getBuildersLength","outputs":[{"internalType":"uint256","name":"","type":"uint256"}],"stateMutability":"view","type":"function"},{"inputs":[],"name":"getNodeRequestsLength","outputs":[{"internalType":"uint256","name":"","type":"uint256"}],"stateMutability":"view","type":"function"},{"inputs":[{"internalType":"address","name":"_address","type":"address"}],"name":"getNodeSecret","outputs":[{"internalType":"bytes[112]","name":"","type":"bytes[112]"}],"stateMutability":"view","type":"function"},{"inputs":[],"name":"getNodesLength","outputs":[{"internalType":"uint256","name":"","type":"uint256"}],"stateMutability":"view","type":"function"},{"inputs":[{"internalType":"uint256","name":"roundIdx","type":"uint256"},{"internalType":"address","name":"nodeAddress","type":"address"}],"name":"getRoundModel","outputs":[{"internalType":"string","name":"","type":"string"}],"stateMutability":"view","type":"function"},{"inputs":[{"internalType":"address","name":"_address","type":"address"}],"name":"isNode","outputs":[{"internalType":"bool","name":"","type":"bool"}],"stateMutability":"view","type":"function"},{"inputs":[],"name":"isPlanRunning","outputs":[{"internalType":"bool","name":"","type":"bool"}],"stateMutability":"view","type":"function"},{"inputs":[],"name":"keyTurn","outputs":[{"internalType":"uint32","name":"","type":"uint32"}],"stateMutability":"view","type":"function"},{"inputs":[{"internalType":"uint256","name":"","type":"uint256"}],"name":"nodeRequests","outputs":[{"internalType":"address","name":"_address","type":"address"},{"internalType":"bytes32","name":"publicKey","type":"bytes32"}],"stateMutability":"view","type":"function"},{"inputs":[{"internalType":"address","name":"","type":"address"}],"name":"nodeState","outputs":[{"internalType":"uint256","name":"","type":"uint256"}],"stateMutability":"view","type":"function"},{"inputs":[{"internalType":"uint256","name":"","type":"uint256"}],"name":"nodesArray","outputs":[{"internalType":"address","name":"_address","type":"address"},{"internalType":"bool","name":"activated","type":"bool"},{"internalType":"uint256","name":"entryKeyTurn","type":"uint256"}],"stateMutability":"view","type":"function"},{"inputs":[],"name":"numPlans","outputs":[{"internalType":"uint32","name":"","type":"uint32"}],"stateMutability":"view","type":"function"},{"inputs":[{"internalType":"uint256","name":"","type":"uint256"}],"name":"plans","outputs":[{"internalType":"address","name":"creator","type":"address"},{"internalType":"address","name":"finalNode","type":"address"},{"internalType":"uint32","name":"randomSeed","type":"uint32"},{"internalType":"string","name":"baseModelCID","type":"string"},{"internalType":"string","name":"finalModelCID","type":"string"},{"internalType":"uint32","name":"numRounds","type":"uint32"},{"internalType":"uint256","name":"numNodes","type":"uint256"},{"internalType":"uint256","name":"totalReward","type":"uint256"},{"internalType":"uint256","name":"nodeReward","type":"uint256"},{"internalType":"uint256","name":"keyTurn","type":"uint256"}],"stateMutability":"view","type":"function"},{"inputs":[{"internalType":"bytes32","name":"publicKey","type":"bytes32"}],"name":"requestJoinBuilder","outputs":[],"stateMutability":"nonpayable","type":"function"},{"inputs":[{"internalType":"bytes32","name":"publicKey","type":"bytes32"}],"name":"requestJoinNode","outputs":[],"stateMutability":"nonpayable","type":"function"},{"inputs":[{"internalType":"bytes32","name":"publicKey","type":"bytes32"}],"name":"setBuilderPublickey","outputs":[],"stateMutability":"nonpayable","type":"function"},{"inputs":[{"internalType":"string","name":"modelCID","type":"string"}],"name":"submitModel","outputs":[],"stateMutability":"nonpayable","type":"function"}],"bytecode":"6080604052600680546001600160401b0319169055600980546001600160481b03191690556007600a553480156200003657600080fd5b5060405162003000380380620030008339810160408190526200005991620002f3565b600b80546001600160a01b038086166001600160a01b0319928316179092556040805180820182523380825260208083018881526000838152808352858120945185549089169088161785559051600194850155835480850185557fb10e2d527612073b26eecdfd717e6a320cf44b4afac2b0732d9fcbe2b7fa0cf6018054909616831790955581855260048152838520600390558351608081018552918252810184815292810186815260608201859052600580549384018155909452805160729092027f036b6384b5eca791c62761152d0c79bb0604c104a5fb6f4eb0703f3154bb3db08101805494511515600160a01b026001600160a81b0319909516939096169290921792909217845591519092916200019e917f036b6384b5eca791c62761152d0c79bb0604c104a5fb6f4eb0703f3154bb3db1909101906070620001b4565b5060608201518160710155505050505062000590565b8260708101928215620001f2579160200282015b82811115620001f25782518290620001e19082620004c4565b5091602001919060010190620001c8565b506200020092915062000204565b5090565b80821115620002005760006200021b828262000225565b5060010162000204565b508054620002339062000435565b6000825580601f1062000244575050565b601f01602090049060005260206000209081019062000264919062000267565b50565b5b8082111562000200576000815560010162000268565b634e487b7160e01b600052604160045260246000fd5b604051610e0081016001600160401b0381118282101715620002ba57620002ba6200027e565b60405290565b604051601f8201601f191681016001600160401b0381118282101715620002eb57620002eb6200027e565b604052919050565b6000806000606084860312156200030957600080fd5b83516001600160a01b03811681146200032157600080fd5b60208581015160408701519295509350906001600160401b03808211156200034857600080fd5b8187019150601f88818401126200035e57600080fd5b6200036862000294565b80610e0085018b8111156200037c57600080fd5b855b818110156200042357805186811115620003985760008081fd5b87018581018e13620003aa5760008081fd5b805187811115620003bf57620003bf6200027e565b620003d2818801601f19168b01620002c0565b8181528f8b838501011115620003e85760008081fd5b60005b8281101562000408578381018c01518282018d01528b01620003eb565b5060009181018b01919091528552509287019287016200037e565b50508096505050505050509250925092565b600181811c908216806200044a57607f821691505b6020821081036200046b57634e487b7160e01b600052602260045260246000fd5b50919050565b601f821115620004bf57600081815260208120601f850160051c810160208610156200049a5750805b601f850160051c820191505b81811015620004bb57828155600101620004a6565b5050505b505050565b81516001600160401b03811115620004e057620004e06200027e565b620004f881620004f1845462000435565b8462000471565b602080601f831160018114620005305760008415620005175750858301515b600019600386901b1c1916600185901b178555620004bb565b600085815260208120601f198616915b82811015620005615788860151825594840194600190910190840162000540565b5085821015620005805787850151600019600388901b60f8161c191681555b5050505050600190811b01905550565b612a6080620005a06000396000f3fe608060405234801561001057600080fd5b50600436106102115760003560e01c80638a19c8bc11610125578063b777a893116100ad578063bc946ead1161007c578063bc946ead1461051b578063c4e10a141461052e578063da0986aa14610566578063e27c87a01461057a578063ef2dc65e1461058d57600080fd5b8063b777a893146104d6578063b7b92f47146104de578063b9fae085146104f1578063ba7925cb1461050457600080fd5b8063ab705ded116100f4578063ab705ded14610418578063b155533a1461042b578063b16206161461043e578063b4fa6ba914610467578063b5967269146104c657600080fd5b80638a19c8bc146103c857806394613cd7146103df578063a0572b2a146103f2578063a2f6f7811461040557600080fd5b80634244609b116101a85780636f2690a5116101775780636f2690a51461036757806372ab489f1461037a578063730f919d146103825780637cf3110c146103955780638518a047146103a857600080fd5b80634244609b146103245780634c781da51461034457806350c62ac31461035757806351b42b001461035f57600080fd5b8063144ddefc116101e4578063144ddefc1461027f578063168168a7146102d15780631821aa62146102fc57806331888d881461030457600080fd5b8063017501521461021657806307f196511461023e5780630f15f4c01461026357806313029e031461026d575b600080fd5b6102296102243660046122a6565b610595565b60405190151581526020015b60405180910390f35b60065461024e9063ffffffff1681565b60405163ffffffff9091168152602001610235565b61026b6105b4565b005b6007545b604051908152602001610235565b6102b261028d3660046122a6565b600060208190529081526040902080546001909101546001600160a01b039091169082565b604080516001600160a01b039093168352602083019190915201610235565b6102e46102df3660046122c1565b6106d7565b6040516001600160a01b039091168152602001610235565b600554610271565b6103176103123660046122da565b610701565b604051610235919061234c565b6103376103323660046122a6565b610840565b604051610235919061235f565b61026b610352366004612483565b6109ab565b600154610271565b61026b610afb565b6102b26103753660046122c1565b610b06565b61026b610b3e565b61026b610390366004612483565b610c3b565b6102e46103a33660046122c1565b610d87565b6102716103b63660046122a6565b60046020526000908152604090205481565b60095461024e90600160281b900463ffffffff1681565b61026b6103ed3660046122c1565b610d97565b61026b6104003660046124ce565b610e99565b61026b6104133660046122a6565b61102e565b61026b6104263660046124eb565b6110a6565b61026b6104393660046122a6565b611140565b61045161044c3660046122c1565b611206565b6040516102359a9998979695949392919061254e565b6104a16104753660046122a6565b60026020819052600091825260409091208054600182015491909201546001600160a01b039092169183565b604080516001600160a01b039094168452602084019290925290820152606001610235565b60095461024e9063ffffffff1681565b61026b611382565b61026b6104ec3660046122c1565b61142f565b61026b6104ff3660046125cb565b61158d565b60065461024e90600160201b900463ffffffff1681565b61026b6105293660046122c1565b6116a0565b61054161053c3660046122c1565b611713565b604080516001600160a01b039094168452911515602084015290820152606001610235565b60095461022990600160201b900460ff1681565b61026b6105883660046125f5565b611756565b600354610271565b6001600160a01b03166000908152600460205260409020546003111590565b6105bd33610595565b6105e25760405162461bcd60e51b81526004016105d9906126a6565b60405180910390fd5b3360009081526004602052604090205460059061060190600390612703565b8154811061061157610611612716565b6000918252602090912060729091020154600160a01b900460ff16156106795760405162461bcd60e51b815260206004820152601760248201527f4e6f646520697320616c7265616479206163746976652e00000000000000000060448201526064016105d9565b3360009081526004602052604090205460019060059061069b90600390612703565b815481106106ab576106ab612716565b600091825260209091206072909102018054911515600160a01b0260ff60a01b19909216919091179055565b600381815481106106e757600080fd5b6000918252602090912001546001600160a01b0316905081565b60095460609063ffffffff166107595760405162461bcd60e51b815260206004820152601960248201527f4e6f20747261696e696e6720706c616e7320637265617465640000000000000060448201526064016105d9565b6009546008906000906107749060019063ffffffff1661272c565b63ffffffff1681526020808201929092526040908101600090812086825260090183528181206001600160a01b0386168252600201909252902080546107b990612750565b80601f01602080910402602001604051908101604052809291908181526020018280546107e590612750565b80156108325780601f1061080757610100808354040283529160200191610832565b820191906000526020600020905b81548152906001019060200180831161081557829003601f168201915b505050505090505b92915050565b6108486121b2565b61085182610595565b61089d5760405162461bcd60e51b815260206004820152601e60248201527f4164647265737320646f65736e27742062656c6f6e6720746f206e6f6465000060448201526064016105d9565b6001600160a01b0382166000908152600460205260409020546005906108c590600390612703565b815481106108d5576108d5612716565b9060005260206000209060720201600101607080602002604051908101604052809291906000905b828210156109a057838201805461091390612750565b80601f016020809104026020016040519081016040528092919081815260200182805461093f90612750565b801561098c5780601f106109615761010080835404028352916020019161098c565b820191906000526020600020905b81548152906001019060200180831161096f57829003601f168201915b5050505050815260200190600101906108fd565b505050509050919050565b6109b433610595565b6109d05760405162461bcd60e51b81526004016105d9906126a6565b60095460009060089082906109ed9060019063ffffffff1661272c565b63ffffffff168152602081019190915260400160002060018101549091506001600160a01b03163314610a715760405162461bcd60e51b815260206004820152602660248201527f4f6e6c79207072652d73656c6563746564206e6f64652063616e2066696e69736044820152653410383630b760d11b60648201526084016105d9565b600481015460095463ffffffff918216600160281b9091049091161015610ada5760405162461bcd60e51b815260206004820152601c60248201527f416c6c20726f756e6473206d75737420626520636f6d706c657465640000000060448201526064016105d9565b60038101610ae883826127d9565b50506009805464ff000000001916905550565b610b04336119b3565b565b60078181548110610b1657600080fd5b6000918252602090912060029091020180546001909101546001600160a01b03909116915082565b610b4733610595565b610b635760405162461bcd60e51b81526004016105d9906126a6565b600754610bab5760405162461bcd60e51b81526020600482015260166024820152752737903932b8bab2b9ba103a3790383937b1b2b9b99760511b60448201526064016105d9565b60026004600060076001600780549050610bc59190612703565b81548110610bd557610bd5612716565b600091825260208083206002909202909101546001600160a01b031683528201929092526040019020556007805480610c1057610c10612899565b60008281526020812060026000199093019283020180546001600160a01b0319168155600101559055565b610c4481611ad2565b600b546009546001600160a01b039091169063a9059cbb903390600890600090610c769060019063ffffffff1661272c565b63ffffffff168152602001908152602001600020600701546040518363ffffffff1660e01b8152600401610cbf9291906001600160a01b03929092168252602082015260400190565b6020604051808303816000875af1158015610cde573d6000803e3d6000fd5b505050506040513d601f19601f82011682018060405250810190610d0291906128af565b50600954600890600090610d1e9060019063ffffffff1661272c565b63ffffffff16815260200190815260200160002060070154600860006001600960009054906101000a900463ffffffff16610d59919061272c565b63ffffffff1681526020019081526020016000206006016000828254610d7f9190612703565b909155505050565b600181815481106106e757600080fd5b3360009081526004602052604090205415610df45760405162461bcd60e51b815260206004820152601d60248201527f4164647265737320616c7265616479206d61646520726571756573742e00000060448201526064016105d9565b3360008181526004602090815260408083206001908190558151808301909252938152908101938452600780549384018155909152517fa66cc928b5edb82af9bd49922954155ab7b0942694bea4ce44661d9a8736c688600290920291820180546001600160a01b0319166001600160a01b0390921691909117905590517fa66cc928b5edb82af9bd49922954155ab7b0942694bea4ce44661d9a8736c68990910155565b610ea233610595565b610ebe5760405162461bcd60e51b81526004016105d9906126a6565b600954600160201b900460ff1615610f2d5760405162461bcd60e51b815260206004820152602c60248201527f4e6f64652063616e2774206368616e676520737461747573207768696c65207060448201526b3630b710393ab73734b7339760a11b60648201526084016105d9565b3360009081526004602052604090205481151590600590610f5090600390612703565b81548110610f6057610f60612716565b6000918252602090912060729091020154600160a01b900460ff16151514610fd05780610fa157600654610f9c9060019063ffffffff1661272c565b610fb5565b600654610fb59063ffffffff1660016128cc565b6006805463ffffffff191663ffffffff929092169190911790555b336000908152600460205260409020548190600590610ff190600390612703565b8154811061100157611001612716565b600091825260209091206072909102018054911515600160a01b0260ff60a01b1990921691909117905550565b336000908152602081905260409020546001600160a01b03166110635760405162461bcd60e51b81526004016105d9906128e9565b6001600160a01b038181166000908152600260205260409020541661109a5760405162461bcd60e51b81526004016105d990612933565b6110a381611cec565b50565b6110b1838383611e61565b60006110bd8383612114565b600b546040516323b872dd60e01b8152336004820152306024820152604481018390529192506001600160a01b0316906323b872dd906064016020604051808303816000875af1158015611115573d6000803e3d6000fd5b505050506040513d601f19601f8201168201806040525081019061113991906128af565b5050505050565b336000908152602081905260409020546001600160a01b03166111755760405162461bcd60e51b81526004016105d9906128e9565b6001600160a01b03818116600090815260026020526040902054166111ac5760405162461bcd60e51b81526004016105d990612933565b6001600160a01b03808216600090815260026020818152604092839020835160608101855281549095168552600181015491850182905290910154918301919091526111f990839061158d565b61120282611cec565b5050565b6008602052600090815260409020805460018201546002830180546001600160a01b039384169493831693600160a01b90930463ffffffff1692919061124b90612750565b80601f016020809104026020016040519081016040528092919081815260200182805461127790612750565b80156112c45780601f10611299576101008083540402835291602001916112c4565b820191906000526020600020905b8154815290600101906020018083116112a757829003601f168201915b5050505050908060030180546112d990612750565b80601f016020809104026020016040519081016040528092919081815260200182805461130590612750565b80156113525780601f1061132757610100808354040283529160200191611352565b820191906000526020600020905b81548152906001019060200180831161133557829003601f168201915b5050506004840154600585015460068601546007870154600890970154959663ffffffff9093169591945092508a565b60095463ffffffff16158015906113d3575060095433906008906000906113b19060019063ffffffff1661272c565b63ffffffff1681526020810191909152604001600020546001600160a01b0316145b61141f5760405162461bcd60e51b815260206004820152601f60248201527f4f6e6c792063726561746f722063616e2061626f72742074686520706c616e0060448201526064016105d9565b6009805464ff0000000019169055565b336000908152602081905260409020546001600160a01b03161561148e5760405162461bcd60e51b81526020600482015260166024820152754275696c64657220616c72656164792065786973747360501b60448201526064016105d9565b336000908152600260205260409020546001600160a01b0316156114f45760405162461bcd60e51b815260206004820152601e60248201527f4275696c64657220616c726561647920726571756573746564206a6f696e000060448201526064016105d9565b60408051606081018252338082526020808301948552600380548486019081526000848152600293849052958620945185546001600160a01b03919091166001600160a01b031991821617865596516001808701919091559051949092019390935582549081018355919092527fc2575a0e9e593c00f959f8c92f12db2869c3395a3b0502d05e2516446f71f85b018054909216179055565b336000908152602081905260409020546001600160a01b03166115c25760405162461bcd60e51b81526004016105d9906128e9565b6001600160a01b0382811660009081526020819052604090205416156116235760405162461bcd60e51b81526020600482015260166024820152754275696c64657220616c72656164792065786973747360501b60448201526064016105d9565b6040805180820182526001600160a01b0393841680825260208083019485526000828152908190529283209151825495166001600160a01b031995861617825592516001918201558054808201825591527fb10e2d527612073b26eecdfd717e6a320cf44b4afac2b0732d9fcbe2b7fa0cf6018054909216179055565b336000818152602081905260409020546001600160a01b0316146116fe5760405162461bcd60e51b815260206004820152601560248201527429b2b73232b91034b9903737ba10313ab4b63232b960591b60448201526064016105d9565b33600090815260208190526040902060010155565b6005818154811061172357600080fd5b6000918252602090912060729091020180546071909101546001600160a01b0382169250600160a01b90910460ff169083565b61175f33610595565b61177b5760405162461bcd60e51b81526004016105d9906126a6565b6007546117c35760405162461bcd60e51b81526020600482015260166024820152752737903932b8bab2b9ba103a3790383937b1b2b9b99760511b60448201526064016105d9565b6005546117d19060036129a2565b600780546004916000916117e790600190612703565b815481106117f7576117f7612716565b600091825260208083206002909202909101546001600160a01b03168352820192909252604001902055600680546001919060049061184590849063ffffffff600160201b909104166128cc565b92506101000a81548163ffffffff021916908363ffffffff16021790555060056040518060800160405280600760016007805490506118849190612703565b8154811061189457611894612716565b600091825260208083206002909202909101546001600160a01b0390811684526001848301819052604080860189905260065463ffffffff600160201b90910416606090960195909552865480820188559684529282902085516072909702018054928601511515600160a01b026001600160a81b031990931696909116959095171784559082015191929161192e9183019060706121da565b5060609190910151607190910155600680546001919060009061195890849063ffffffff166128cc565b92506101000a81548163ffffffff021916908363ffffffff160217905550600780548061198757611987612899565b60008281526020812060026000199093019283020180546001600160a01b031916815560010155905550565b6119bc81610595565b611a085760405162461bcd60e51b815260206004820152601a60248201527f41646472657373206973206e6f742076616c6964206e6f64652e00000000000060448201526064016105d9565b6001600160a01b038116600090815260046020526040902054600590611a3090600390612703565b81548110611a4057611a40612716565b6000918252602090912060729091020154600160a01b900460ff16611aa75760405162461bcd60e51b815260206004820152601860248201527f4e6f646520697320616c726561647920696e616374697665000000000000000060448201526064016105d9565b6001600160a01b038116600090815260046020526040902054600190600590610ff190600390612703565b611adb33610595565b611af75760405162461bcd60e51b81526004016105d9906126a6565b600954600890600090611b129060019063ffffffff1661272c565b63ffffffff9081168252602082019290925260400160002060040154600954908216600160281b90910490911610611b8c5760405162461bcd60e51b815260206004820152601a60248201527f4e6f206d6f726520726f756e647320746f20706572666f726d2e00000000000060448201526064016105d9565b6009546000906008908290611ba99060019063ffffffff1661272c565b63ffffffff90811682526020808301939093526040918201600090812060098054600160281b900490931682529190910183528181203382526002810190935220805491925090611bf990612750565b159050611c525760405162461bcd60e51b815260206004820152602160248201527f4d6f64656c20616c72656164792073656e7420666f72207468697320726f756e6044820152601960fa1b60648201526084016105d9565b3360009081526002820160205260409020611c6d83826127d9565b506001816001016000828254611c8391906129a2565b9091555050600654600182015463ffffffff9091161161120257805460ff19166001908117825560098054600590611cca90849063ffffffff600160281b909104166128cc565b92506101000a81548163ffffffff021916908363ffffffff1602179055505050565b336000908152602081905260409020546001600160a01b0316611d215760405162461bcd60e51b81526004016105d9906128e9565b6001600160a01b038116600090815260026020819052604090912001546003805482908110611d5257611d52612716565b6000918252602080832090910180546001600160a01b03199081169091556001600160a01b0385168352600291829052604083208054909116815560018181018490559101829055600380549091611da991612703565b81548110611db957611db9612716565b60009182526020808320909101546001600160a01b031680835260029182905260409092200183905560038054919250829184908110611dfb57611dfb612716565b9060005260206000200160006101000a8154816001600160a01b0302191690836001600160a01b031602179055506003805480611e3a57611e3a612899565b600082815260209020810160001990810180546001600160a01b0319169055019055505050565b336000908152602081905260409020546001600160a01b0316611e965760405162461bcd60e51b81526004016105d9906128e9565b600954600160201b900460ff1615611eff5760405162461bcd60e51b815260206004820152602660248201527f416e6f7468657220706c616e20697320616c7265616479206265696e672065786044820152651958dd5d195960d21b60648201526084016105d9565b60065463ffffffff16611f605760405162461bcd60e51b815260206004820152602360248201527f4e6f20616374697665206e6f64657320746f20657865637574652074686520706044820152623630b760e91b60648201526084016105d9565b60098054600091600891839163ffffffff9091169082611f7f836129b5565b82546101009290920a63ffffffff81810219909316918316021790915516815260208101919091526040016000208054336001600160a01b0319909116178155905060028101611fcf85826127d9565b5060048101805463ffffffff191663ffffffff85811691909117909155600654166005820155600781018290556120068383612114565b60068281019190915554600160201b900463ffffffff166008820155600061202c612141565b60055490915060009061203f90836129d8565b90505b6005805461205090836129d8565b8154811061206057612060612716565b6000918252602090912060729091020154600160a01b900460ff1661208f57612088816129fa565b9050612042565b6005805461209d90836129d8565b815481106120ad576120ad612716565b6000918252602090912060729091020154600193909301805463ffffffff909316600160a01b026001600160c01b03199093166001600160a01b03909416939093179190911790915550506009805468ffffffffff000000001916600160201b1790555050565b60065460009063ffffffff908116906121309084908616612a13565b61213a9190612a13565b9392505050565b600a54600090612152600143612703565b4041446040516020016121909493929190938452602084019290925260601b6bffffffffffffffffffffffff19166040830152605482015260740190565b60408051601f198184030181529190528051602090910120600a819055919050565b60405180610e0001604052806070905b60608152602001906001900390816121c25790505090565b8260708101928215612213579160200282015b82811115612213578251829061220390826127d9565b50916020019190600101906121ed565b5061221f929150612223565b5090565b8082111561221f5760006122378282612240565b50600101612223565b50805461224c90612750565b6000825580601f1061225c575050565b601f0160209004906000526020600020908101906110a391905b8082111561221f5760008155600101612276565b80356001600160a01b03811681146122a157600080fd5b919050565b6000602082840312156122b857600080fd5b61213a8261228a565b6000602082840312156122d357600080fd5b5035919050565b600080604083850312156122ed57600080fd5b823591506122fd6020840161228a565b90509250929050565b6000815180845260005b8181101561232c57602081850181015186830182015201612310565b506000602082860101526020601f19601f83011685010191505092915050565b60208152600061213a6020830184612306565b6020808252600090610e20830183820185845b60708110156123a157601f1987850301835261238f848351612306565b93509184019190840190600101612372565b50919695505050505050565b634e487b7160e01b600052604160045260246000fd5b604051610e00810167ffffffffffffffff811182821017156123e7576123e76123ad565b60405290565b600067ffffffffffffffff80841115612408576124086123ad565b604051601f8501601f19908116603f01168101908282118183101715612430576124306123ad565b8160405280935085815286868601111561244957600080fd5b858560208301376000602087830101525050509392505050565b600082601f83011261247457600080fd5b61213a838335602085016123ed565b60006020828403121561249557600080fd5b813567ffffffffffffffff8111156124ac57600080fd5b6124b884828501612463565b949350505050565b80151581146110a357600080fd5b6000602082840312156124e057600080fd5b813561213a816124c0565b60008060006060848603121561250057600080fd5b833567ffffffffffffffff81111561251757600080fd5b61252386828701612463565b935050602084013563ffffffff8116811461253d57600080fd5b929592945050506040919091013590565b6001600160a01b038b811682528a16602082015263ffffffff8981166040830152610140606083018190526000916125888483018c612306565b9150838203608085015261259c828b612306565b981660a0840152505060c081019490945260e08401929092526101008301526101209091015295945050505050565b600080604083850312156125de57600080fd5b6125e78361228a565b946020939093013593505050565b6000602080838503121561260857600080fd5b823567ffffffffffffffff8082111561262057600080fd5b8185019150601f868184011261263557600080fd5b61263d6123c3565b80610e0085018981111561265057600080fd5b855b818110156126975780358681111561266a5760008081fd5b87018581018c1361267b5760008081fd5b6126898c82358b84016123ed565b855250928701928701612652565b50909998505050505050505050565b60208082526027908201527f4f6e6c79206e6f6465732061726520616c6c6f77656420746f2065786563757460408201526632903a3434b99760c91b606082015260800190565b634e487b7160e01b600052601160045260246000fd5b8181038181111561083a5761083a6126ed565b634e487b7160e01b600052603260045260246000fd5b63ffffffff828116828216039080821115612749576127496126ed565b5092915050565b600181811c9082168061276457607f821691505b60208210810361278457634e487b7160e01b600052602260045260246000fd5b50919050565b601f8211156127d457600081815260208120601f850160051c810160208610156127b15750805b601f850160051c820191505b818110156127d0578281556001016127bd565b5050505b505050565b815167ffffffffffffffff8111156127f3576127f36123ad565b612807816128018454612750565b8461278a565b602080601f83116001811461283c57600084156128245750858301515b600019600386901b1c1916600185901b1785556127d0565b600085815260208120601f198616915b8281101561286b5788860151825594840194600190910190840161284c565b50858210156128895787850151600019600388901b60f8161c191681555b5050505050600190811b01905550565b634e487b7160e01b600052603160045260246000fd5b6000602082840312156128c157600080fd5b815161213a816124c0565b63ffffffff818116838216019080821115612749576127496126ed565b6020808252602a908201527f4f6e6c79206275696c646572732061726520616c6c6f77656420746f2065786560408201526931baba32903a3434b99760b11b606082015260800190565b60208082526049908201527f41646472657373206f66206e6577206275696c646572206861736e277420637260408201527f656174656420726571756573742e20436f6e7369646572207573696e6720616460608201526832213ab4b63232b91760b91b608082015260a00190565b8082018082111561083a5761083a6126ed565b600063ffffffff8083168181036129ce576129ce6126ed565b6001019392505050565b6000826129f557634e487b7160e01b600052601260045260246000fd5b500690565b600060018201612a0c57612a0c6126ed565b5060010190565b808202811582820484141761083a5761083a6126ed56fea2646970667358221220b35b266cabbafa2851cfffeb0dd3ac8bddb4958805edd9de4c0a435bba20d24d64736f6c63430008110033","bytecodeSha1":"45bc7e5641bfcb588d3e9adcb1bbe6b93db93b4f","compiler":{"evm_version":"istanbul","optimizer":{"enabled":true,"runs":200},"version":"0.8.17+commit.8df45f5f"},"contractName":"ProjectContract","language":"Solidity","natspec":{"details":"This contract is instantiated for each project and can be edited for individual needs.","kind":"dev","methods":{"acceptBuilderJoinRequest(address)":{"notice":"Already accepted builder can accept new builder.","params":{"newBuilderAddress":"address of the new builder"}},"acceptNode(bytes[112])":{"notice":"Accepting first request in the stack","params":{"secret":"sharing encrypted common secret for nodes TODO: Secret should be updated as hash of previous secret So that the node doesn't have access to previous models TODO: Should not accept node when plan is running"}},"activate()":{"notice":"Node activates itself"},"addBuilder(address,bytes32)":{"notice":"Already accepted builder can add new builder.","params":{"newBuilderAddress":"address of the new builder","publicKey":"compressed public key value"}},"changeNodeStatus(bool)":{"notice":"Function node can become active/inactive "},"constructor":{"details":"Initializes the project. Creator becomes both builder and data provider, might be changed in future","params":{"_token":"address of the FELToken","publicKey":"- Builder setup","secret":"- Encrypted secret for the owner (owner encrypts for himself)"}},"createPlan(string,uint32,uint256)":{"notice":"Builder creates training plan","params":{"modelCID":"- ipfs CID","reward":"- reward for data providers for each model submitted","rounds":"- number of training rounds"}},"deactivate()":{"details":"onlyNode modifier is not required. It is checked inside _deactivateNode(...)","notice":"Node deactivates itself"},"declineBuilderJoinRequest(address)":{"notice":"Already accepted builder can accept new builder.","params":{"newBuilderAddress":"address of the new builder"}},"declineNode()":{"notice":"Declining first request in the stack"},"isNode(address)":{"notice":"Check if given address belongs to node","params":{"_address":"address to check"}},"requestJoinBuilder(bytes32)":{"notice":"Anyone can request to become a builder.","params":{"publicKey":"compressed public key value"}},"requestJoinNode(bytes32)":{"notice":"Node can request to join providing their public key.","params":{"publicKey":"compressed public key value"}},"setBuilderPublickey(bytes32)":{"notice":"Builder can update his public key.","params":{"publicKey":"compressed public key value"}},"submitModel(string)":{"notice":"Data provider submits model","params":{"modelCID":"- ipfs CID"}}},"notice":"Project Contract manages references to Data Providers (nodes) and Builders (scientists). Data providers must watch this contract and execute new plans. Builders creat training plans.","title":"Project Contract","version":1},"opcodes":"PUSH1 0x80 PUSH1 0x40 MSTORE CALLVALUE DUP1 ISZERO PUSH2 0x10 JUMPI PUSH1 0x0 DUP1 REVERT JUMPDEST POP PUSH1 0x4 CALLDATASIZE LT PUSH2 0x211 JUMPI PUSH1 0x0 CALLDATALOAD PUSH1 0xE0 SHR DUP1 PUSH4 0x8A19C8BC GT PUSH2 0x125 JUMPI DUP1 PUSH4 0xB777A893 GT PUSH2 0xAD JUMPI DUP1 PUSH4 0xBC946EAD GT PUSH2 0x7C JUMPI DUP1 PUSH4 0xBC946EAD EQ PUSH2 0x51B JUMPI DUP1 PUSH4 0xC4E10A14 EQ PUSH2 0x52E JUMPI DUP1 PUSH4 0xDA0986AA EQ PUSH2 0x566 JUMPI DUP1 PUSH4 0xE27C87A0 EQ PUSH2 0x57A JUMPI DUP1 PUSH4 0xEF2DC65E EQ PUSH2 0x58D JUMPI PUSH1 0x0 DUP1 REVERT JUMPDEST DUP1 PUSH4 0xB777A893 EQ PUSH2 0x4D6 JUMPI DUP1 PUSH4 0xB7B92F47 EQ PUSH2 0x4DE JUMPI DUP1 PUSH4 0xB9FAE085 EQ PUSH2 0x4F1 JUMPI DUP1 PUSH4 0xBA7925CB EQ PUSH2 0x504 JUMPI PUSH1 0x0 DUP1 REVERT JUMPDEST DUP1 PUSH4 0xAB705DED GT PUSH2 0xF4 JUMPI DUP1 PUSH4 0xAB705DED EQ PUSH2 0x418 JUMPI DUP1 PUSH4 0xB155533A EQ PUSH2 0x42B JUMPI DUP1 PUSH4 0xB1620616 EQ PUSH2 0x43E JUMPI DUP1 PUSH4 0xB4FA6BA9 EQ PUSH2 0x467 JUMPI DUP1 PUSH4 0xB5967269 EQ PUSH2 0x4C6 JUMPI PUSH1 0x0 DUP1 REVERT JUMPDEST DUP1 PUSH4 0x8A19C8BC EQ PUSH2 0x3C8 JUMPI DUP1 PUSH4 0x94613CD7 EQ PUSH2 0x3DF JUMPI DUP1 PUSH4 0xA0572B2A EQ PUSH2 0x3F2 JUMPI DUP1 PUSH4 0xA2F6F781 EQ PUSH2 0x405 JUMPI PUSH1 0x0 DUP1 REVERT JUMPDEST DUP1 PUSH4 0x4244609B GT PUSH2 0x1A8 JUMPI DUP1 PUSH4 0x6F2690A5 GT PUSH2 0x177 JUMPI DUP1 PUSH4 0x6F2690A5 EQ PUSH2 0x367 JUMPI DUP1 PUSH4 0x72AB489F EQ PUSH2 0x37A JUMPI DUP1 PUSH4 0x730F919D EQ PUSH2 0x382 JUMPI DUP1 PUSH4 0x7CF3110C EQ PUSH2 0x395 JUMPI DUP1 PUSH4 0x8518A047 EQ PUSH2 0x3A8 JUMPI PUSH1 0x0 DUP1 REVERT JUMPDEST DUP1 PUSH4 0x4244609B EQ PUSH2 0x324 JUMPI DUP1 PUSH4 0x4C781DA5 EQ PUSH2 0x344 JUMPI DUP1 PUSH4 0x50C62AC3 EQ PUSH2 0x357 JUMPI DUP1 PUSH4 0x51B42B00 EQ PUSH2 0x35F JUMPI PUSH1 0x0 DUP1 REVERT JUMPDEST DUP1 PUSH4 0x144DDEFC GT PUSH2 0x1E4 JUMPI DUP1 PUSH4 0x144DDEFC EQ PUSH2 0x27F JUMPI DUP1 PUSH4 0x168168A7 EQ PUSH2 0x2D1 JUMPI DUP1 PUSH4 0x1821AA62 EQ PUSH2 0x2FC JUMPI DUP1 PUSH4 0x31888D88 EQ PUSH2 0x304 JUMPI PUSH1 0x0 DUP1 REVERT JUMPDEST DUP1 PUSH4 0x1750152 EQ PUSH2 0x216 JUMPI DUP1 PUSH4 0x7F19651 EQ PUSH2 0x23E JUMPI DUP1 PUSH4 0xF15F4C0 EQ PUSH2 0x263 JUMPI DUP1 PUSH4 0x13029E03 EQ PUSH2 0x26D JUMPI JUMPDEST PUSH1 0x0 DUP1 REVERT JUMPDEST PUSH2 0x229 PUSH2 0x224 CALLDATASIZE PUSH1 0x4 PUSH2 0x22A6 JUMP JUMPDEST PUSH2 0x595 JUMP JUMPDEST PUSH1 0x40 MLOAD SWAP1 ISZERO ISZERO DUP2 MSTORE PUSH1 0x20 ADD JUMPDEST PUSH1 0x40 MLOAD DUP1 SWAP2 SUB SWAP1 RETURN JUMPDEST PUSH1 0x6 SLOAD PUSH2 0x24E SWAP1 PUSH4 0xFFFFFFFF AND DUP2 JUMP JUMPDEST PUSH1 0x40 MLOAD PUSH4 0xFFFFFFFF SWAP1 SWAP2 AND DUP2 MSTORE PUSH1 0x20 ADD PUSH2 0x235 JUMP JUMPDEST PUSH2 0x26B PUSH2 0x5B4 JUMP JUMPDEST STOP JUMPDEST PUSH1 0x7 SLOAD JUMPDEST PUSH1 0x40 MLOAD SWAP1 DUP2 MSTORE PUSH1 0x20 ADD PUSH2 0x235 JUMP JUMPDEST PUSH2 0x2B2 PUSH2 0x28D CALLDATASIZE PUSH1 0x4 PUSH2 0x22A6 JUMP JUMPDEST PUSH1 0x0 PUSH1 0x20 DUP2 SWAP1 MSTORE SWAP1 DUP2 MSTORE PUSH1 0x40 SWAP1 KECCAK256 DUP1 SLOAD PUSH1 0x1 SWAP1 SWAP2 ADD SLOAD PUSH1 0x1 PUSH1 0x1 PUSH1 0xA0 SHL SUB SWAP1 SWAP2 AND SWAP1 DUP3 JUMP JUMPDEST PUSH1 0x40 DUP1 MLOAD PUSH1 0x1 PUSH1 0x1 PUSH1 0xA0 SHL SUB SWAP1 SWAP4 AND DUP4 MSTORE PUSH1 0x20 DUP4 ADD SWAP2 SWAP1 SWAP2 MSTORE ADD PUSH2 0x235 JUMP JUMPDEST PUSH2 0x2E4 PUSH2 0x2DF CALLDATASIZE PUSH1 0x4 PUSH2 0x22C1 JUMP JUMPDEST PUSH2 0x6D7 JUMP JUMPDEST PUSH1 0x40 MLOAD PUSH1 0x1 PUSH1 0x1 PUSH1 0xA0 SHL SUB SWAP1 SWAP2 AND DUP2 MSTORE PUSH1 0x20 ADD PUSH2 0x235 JUMP JUMPDEST PUSH1 0x5 SLOAD PUSH2 0x271 JUMP JUMPDEST PUSH2 0x317 PUSH2 0x312 CALLDATASIZE PUSH1 0x4 PUSH2 0x22DA JUMP JUMPDEST PUSH2 0x701 JUMP JUMPDEST PUSH1 0x40 MLOAD PUSH2 0x235 SWAP2 SWAP1 PUSH2 0x234C JUMP JUMPDEST PUSH2 0x337 PUSH2 0x332 CALLDATASIZE PUSH1 0x4 PUSH2 0x22A6 JUMP JUMPDEST PUSH2 0x840 JUMP JUMPDEST PUSH1 0x40 MLOAD PUSH2 0x235 SWAP2 SWAP1 PUSH2 0x235F JUMP JUMPDEST PUSH2 0x26B PUSH2 0x352 CALLDATASIZE PUSH1 0x4 PUSH2 0x2483 JUMP JUMPDEST PUSH2 0x9AB JUMP JUMPDEST PUSH1 0x1 SLOAD PUSH2 0x271 JUMP JUMPDEST PUSH2 0x26B PUSH2 0xAFB JUMP JUMPDEST PUSH2 0x2B2 PUSH2 0x375 CALLDATASIZE PUSH1 0x4 PUSH2 0x22C1 JUMP JUMPDEST PUSH2 0xB06 JUMP JUMPDEST PUSH2 0x26B PUSH2 0xB3E JUMP JUMPDEST PUSH2 0x26B PUSH2 0x390 CALLDATASIZE PUSH1 0x4 PUSH2 0x2483 JUMP JUMPDEST PUSH2 0xC3B JUMP JUMPDEST PUSH2 0x2E4 PUSH2 0x3A3 CALLDATASIZE PUSH1 0x4 PUSH2 0x22C1 JUMP JUMPDEST PUSH2 0xD87 JUMP JUMPDEST PUSH2 0x271 PUSH2 0x3B6 CALLDATASIZE PUSH1 0x4 PUSH2 0x22A6 JUMP JUMPDEST PUSH1 0x4 PUSH1 0x20 MSTORE PUSH1 0x0 SWAP1 DUP2 MSTORE PUSH1 0x40 SWAP1 KECCAK256 SLOAD DUP2 JUMP JUMPDEST PUSH1 0x9 SLOAD PUSH2 0x24E SWAP1 PUSH1 0x1 PUSH1 0x28 SHL SWAP1 DIV PUSH4 0xFFFFFFFF AND DUP2 JUMP JUMPDEST PUSH2 0x26B PUSH2 0x3ED CALLDATASIZE PUSH1 0x4 PUSH2 0x22C1 JUMP JUMPDEST PUSH2 0xD97 JUMP JUMPDEST PUSH2 0x26B PUSH2 0x400 CALLDATASIZE PUSH1 0x4 PUSH2 0x24CE JUMP JUMPDEST PUSH2 0xE99 JUMP JUMPDEST PUSH2 0x26B PUSH2 0x413 CALLDATASIZE PUSH1 0x4 PUSH2 0x22A6 JUMP JUMPDEST PUSH2 0x102E JUMP JUMPDEST PUSH2 0x26B PUSH2 0x426 CALLDATASIZE PUSH1 0x4 PUSH2 0x24EB JUMP JUMPDEST PUSH2 0x10A6 JUMP JUMPDEST PUSH2 0x26B PUSH2 0x439 CALLDATASIZE PUSH1 0x4 PUSH2 0x22A6 JUMP JUMPDEST PUSH2 0x1140 JUMP JUMPDEST PUSH2 0x451 PUSH2 0x44C CALLDATASIZE PUSH1 0x4 PUSH2 0x22C1 JUMP JUMPDEST PUSH2 0x1206 JUMP JUMPDEST PUSH1 0x40 MLOAD PUSH2 0x235 SWAP11 SWAP10 SWAP9 SWAP8 SWAP7 SWAP6 SWAP5 SWAP4 SWAP3 SWAP2 SWAP1 PUSH2 0x254E JUMP JUMPDEST PUSH2 0x4A1 PUSH2 0x475 CALLDATASIZE PUSH1 0x4 PUSH2 0x22A6 JUMP JUMPDEST PUSH1 0x2 PUSH1 0x20 DUP2 SWAP1 MSTORE PUSH1 0x0 SWAP2 DUP3 MSTORE PUSH1 0x40 SWAP1 SWAP2 KECCAK256 DUP1 SLOAD PUSH1 0x1 DUP3 ADD SLOAD SWAP2 SWAP1 SWAP3 ADD SLOAD PUSH1 0x1 PUSH1 0x1 PUSH1 0xA0 SHL SUB SWAP1 SWAP3 AND SWAP2 DUP4 JUMP JUMPDEST PUSH1 0x40 DUP1 MLOAD PUSH1 0x1 PUSH1 0x1 PUSH1 0xA0 SHL SUB SWAP1 SWAP5 AND DUP5 MSTORE PUSH1 0x20 DUP5 ADD SWAP3 SWAP1 SWAP3 MSTORE SWAP1 DUP3 ADD MSTORE PUSH1 0x60 ADD PUSH2 0x235 JUMP JUMPDEST PUSH1 0x9 SLOAD PUSH2 0x24E SWAP1 PUSH4 0xFFFFFFFF AND DUP2 JUMP JUMPDEST PUSH2 0x26B PUSH2 0x1382 JUMP JUMPDEST PUSH2 0x26B PUSH2 0x4EC CALLDATASIZE PUSH1 0x4 PUSH2 0x22C1 JUMP JUMPDEST PUSH2 0x142F JUMP JUMPDEST PUSH2 0x26B PUSH2 0x4FF CALLDATASIZE PUSH1 0x4 PUSH2 0x25CB JUMP JUMPDEST PUSH2 0x158D JUMP JUMPDEST PUSH1 0x6 SLOAD PUSH2 0x24E SWAP1 PUSH1 0x1 PUSH1 0x20 SHL SWAP1 DIV PUSH4 0xFFFFFFFF AND DUP2 JUMP JUMPDEST PUSH2 0x26B PUSH2 0x529 CALLDATASIZE PUSH1 0x4 PUSH2 0x22C1 JUMP JUMPDEST PUSH2 0x16A0 JUMP JUMPDEST PUSH2 0x541 PUSH2 0x53C CALLDATASIZE PUSH1 0x4 PUSH2 0x22C1 JUMP JUMPDEST PUSH2 0x1713 JUMP JUMPDEST PUSH1 0x40 DUP1 MLOAD PUSH1 0x1 PUSH1 0x1 PUSH1 0xA0 SHL SUB SWAP1 SWAP5 AND DUP5 MSTORE SWAP2 ISZERO ISZERO PUSH1 0x20 DUP5 ADD MSTORE SWAP1 DUP3 ADD MSTORE PUSH1 0x60 ADD PUSH2 0x235 JUMP JUMPDEST PUSH1 0x9 SLOAD PUSH2 0x229 SWAP1 PUSH1 0x1 PUSH1 0x20 SHL SWAP1 DIV PUSH1 0xFF AND DUP2 JUMP JUMPDEST PUSH2 0x26B PUSH2 0x588 CALLDATASIZE PUSH1 0x4 PUSH2 0x25F5 JUMP JUMPDEST PUSH2 0x1756 JUMP JUMPDEST PUSH1 0x3 SLOAD PUSH2 0x271 JUMP JUMPDEST PUSH1 0x1 PUSH1 0x1 PUSH1 0xA0 SHL SUB AND PUSH1 0x0 SWAP1 DUP2 MSTORE PUSH1 0x4 PUSH1 0x20 MSTORE PUSH1 0x40 SWAP1 KECCAK256 SLOAD PUSH1 0x3 GT ISZERO SWAP1 JUMP JUMPDEST PUSH2 0x5BD CALLER PUSH2 0x595 JUMP JUMPDEST PUSH2 0x5E2 JUMPI PUSH1 0x40 MLOAD PUSH3 0x461BCD PUSH1 0xE5 SHL DUP2 MSTORE PUSH1 0x4 ADD PUSH2 0x5D9 SWAP1 PUSH2 0x26A6 JUMP JUMPDEST PUSH1 0x40 MLOAD DUP1 SWAP2 SUB SWAP1 REVERT JUMPDEST CALLER PUSH1 0x0 SWAP1 DUP2 MSTORE PUSH1 0x4 PUSH1 0x20 MSTORE PUSH1 0x40 SWAP1 KECCAK256 SLOAD PUSH1 0x5 SWAP1 PUSH2 0x601 SWAP1 PUSH1 0x3 SWAP1 PUSH2 0x2703 JUMP JUMPDEST DUP2 SLOAD DUP2 LT PUSH2 0x611 JUMPI PUSH2 0x611 PUSH2 0x2716 JUMP JUMPDEST PUSH1 0x0 SWAP2 DUP3 MSTORE PUSH1 0x20 SWAP1 SWAP2 KECCAK256 PUSH1 0x72 SWAP1 SWAP2 MUL ADD SLOAD PUSH1 0x1 PUSH1 0xA0 SHL SWAP1 DIV PUSH1 0xFF AND ISZERO PUSH2 0x679 JUMPI PUSH1 0x40 MLOAD PUSH3 0x461BCD PUSH1 0xE5 SHL DUP2 MSTORE PUSH1 0x20 PUSH1 0x4 DUP3 ADD MSTORE PUSH1 0x17 PUSH1 0x24 DUP3 ADD MSTORE PUSH32 0x4E6F646520697320616C7265616479206163746976652E000000000000000000 PUSH1 0x44 DUP3 ADD MSTORE PUSH1 0x64 ADD PUSH2 0x5D9 JUMP JUMPDEST CALLER PUSH1 0x0 SWAP1 DUP2 MSTORE PUSH1 0x4 PUSH1 0x20 MSTORE PUSH1 0x40 SWAP1 KECCAK256 SLOAD PUSH1 0x1 SWAP1 PUSH1 0x5 SWAP1 PUSH2 0x69B SWAP1 PUSH1 0x3 SWAP1 PUSH2 0x2703 JUMP JUMPDEST DUP2 SLOAD DUP2 LT PUSH2 0x6AB JUMPI PUSH2 0x6AB PUSH2 0x2716 JUMP JUMPDEST PUSH1 0x0 SWAP2 DUP3 MSTORE PUSH1 0x20 SWAP1 SWAP2 KECCAK256 PUSH1 0x72 SWAP1 SWAP2 MUL ADD DUP1 SLOAD SWAP2 ISZERO ISZERO PUSH1 0x1 PUSH1 0xA0 SHL MUL PUSH1 0xFF PUSH1 0xA0 SHL NOT SWAP1 SWAP3 AND SWAP2 SWAP1 SWAP2 OR SWAP1 SSTORE JUMP JUMPDEST PUSH1 0x3 DUP2 DUP2 SLOAD DUP2 LT PUSH2 0x6E7 JUMPI PUSH1 0x0 DUP1 REVERT JUMPDEST PUSH1 0x0 SWAP2 DUP3 MSTORE PUSH1 0x20 SWAP1 SWAP2 KECCAK256 ADD SLOAD PUSH1 0x1 PUSH1 0x1 PUSH1 0xA0 SHL SUB AND SWAP1 POP DUP2 JUMP JUMPDEST PUSH1 0x9 SLOAD PUSH1 0x60 SWAP1 PUSH4 0xFFFFFFFF AND PUSH2 0x759 JUMPI PUSH1 0x40 MLOAD PUSH3 0x461BCD PUSH1 0xE5 SHL DUP2 MSTORE PUSH1 0x20 PUSH1 0x4 DUP3 ADD MSTORE PUSH1 0x19 PUSH1 0x24 DUP3 ADD MSTORE PUSH32 0x4E6F20747261696E696E6720706C616E73206372656174656400000000000000 PUSH1 0x44 DUP3 ADD MSTORE PUSH1 0x64 ADD PUSH2 0x5D9 JUMP JUMPDEST PUSH1 0x9 SLOAD PUSH1 0x8 SWAP1 PUSH1 0x0 SWAP1 PUSH2 0x774 SWAP1 PUSH1 0x1 SWAP1 PUSH4 0xFFFFFFFF AND PUSH2 0x272C JUMP JUMPDEST PUSH4 0xFFFFFFFF AND DUP2 MSTORE PUSH1 0x20 DUP1 DUP3 ADD SWAP3 SWAP1 SWAP3 MSTORE PUSH1 0x40 SWAP1 DUP2 ADD PUSH1 0x0 SWAP1 DUP2 KECCAK256 DUP7 DUP3 MSTORE PUSH1 0x9 ADD DUP4 MSTORE DUP2 DUP2 KECCAK256 PUSH1 0x1 PUSH1 0x1 PUSH1 0xA0 SHL SUB DUP7 AND DUP3 MSTORE PUSH1 0x2 ADD SWAP1 SWAP3 MSTORE SWAP1 KECCAK256 DUP1 SLOAD PUSH2 0x7B9 SWAP1 PUSH2 0x2750 JUMP JUMPDEST DUP1 PUSH1 0x1F ADD PUSH1 0x20 DUP1 SWAP2 DIV MUL PUSH1 0x20 ADD PUSH1 0x40 MLOAD SWAP1 DUP2 ADD PUSH1 0x40 MSTORE DUP1 SWAP3 SWAP2 SWAP1 DUP2 DUP2 MSTORE PUSH1 0x20 ADD DUP3 DUP1 SLOAD PUSH2 0x7E5 SWAP1 PUSH2 0x2750 JUMP JUMPDEST DUP1 ISZERO PUSH2 0x832 JUMPI DUP1 PUSH1 0x1F LT PUSH2 0x807 JUMPI PUSH2 0x100 DUP1 DUP4 SLOAD DIV MUL DUP4 MSTORE SWAP2 PUSH1 0x20 ADD SWAP2 PUSH2 0x832 JUMP JUMPDEST DUP3 ADD SWAP2 SWAP1 PUSH1 0x0 MSTORE PUSH1 0x20 PUSH1 0x0 KECCAK256 SWAP1 JUMPDEST DUP2 SLOAD DUP2 MSTORE SWAP1 PUSH1 0x1 ADD SWAP1 PUSH1 0x20 ADD DUP1 DUP4 GT PUSH2 0x815 JUMPI DUP3 SWAP1 SUB PUSH1 0x1F AND DUP3 ADD SWAP2 JUMPDEST POP POP POP POP POP SWAP1 POP JUMPDEST SWAP3 SWAP2 POP POP JUMP JUMPDEST PUSH2 0x848 PUSH2 0x21B2 JUMP JUMPDEST PUSH2 0x851 DUP3 PUSH2 0x595 JUMP JUMPDEST PUSH2 0x89D JUMPI PUSH1 0x40 MLOAD PUSH3 0x461BCD PUSH1 0xE5 SHL DUP2 MSTORE PUSH1 0x20 PUSH1 0x4 DUP3 ADD MSTORE PUSH1 0x1E PUSH1 0x24 DUP3 ADD MSTORE PUSH32 0x4164647265737320646F65736E27742062656C6F6E6720746F206E6F64650000 PUSH1 0x44 DUP3 ADD MSTORE PUSH1 0x64 ADD PUSH2 0x5D9 JUMP JUMPDEST PUSH1 0x1 PUSH1 0x1 PUSH1 0xA0 SHL SUB DUP3 AND PUSH1 0x0 SWAP1 DUP2 MSTORE PUSH1 0x4 PUSH1 0x20 MSTORE PUSH1 0x40 SWAP1 KECCAK256 SLOAD PUSH1 0x5 SWAP1 PUSH2 0x8C5 SWAP1 PUSH1 0x3 SWAP1 PUSH2 0x2703 JUMP JUMPDEST DUP2 SLOAD DUP2 LT PUSH2 0x8D5 JUMPI PUSH2 0x8D5 PUSH2 0x2716 JUMP JUMPDEST SWAP1 PUSH1 0x0 MSTORE PUSH1 0x20 PUSH1 0x0 KECCAK256 SWAP1 PUSH1 0x72 MUL ADD PUSH1 0x1 ADD PUSH1 0x70 DUP1 PUSH1 0x20 MUL PUSH1 0x40 MLOAD SWAP1 DUP2 ADD PUSH1 0x40 MSTORE DUP1 SWAP3 SWAP2 SWAP1 PUSH1 0x0 SWAP1 JUMPDEST DUP3 DUP3 LT ISZERO PUSH2 0x9A0 JUMPI DUP4 DUP3 ADD DUP1 SLOAD PUSH2 0x913 SWAP1 PUSH2 0x2750 JUMP JUMPDEST DUP1 PUSH1 0x1F ADD PUSH1 0x20 DUP1 SWAP2 DIV MUL PUSH1 0x20 ADD PUSH1 0x40 MLOAD SWAP1 DUP2 ADD PUSH1 0x40 MSTORE DUP1 SWAP3 SWAP2 SWAP1 DUP2 DUP2 MSTORE PUSH1 0x20 ADD DUP3 DUP1 SLOAD PUSH2 0x93F SWAP1 PUSH2 0x2750 JUMP JUMPDEST DUP1 ISZERO PUSH2 0x98C JUMPI DUP1 PUSH1 0x1F LT PUSH2 0x961 JUMPI PUSH2 0x100 DUP1 DUP4 SLOAD DIV MUL DUP4 MSTORE SWAP2 PUSH1 0x20 ADD SWAP2 PUSH2 0x98C JUMP JUMPDEST DUP3 ADD SWAP2 SWAP1 PUSH1 0x0 MSTORE PUSH1 0x20 PUSH1 0x0 KECCAK256 SWAP1 JUMPDEST DUP2 SLOAD DUP2 MSTORE SWAP1 PUSH1 0x1 ADD SWAP1 PUSH1 0x20 ADD DUP1 DUP4 GT PUSH2 0x96F JUMPI DUP3 SWAP1 SUB PUSH1 0x1F AND DUP3 ADD SWAP2 JUMPDEST POP POP POP POP POP DUP2 MSTORE PUSH1 0x20 ADD SWAP1 PUSH1 0x1 ADD SWAP1 PUSH2 0x8FD JUMP JUMPDEST POP POP POP POP SWAP1 POP SWAP2 SWAP1 POP JUMP JUMPDEST PUSH2 0x9B4 CALLER PUSH2 0x595 JUMP JUMPDEST PUSH2 0x9D0 JUMPI PUSH1 0x40 MLOAD PUSH3 0x461BCD PUSH1 0xE5 SHL DUP2 MSTORE PUSH1 0x4 ADD PUSH2 0x5D9 SWAP1 PUSH2 0x26A6 JUMP JUMPDEST PUSH1 0x9 SLOAD PUSH1 0x0 SWAP1 PUSH1 0x8 SWAP1 DUP3 SWAP1 PUSH2 0x9ED SWAP1 PUSH1 0x1 SWAP1 PUSH4 0xFFFFFFFF AND PUSH2 0x272C JUMP JUMPDEST PUSH4 0xFFFFFFFF AND DUP2 MSTORE PUSH1 0x20 DUP2 ADD SWAP2 SWAP1 SWAP2 MSTORE PUSH1 0x40 ADD PUSH1 0x0 KECCAK256 PUSH1 0x1 DUP2 ADD SLOAD SWAP1 SWAP2 POP PUSH1 0x1 PUSH1 0x1 PUSH1 0xA0 SHL SUB AND CALLER EQ PUSH2 0xA71 JUMPI PUSH1 0x40 MLOAD PUSH3 0x461BCD PUSH1 0xE5 SHL DUP2 MSTORE PUSH1 0x20 PUSH1 0x4 DUP3 ADD MSTORE PUSH1 0x26 PUSH1 0x24 DUP3 ADD MSTORE PUSH32 0x4F6E6C79207072652D73656C6563746564206E6F64652063616E2066696E6973 PUSH1 0x44 DUP3 ADD MSTORE PUSH6 0x3410383630B7 PUSH1 0xD1 SHL PUSH1 0x64 DUP3 ADD MSTORE PUSH1 0x84 ADD PUSH2 0x5D9 JUMP JUMPDEST PUSH1 0x4 DUP2 ADD SLOAD PUSH1 0x9 SLOAD PUSH4 0xFFFFFFFF SWAP2 DUP3 AND PUSH1 0x1 PUSH1 0x28 SHL SWAP1 SWAP2 DIV SWAP1 SWAP2 AND LT ISZERO PUSH2 0xADA JUMPI PUSH1 0x40 MLOAD PUSH3 0x461BCD PUSH1 0xE5 SHL DUP2 MSTORE PUSH1 0x20 PUSH1 0x4 DUP3 ADD MSTORE PUSH1 0x1C PUSH1 0x24 DUP3 ADD MSTORE PUSH32 0x416C6C20726F756E6473206D75737420626520636F6D706C6574656400000000 PUSH1 0x44 DUP3 ADD MSTORE PUSH1 0x64 ADD PUSH2 0x5D9 JUMP JUMPDEST PUSH1 0x3 DUP2 ADD PUSH2 0xAE8 DUP4 DUP3 PUSH2 0x27D9 JUMP JUMPDEST POP POP PUSH1 0x9 DUP1 SLOAD PUSH5 0xFF00000000 NOT AND SWAP1 SSTORE POP JUMP JUMPDEST PUSH2 0xB04 CALLER PUSH2 0x19B3 JUMP JUMPDEST JUMP JUMPDEST PUSH1 0x7 DUP2 DUP2 SLOAD DUP2 LT PUSH2 0xB16 JUMPI PUSH1 0x0 DUP1 REVERT JUMPDEST PUSH1 0x0 SWAP2 DUP3 MSTORE PUSH1 0x20 SWAP1 SWAP2 KECCAK256 PUSH1 0x2 SWAP1 SWAP2 MUL ADD DUP1 SLOAD PUSH1 0x1 SWAP1 SWAP2 ADD SLOAD PUSH1 0x1 PUSH1 0x1 PUSH1 0xA0 SHL SUB SWAP1 SWAP2 AND SWAP2 POP DUP3 JUMP JUMPDEST PUSH2 0xB47 CALLER PUSH2 0x595 JUMP JUMPDEST PUSH2 0xB63 JUMPI PUSH1 0x40 MLOAD PUSH3 0x461BCD PUSH1 0xE5 SHL DUP2 MSTORE PUSH1 0x4 ADD PUSH2 0x5D9 SWAP1 PUSH2 0x26A6 JUMP JUMPDEST PUSH1 0x7 SLOAD PUSH2 0xBAB JUMPI PUSH1 0x40 MLOAD PUSH3 0x461BCD PUSH1 0xE5 SHL DUP2 MSTORE PUSH1 0x20 PUSH1 0x4 DUP3 ADD MSTORE PUSH1 0x16 PUSH1 0x24 DUP3 ADD MSTORE PUSH22 0x2737903932B8BAB2B9BA103A3790383937B1B2B9B997 PUSH1 0x51 SHL PUSH1 0x44 DUP3 ADD MSTORE PUSH1 0x64 ADD PUSH2 0x5D9 JUMP JUMPDEST PUSH1 0x2 PUSH1 0x4 PUSH1 0x0 PUSH1 0x7 PUSH1 0x1 PUSH1 0x7 DUP1 SLOAD SWAP1 POP PUSH2 0xBC5 SWAP2 SWAP1 PUSH2 0x2703 JUMP JUMPDEST DUP2 SLOAD DUP2 LT PUSH2 0xBD5 JUMPI PUSH2 0xBD5 PUSH2 0x2716 JUMP JUMPDEST PUSH1 0x0 SWAP2 DUP3 MSTORE PUSH1 0x20 DUP1 DUP4 KECCAK256 PUSH1 0x2 SWAP1 SWAP3 MUL SWAP1 SWAP2 ADD SLOAD PUSH1 0x1 PUSH1 0x1 PUSH1 0xA0 SHL SUB AND DUP4 MSTORE DUP3 ADD SWAP3 SWAP1 SWAP3 MSTORE PUSH1 0x40 ADD SWAP1 KECCAK256 SSTORE PUSH1 0x7 DUP1 SLOAD DUP1 PUSH2 0xC10 JUMPI PUSH2 0xC10 PUSH2 0x2899 JUMP JUMPDEST PUSH1 0x0 DUP3 DUP2 MSTORE PUSH1 0x20 DUP2 KECCAK256 PUSH1 0x2 PUSH1 0x0 NOT SWAP1 SWAP4 ADD SWAP3 DUP4 MUL ADD DUP1 SLOAD PUSH1 0x1 PUSH1 0x1 PUSH1 0xA0 SHL SUB NOT AND DUP2 SSTORE PUSH1 0x1 ADD SSTORE SWAP1 SSTORE JUMP JUMPDEST PUSH2 0xC44 DUP2 PUSH2 0x1AD2 JUMP JUMPDEST PUSH1 0xB SLOAD PUSH1 0x9 SLOAD PUSH1 0x1 PUSH1 0x1 PUSH1 0xA0 SHL SUB SWAP1 SWAP2 AND SWAP1 PUSH4 0xA9059CBB SWAP1 CALLER SWAP1 PUSH1 0x8 SWAP1 PUSH1 0x0 SWAP1 PUSH2 0xC76 SWAP1 PUSH1 0x1 SWAP1 PUSH4 0xFFFFFFFF AND PUSH2 0x272C JUMP JUMPDEST PUSH4 0xFFFFFFFF AND DUP2 MSTORE PUSH1 0x20 ADD SWAP1 DUP2 MSTORE PUSH1 0x20 ADD PUSH1 0x0 KECCAK256 PUSH1 0x7 ADD SLOAD PUSH1 0x40 MLOAD DUP4 PUSH4 0xFFFFFFFF AND PUSH1 0xE0 SHL DUP2 MSTORE PUSH1 0x4 ADD PUSH2 0xCBF SWAP3 SWAP2 SWAP1 PUSH1 0x1 PUSH1 0x1 PUSH1 0xA0 SHL SUB SWAP3 SWAP1 SWAP3 AND DUP3 MSTORE PUSH1 0x20 DUP3 ADD MSTORE PUSH1 0x40 ADD SWAP1 JUMP JUMPDEST PUSH1 0x20 PUSH1 0x40 MLOAD DUP1 DUP4 SUB DUP2 PUSH1 0x0 DUP8 GAS CALL ISZERO DUP1 ISZERO PUSH2 0xCDE JUMPI RETURNDATASIZE PUSH1 0x0 DUP1 RETURNDATACOPY RETURNDATASIZE PUSH1 0x0 REVERT JUMPDEST POP POP POP POP PUSH1 0x40 MLOAD RETURNDATASIZE PUSH1 0x1F NOT PUSH1 0x1F DUP3 ADD AND DUP3 ADD DUP1 PUSH1 0x40 MSTORE POP DUP2 ADD SWAP1 PUSH2 0xD02 SWAP2 SWAP1 PUSH2 0x28AF JUMP JUMPDEST POP PUSH1 0x9 SLOAD PUSH1 0x8 SWAP1 PUSH1 0x0 SWAP1 PUSH2 0xD1E SWAP1 PUSH1 0x1 SWAP1 PUSH4 0xFFFFFFFF AND PUSH2 0x272C JUMP JUMPDEST PUSH4 0xFFFFFFFF AND DUP2 MSTORE PUSH1 0x20 ADD SWAP1 DUP2 MSTORE PUSH1 0x20 ADD PUSH1 0x0 KECCAK256 PUSH1 0x7 ADD SLOAD PUSH1 0x8 PUSH1 0x0 PUSH1 0x1 PUSH1 0x9 PUSH1 0x0 SWAP1 SLOAD SWAP1 PUSH2 0x100 EXP SWAP1 DIV PUSH4 0xFFFFFFFF AND PUSH2 0xD59 SWAP2 SWAP1 PUSH2 0x272C JUMP JUMPDEST PUSH4 0xFFFFFFFF AND DUP2 MSTORE PUSH1 0x20 ADD SWAP1 DUP2 MSTORE PUSH1 0x20 ADD PUSH1 0x0 KECCAK256 PUSH1 0x6 ADD PUSH1 0x0 DUP3 DUP3 SLOAD PUSH2 0xD7F SWAP2 SWAP1 PUSH2 0x2703 JUMP JUMPDEST SWAP1 SWAP2 SSTORE POP POP POP JUMP JUMPDEST PUSH1 0x1 DUP2 DUP2 SLOAD DUP2 LT PUSH2 0x6E7 JUMPI PUSH1 0x0 DUP1 REVERT JUMPDEST CALLER PUSH1 0x0 SWAP1 DUP2 MSTORE PUSH1 0x4 PUSH1 0x20 MSTORE PUSH1 0x40 SWAP1 KECCAK256 SLOAD ISZERO PUSH2 0xDF4 JUMPI PUSH1 0x40 MLOAD PUSH3 0x461BCD PUSH1 0xE5 SHL DUP2 MSTORE PUSH1 0x20 PUSH1 0x4 DUP3 ADD MSTORE PUSH1 0x1D PUSH1 0x24 DUP3 ADD MSTORE PUSH32 0x4164647265737320616C7265616479206D61646520726571756573742E000000 PUSH1 0x44 DUP3 ADD MSTORE PUSH1 0x64 ADD PUSH2 0x5D9 JUMP JUMPDEST CALLER PUSH1 0x0 DUP2 DUP2 MSTORE PUSH1 0x4 PUSH1 0x20 SWAP1 DUP2 MSTORE PUSH1 0x40 DUP1 DUP4 KECCAK256 PUSH1 0x1 SWAP1 DUP2 SWAP1 SSTORE DUP2 MLOAD DUP1 DUP4 ADD SWAP1 SWAP3 MSTORE SWAP4 DUP2 MSTORE SWAP1 DUP2 ADD SWAP4 DUP5 MSTORE PUSH1 0x7 DUP1 SLOAD SWAP4 DUP5 ADD DUP2 SSTORE SWAP1 SWAP2 MSTORE MLOAD PUSH32 0xA66CC928B5EDB82AF9BD49922954155AB7B0942694BEA4CE44661D9A8736C688 PUSH1 0x2 SWAP1 SWAP3 MUL SWAP2 DUP3 ADD DUP1 SLOAD PUSH1 0x1 PUSH1 0x1 PUSH1 0xA0 SHL SUB NOT AND PUSH1 0x1 PUSH1 0x1 PUSH1 0xA0 SHL SUB SWAP1 SWAP3 AND SWAP2 SWAP1 SWAP2 OR SWAP1 SSTORE SWAP1 MLOAD PUSH32 0xA66CC928B5EDB82AF9BD49922954155AB7B0942694BEA4CE44661D9A8736C689 SWAP1 SWAP2 ADD SSTORE JUMP JUMPDEST PUSH2 0xEA2 CALLER PUSH2 0x595 JUMP JUMPDEST PUSH2 0xEBE JUMPI PUSH1 0x40 MLOAD PUSH3 0x461BCD PUSH1 0xE5 SHL DUP2 MSTORE PUSH1 0x4 ADD PUSH2 0x5D9 SWAP1 PUSH2 0x26A6 JUMP JUMPDEST PUSH1 0x9 SLOAD PUSH1 0x1 PUSH1 0x20 SHL SWAP1 DIV PUSH1 0xFF AND ISZERO PUSH2 0xF2D JUMPI PUSH1 0x40 MLOAD PUSH3 0x461BCD PUSH1 0xE5 SHL DUP2 MSTORE PUSH1 0x20 PUSH1 0x4 DUP3 ADD MSTORE PUSH1 0x2C PUSH1 0x24 DUP3 ADD MSTORE PUSH32 0x4E6F64652063616E2774206368616E676520737461747573207768696C652070 PUSH1 0x44 DUP3 ADD MSTORE PUSH12 0x3630B710393AB73734B73397 PUSH1 0xA1 SHL PUSH1 0x64 DUP3 ADD MSTORE PUSH1 0x84 ADD PUSH2 0x5D9 JUMP JUMPDEST CALLER PUSH1 0x0 SWAP1 DUP2 MSTORE PUSH1 0x4 PUSH1 0x20 MSTORE PUSH1 0x40 SWAP1 KECCAK256 SLOAD DUP2 ISZERO ISZERO SWAP1 PUSH1 0x5 SWAP1 PUSH2 0xF50 SWAP1 PUSH1 0x3 SWAP1 PUSH2 0x2703 JUMP JUMPDEST DUP2 SLOAD DUP2 LT PUSH2 0xF60 JUMPI PUSH2 0xF60 PUSH2 0x2716 JUMP JUMPDEST PUSH1 0x0 SWAP2 DUP3 MSTORE PUSH1 0x20 SWAP1 SWAP2 KECCAK256 PUSH1 0x72 SWAP1 SWAP2 MUL ADD SLOAD PUSH1 0x1 PUSH1 0xA0 SHL SWAP1 DIV PUSH1 0xFF AND ISZERO ISZERO EQ PUSH2 0xFD0 JUMPI DUP1 PUSH2 0xFA1 JUMPI PUSH1 0x6 SLOAD PUSH2 0xF9C SWAP1 PUSH1 0x1 SWAP1 PUSH4 0xFFFFFFFF AND PUSH2 0x272C JUMP JUMPDEST PUSH2 0xFB5 JUMP JUMPDEST PUSH1 0x6 SLOAD PUSH2 0xFB5 SWAP1 PUSH4 0xFFFFFFFF AND PUSH1 0x1 PUSH2 0x28CC JUMP JUMPDEST PUSH1 0x6 DUP1 SLOAD PUSH4 0xFFFFFFFF NOT AND PUSH4 0xFFFFFFFF SWAP3 SWAP1 SWAP3 AND SWAP2 SWAP1 SWAP2 OR SWAP1 SSTORE JUMPDEST CALLER PUSH1 0x0 SWAP1 DUP2 MSTORE PUSH1 0x4 PUSH1 0x20 MSTORE PUSH1 0x40 SWAP1 KECCAK256 SLOAD DUP2 SWAP1 PUSH1 0x5 SWAP1 PUSH2 0xFF1 SWAP1 PUSH1 0x3 SWAP1 PUSH2 0x2703 JUMP JUMPDEST DUP2 SLOAD DUP2 LT PUSH2 0x1001 JUMPI PUSH2 0x1001 PUSH2 0x2716 JUMP JUMPDEST PUSH1 0x0 SWAP2 DUP3 MSTORE PUSH1 0x20 SWAP1 SWAP2 KECCAK256 PUSH1 0x72 SWAP1 SWAP2 MUL ADD DUP1 SLOAD SWAP2 ISZERO ISZERO PUSH1 0x1 PUSH1 0xA0 SHL MUL PUSH1 0xFF PUSH1 0xA0 SHL NOT SWAP1 SWAP3 AND SWAP2 SWAP1 SWAP2 OR SWAP1 SSTORE POP JUMP JUMPDEST CALLER PUSH1 0x0 SWAP1 DUP2 MSTORE PUSH1 0x20 DUP2 SWAP1 MSTORE PUSH1 0x40 SWAP1 KECCAK256 SLOAD PUSH1 0x1 PUSH1 0x1 PUSH1 0xA0 SHL SUB AND PUSH2 0x1063 JUMPI PUSH1 0x40 MLOAD PUSH3 0x461BCD PUSH1 0xE5 SHL DUP2 MSTORE PUSH1 0x4 ADD PUSH2 0x5D9 SWAP1 PUSH2 0x28E9 JUMP JUMPDEST PUSH1 0x1 PUSH1 0x1 PUSH1 0xA0 SHL SUB DUP2 DUP2 AND PUSH1 0x0 SWAP1 DUP2 MSTORE PUSH1 0x2 PUSH1 0x20 MSTORE PUSH1 0x40 SWAP1 KECCAK256 SLOAD AND PUSH2 0x109A JUMPI PUSH1 0x40 MLOAD PUSH3 0x461BCD PUSH1 0xE5 SHL DUP2 MSTORE PUSH1 0x4 ADD PUSH2 0x5D9 SWAP1 PUSH2 0x2933 JUMP JUMPDEST PUSH2 0x10A3 DUP2 PUSH2 0x1CEC JUMP JUMPDEST POP JUMP JUMPDEST PUSH2 0x10B1 DUP4 DUP4 DUP4 PUSH2 0x1E61 JUMP JUMPDEST PUSH1 0x0 PUSH2 0x10BD DUP4 DUP4 PUSH2 0x2114 JUMP JUMPDEST PUSH1 0xB SLOAD PUSH1 0x40 MLOAD PUSH4 0x23B872DD PUSH1 0xE0 SHL DUP2 MSTORE CALLER PUSH1 0x4 DUP3 ADD MSTORE ADDRESS PUSH1 0x24 DUP3 ADD MSTORE PUSH1 0x44 DUP2 ADD DUP4 SWAP1 MSTORE SWAP2 SWAP3 POP PUSH1 0x1 PUSH1 0x1 PUSH1 0xA0 SHL SUB AND SWAP1 PUSH4 0x23B872DD SWAP1 PUSH1 0x64 ADD PUSH1 0x20 PUSH1 0x40 MLOAD DUP1 DUP4 SUB DUP2 PUSH1 0x0 DUP8 GAS CALL ISZERO DUP1 ISZERO PUSH2 0x1115 JUMPI RETURNDATASIZE PUSH1 0x0 DUP1 RETURNDATACOPY RETURNDATASIZE PUSH1 0x0 REVERT JUMPDEST POP POP POP POP PUSH1 0x40 MLOAD RETURNDATASIZE PUSH1 0x1F NOT PUSH1 0x1F DUP3 ADD AND DUP3 ADD DUP1 PUSH1 0x40 MSTORE POP DUP2 ADD SWAP1 PUSH2 0x1139 SWAP2 SWAP1 PUSH2 0x28AF JUMP JUMPDEST POP POP POP POP POP JUMP JUMPDEST CALLER PUSH1 0x0 SWAP1 DUP2 MSTORE PUSH1 0x20 DUP2 SWAP1 MSTORE PUSH1 0x40 SWAP1 KECCAK256 SLOAD PUSH1 0x1 PUSH1 0x1 PUSH1 0xA0 SHL SUB AND PUSH2 0x1175 JUMPI PUSH1 0x40 MLOAD PUSH3 0x461BCD PUSH1 0xE5 SHL DUP2 MSTORE PUSH1 0x4 ADD PUSH2 0x5D9 SWAP1 PUSH2 0x28E9 JUMP JUMPDEST PUSH1 0x1 PUSH1 0x1 PUSH1 0xA0 SHL SUB DUP2 DUP2 AND PUSH1 0x0 SWAP1 DUP2 MSTORE PUSH1 0x2 PUSH1 0x20 MSTORE PUSH1 0x40 SWAP1 KECCAK256 SLOAD AND PUSH2 0x11AC JUMPI PUSH1 0x40 MLOAD PUSH3 0x461BCD PUSH1 0xE5 SHL DUP2 MSTORE PUSH1 0x4 ADD PUSH2 0x5D9 SWAP1 PUSH2 0x2933 JUMP JUMPDEST PUSH1 0x1 PUSH1 0x1 PUSH1 0xA0 SHL SUB DUP1 DUP3 AND PUSH1 0x0 SWAP1 DUP2 MSTORE PUSH1 0x2 PUSH1 0x20 DUP2 DUP2 MSTORE PUSH1 0x40 SWAP3 DUP4 SWAP1 KECCAK256 DUP4 MLOAD PUSH1 0x60 DUP2 ADD DUP6 MSTORE DUP2 SLOAD SWAP1 SWAP6 AND DUP6 MSTORE PUSH1 0x1 DUP2 ADD SLOAD SWAP2 DUP6 ADD DUP3 SWAP1 MSTORE SWAP1 SWAP2 ADD SLOAD SWAP2 DUP4 ADD SWAP2 SWAP1 SWAP2 MSTORE PUSH2 0x11F9 SWAP1 DUP4 SWAP1 PUSH2 0x158D JUMP JUMPDEST PUSH2 0x1202 DUP3 PUSH2 0x1CEC JUMP JUMPDEST POP POP JUMP JUMPDEST PUSH1 0x8 PUSH1 0x20 MSTORE PUSH1 0x0 SWAP1 DUP2 MSTORE PUSH1 0x40 SWAP1 KECCAK256 DUP1 SLOAD PUSH1 0x1 DUP3 ADD SLOAD PUSH1 0x2 DUP4 ADD DUP1 SLOAD PUSH1 0x1 PUSH1 0x1 PUSH1 0xA0 SHL SUB SWAP4 DUP5 AND SWAP5 SWAP4 DUP4 AND SWAP4 PUSH1 0x1 PUSH1 0xA0 SHL SWAP1 SWAP4 DIV PUSH4 0xFFFFFFFF AND SWAP3 SWAP2 SWAP1 PUSH2 0x124B SWAP1 PUSH2 0x2750 JUMP JUMPDEST DUP1 PUSH1 0x1F ADD PUSH1 0x20 DUP1 SWAP2 DIV MUL PUSH1 0x20 ADD PUSH1 0x40 MLOAD SWAP1 DUP2 ADD PUSH1 0x40 MSTORE DUP1 SWAP3 SWAP2 SWAP1 DUP2 DUP2 MSTORE PUSH1 0x20 ADD DUP3 DUP1 SLOAD PUSH2 0x1277 SWAP1 PUSH2 0x2750 JUMP JUMPDEST DUP1 ISZERO PUSH2 0x12C4 JUMPI DUP1 PUSH1 0x1F LT PUSH2 0x1299 JUMPI PUSH2 0x100 DUP1 DUP4 SLOAD DIV MUL DUP4 MSTORE SWAP2 PUSH1 0x20 ADD SWAP2 PUSH2 0x12C4 JUMP JUMPDEST DUP3 ADD SWAP2 SWAP1 PUSH1 0x0 MSTORE PUSH1 0x20 PUSH1 0x0 KECCAK256 SWAP1 JUMPDEST DUP2 SLOAD DUP2 MSTORE SWAP1 PUSH1 0x1 ADD SWAP1 PUSH1 0x20 ADD DUP1 DUP4 GT PUSH2 0x12A7 JUMPI DUP3 SWAP1 SUB PUSH1 0x1F AND DUP3 ADD SWAP2 JUMPDEST POP POP POP POP POP SWAP1 DUP1 PUSH1 0x3 ADD DUP1 SLOAD PUSH2 0x12D9 SWAP1 PUSH2 0x2750 JUMP JUMPDEST DUP1 PUSH1 0x1F ADD PUSH1 0x20 DUP1 SWAP2 DIV MUL PUSH1 0x20 ADD PUSH1 0x40 MLOAD SWAP1 DUP2 ADD PUSH1 0x40 MSTORE DUP1 SWAP3 SWAP2 SWAP1 DUP2 DUP2 MSTORE PUSH1 0x20 ADD DUP3 DUP1 SLOAD PUSH2 0x1305 SWAP1 PUSH2 0x2750 JUMP JUMPDEST DUP1 ISZERO PUSH2 0x1352 JUMPI DUP1 PUSH1 0x1F LT PUSH2 0x1327 JUMPI PUSH2 0x100 DUP1 DUP4 SLOAD DIV MUL DUP4 MSTORE SWAP2 PUSH1 0x20 ADD SWAP2 PUSH2 0x1352 JUMP JUMPDEST DUP3 ADD SWAP2 SWAP1 PUSH1 0x0 MSTORE PUSH1 0x20 PUSH1 0x0 KECCAK256 SWAP1 JUMPDEST DUP2 SLOAD DUP2 MSTORE SWAP1 PUSH1 0x1 ADD SWAP1 PUSH1 0x20 ADD DUP1 DUP4 GT PUSH2 0x1335 JUMPI DUP3 SWAP1 SUB PUSH1 0x1F AND DUP3 ADD SWAP2 JUMPDEST POP POP POP PUSH1 0x4 DUP5 ADD SLOAD PUSH1 0x5 DUP6 ADD SLOAD PUSH1 0x6 DUP7 ADD SLOAD PUSH1 0x7 DUP8 ADD SLOAD PUSH1 0x8 SWAP1 SWAP8 ADD SLOAD SWAP6 SWAP7 PUSH4 0xFFFFFFFF SWAP1 SWAP4 AND SWAP6 SWAP2 SWAP5 POP SWAP3 POP DUP11 JUMP JUMPDEST PUSH1 0x9 SLOAD PUSH4 0xFFFFFFFF AND ISZERO DUP1 ISZERO SWAP1 PUSH2 0x13D3 JUMPI POP PUSH1 0x9 SLOAD CALLER SWAP1 PUSH1 0x8 SWAP1 PUSH1 0x0 SWAP1 PUSH2 0x13B1 SWAP1 PUSH1 0x1 SWAP1 PUSH4 0xFFFFFFFF AND PUSH2 0x272C JUMP JUMPDEST PUSH4 0xFFFFFFFF AND DUP2 MSTORE PUSH1 0x20 DUP2 ADD SWAP2 SWAP1 SWAP2 MSTORE PUSH1 0x40 ADD PUSH1 0x0 KECCAK256 SLOAD PUSH1 0x1 PUSH1 0x1 PUSH1 0xA0 SHL SUB AND EQ JUMPDEST PUSH2 0x141F JUMPI PUSH1 0x40 MLOAD PUSH3 0x461BCD PUSH1 0xE5 SHL DUP2 MSTORE PUSH1 0x20 PUSH1 0x4 DUP3 ADD MSTORE PUSH1 0x1F PUSH1 0x24 DUP3 ADD MSTORE PUSH32 0x4F6E6C792063726561746F722063616E2061626F72742074686520706C616E00 PUSH1 0x44 DUP3 ADD MSTORE PUSH1 0x64 ADD PUSH2 0x5D9 JUMP JUMPDEST PUSH1 0x9 DUP1 SLOAD PUSH5 0xFF00000000 NOT AND SWAP1 SSTORE JUMP JUMPDEST CALLER PUSH1 0x0 SWAP1 DUP2 MSTORE PUSH1 0x20 DUP2 SWAP1 MSTORE PUSH1 0x40 SWAP1 KECCAK256 SLOAD PUSH1 0x1 PUSH1 0x1 PUSH1 0xA0 SHL SUB AND ISZERO PUSH2 0x148E JUMPI PUSH1 0x40 MLOAD PUSH3 0x461BCD PUSH1 0xE5 SHL DUP2 MSTORE PUSH1 0x20 PUSH1 0x4 DUP3 ADD MSTORE PUSH1 0x16 PUSH1 0x24 DUP3 ADD MSTORE PUSH22 0x4275696C64657220616C726561647920657869737473 PUSH1 0x50 SHL PUSH1 0x44 DUP3 ADD MSTORE PUSH1 0x64 ADD PUSH2 0x5D9 JUMP JUMPDEST CALLER PUSH1 0x0 SWAP1 DUP2 MSTORE PUSH1 0x2 PUSH1 0x20 MSTORE PUSH1 0x40 SWAP1 KECCAK256 SLOAD PUSH1 0x1 PUSH1 0x1 PUSH1 0xA0 SHL SUB AND ISZERO PUSH2 0x14F4 JUMPI PUSH1 0x40 MLOAD PUSH3 0x461BCD PUSH1 0xE5 SHL DUP2 MSTORE PUSH1 0x20 PUSH1 0x4 DUP3 ADD MSTORE PUSH1 0x1E PUSH1 0x24 DUP3 ADD MSTORE PUSH32 0x4275696C64657220616C726561647920726571756573746564206A6F696E0000 PUSH1 0x44 DUP3 ADD MSTORE PUSH1 0x64 ADD PUSH2 0x5D9 JUMP JUMPDEST PUSH1 0x40 DUP1 MLOAD PUSH1 0x60 DUP2 ADD DUP3 MSTORE CALLER DUP1 DUP3 MSTORE PUSH1 0x20 DUP1 DUP4 ADD SWAP5 DUP6 MSTORE PUSH1 0x3 DUP1 SLOAD DUP5 DUP7 ADD SWAP1 DUP2 MSTORE PUSH1 0x0 DUP5 DUP2 MSTORE PUSH1 0x2 SWAP4 DUP5 SWAP1 MSTORE SWAP6 DUP7 KECCAK256 SWAP5 MLOAD DUP6 SLOAD PUSH1 0x1 PUSH1 0x1 PUSH1 0xA0 SHL SUB SWAP2 SWAP1 SWAP2 AND PUSH1 0x1 PUSH1 0x1 PUSH1 0xA0 SHL SUB NOT SWAP2 DUP3 AND OR DUP7 SSTORE SWAP7 MLOAD PUSH1 0x1 DUP1 DUP8 ADD SWAP2 SWAP1 SWAP2 SSTORE SWAP1 MLOAD SWAP5 SWAP1 SWAP3 ADD SWAP4 SWAP1 SWAP4 SSTORE DUP3 SLOAD SWAP1 DUP2 ADD DUP4 SSTORE SWAP2 SWAP1 SWAP3 MSTORE PUSH32 0xC2575A0E9E593C00F959F8C92F12DB2869C3395A3B0502D05E2516446F71F85B ADD DUP1 SLOAD SWAP1 SWAP3 AND OR SWAP1 SSTORE JUMP JUMPDEST CALLER PUSH1 0x0 SWAP1 DUP2 MSTORE PUSH1 0x20 DUP2 SWAP1 MSTORE PUSH1 0x40 SWAP1 KECCAK256 SLOAD PUSH1 0x1 PUSH1 0x1 PUSH1 0xA0 SHL SUB AND PUSH2 0x15C2 JUMPI PUSH1 0x40 MLOAD PUSH3 0x461BCD PUSH1 0xE5 SHL DUP2 MSTORE PUSH1 0x4 ADD PUSH2 0x5D9 SWAP1 PUSH2 0x28E9 JUMP JUMPDEST PUSH1 0x1 PUSH1 0x1 PUSH1 0xA0 SHL SUB DUP3 DUP2 AND PUSH1 0x0 SWAP1 DUP2 MSTORE PUSH1 0x20 DUP2 SWAP1 MSTORE PUSH1 0x40 SWAP1 KECCAK256 SLOAD AND ISZERO PUSH2 0x1623 JUMPI PUSH1 0x40 MLOAD PUSH3 0x461BCD PUSH1 0xE5 SHL DUP2 MSTORE PUSH1 0x20 PUSH1 0x4 DUP3 ADD MSTORE PUSH1 0x16 PUSH1 0x24 DUP3 ADD MSTORE PUSH22 0x4275696C64657220616C726561647920657869737473 PUSH1 0x50 SHL PUSH1 0x44 DUP3 ADD MSTORE PUSH1 0x64 ADD PUSH2 0x5D9 JUMP JUMPDEST PUSH1 0x40 DUP1 MLOAD DUP1 DUP3 ADD DUP3 MSTORE PUSH1 0x1 PUSH1 0x1 PUSH1 0xA0 SHL SUB SWAP4 DUP5 AND DUP1 DUP3 MSTORE PUSH1 0x20 DUP1 DUP4 ADD SWAP5 DUP6 MSTORE PUSH1 0x0 DUP3 DUP2 MSTORE SWAP1 DUP2 SWAP1 MSTORE SWAP3 DUP4 KECCAK256 SWAP2 MLOAD DUP3 SLOAD SWAP6 AND PUSH1 0x1 PUSH1 0x1 PUSH1 0xA0 SHL SUB NOT SWAP6 DUP7 AND OR DUP3 SSTORE SWAP3 MLOAD PUSH1 0x1 SWAP2 DUP3 ADD SSTORE DUP1 SLOAD DUP1 DUP3 ADD DUP3 SSTORE SWAP2 MSTORE PUSH32 0xB10E2D527612073B26EECDFD717E6A320CF44B4AFAC2B0732D9FCBE2B7FA0CF6 ADD DUP1 SLOAD SWAP1 SWAP3 AND OR SWAP1 SSTORE JUMP JUMPDEST CALLER PUSH1 0x0 DUP2 DUP2 MSTORE PUSH1 0x20 DUP2 SWAP1 MSTORE PUSH1 0x40 SWAP1 KECCAK256 SLOAD PUSH1 0x1 PUSH1 0x1 PUSH1 0xA0 SHL SUB AND EQ PUSH2 0x16FE JUMPI PUSH1 0x40 MLOAD PUSH3 0x461BCD PUSH1 0xE5 SHL DUP2 MSTORE PUSH1 0x20 PUSH1 0x4 DUP3 ADD MSTORE PUSH1 0x15 PUSH1 0x24 DUP3 ADD MSTORE PUSH21 0x29B2B73232B91034B9903737BA10313AB4B63232B9 PUSH1 0x59 SHL PUSH1 0x44 DUP3 ADD MSTORE PUSH1 0x64 ADD PUSH2 0x5D9 JUMP JUMPDEST CALLER PUSH1 0x0 SWAP1 DUP2 MSTORE PUSH1 0x20 DUP2 SWAP1 MSTORE PUSH1 0x40 SWAP1 KECCAK256 PUSH1 0x1 ADD SSTORE JUMP JUMPDEST PUSH1 0x5 DUP2 DUP2 SLOAD DUP2 LT PUSH2 0x1723 JUMPI PUSH1 0x0 DUP1 REVERT JUMPDEST PUSH1 0x0 SWAP2 DUP3 MSTORE PUSH1 0x20 SWAP1 SWAP2 KECCAK256 PUSH1 0x72 SWAP1 SWAP2 MUL ADD DUP1 SLOAD PUSH1 0x71 SWAP1 SWAP2 ADD SLOAD PUSH1 0x1 PUSH1 0x1 PUSH1 0xA0 SHL SUB DUP3 AND SWAP3 POP PUSH1 0x1 PUSH1 0xA0 SHL SWAP1 SWAP2 DIV PUSH1 0xFF AND SWAP1 DUP4 JUMP JUMPDEST PUSH2 0x175F CALLER PUSH2 0x595 JUMP JUMPDEST PUSH2 0x177B JUMPI PUSH1 0x40 MLOAD PUSH3 0x461BCD PUSH1 0xE5 SHL DUP2 MSTORE PUSH1 0x4 ADD PUSH2 0x5D9 SWAP1 PUSH2 0x26A6 JUMP JUMPDEST PUSH1 0x7 SLOAD PUSH2 0x17C3 JUMPI PUSH1 0x40 MLOAD PUSH3 0x461BCD PUSH1 0xE5 SHL DUP2 MSTORE PUSH1 0x20 PUSH1 0x4 DUP3 ADD MSTORE PUSH1 0x16 PUSH1 0x24 DUP3 ADD MSTORE PUSH22 0x2737903932B8BAB2B9BA103A3790383937B1B2B9B997 PUSH1 0x51 SHL PUSH1 0x44 DUP3 ADD MSTORE PUSH1 0x64 ADD PUSH2 0x5D9 JUMP JUMPDEST PUSH1 0x5 SLOAD PUSH2 0x17D1 SWAP1 PUSH1 0x3 PUSH2 0x29A2 JUMP JUMPDEST PUSH1 0x7 DUP1 SLOAD PUSH1 0x4 SWAP2 PUSH1 0x0 SWAP2 PUSH2 0x17E7 SWAP1 PUSH1 0x1 SWAP1 PUSH2 0x2703 JUMP JUMPDEST DUP2 SLOAD DUP2 LT PUSH2 0x17F7 JUMPI PUSH2 0x17F7 PUSH2 0x2716 JUMP JUMPDEST PUSH1 0x0 SWAP2 DUP3 MSTORE PUSH1 0x20 DUP1 DUP4 KECCAK256 PUSH1 0x2 SWAP1 SWAP3 MUL SWAP1 SWAP2 ADD SLOAD PUSH1 0x1 PUSH1 0x1 PUSH1 0xA0 SHL SUB AND DUP4 MSTORE DUP3 ADD SWAP3 SWAP1 SWAP3 MSTORE PUSH1 0x40 ADD SWAP1 KECCAK256 SSTORE PUSH1 0x6 DUP1 SLOAD PUSH1 0x1 SWAP2 SWAP1 PUSH1 0x4 SWAP1 PUSH2 0x1845 SWAP1 DUP5 SWAP1 PUSH4 0xFFFFFFFF PUSH1 0x1 PUSH1 0x20 SHL SWAP1 SWAP2 DIV AND PUSH2 0x28CC JUMP JUMPDEST SWAP3 POP PUSH2 0x100 EXP DUP2 SLOAD DUP2 PUSH4 0xFFFFFFFF MUL NOT AND SWAP1 DUP4 PUSH4 0xFFFFFFFF AND MUL OR SWAP1 SSTORE POP PUSH1 0x5 PUSH1 0x40 MLOAD DUP1 PUSH1 0x80 ADD PUSH1 0x40 MSTORE DUP1 PUSH1 0x7 PUSH1 0x1 PUSH1 0x7 DUP1 SLOAD SWAP1 POP PUSH2 0x1884 SWAP2 SWAP1 PUSH2 0x2703 JUMP JUMPDEST DUP2 SLOAD DUP2 LT PUSH2 0x1894 JUMPI PUSH2 0x1894 PUSH2 0x2716 JUMP JUMPDEST PUSH1 0x0 SWAP2 DUP3 MSTORE PUSH1 0x20 DUP1 DUP4 KECCAK256 PUSH1 0x2 SWAP1 SWAP3 MUL SWAP1 SWAP2 ADD SLOAD PUSH1 0x1 PUSH1 0x1 PUSH1 0xA0 SHL SUB SWAP1 DUP2 AND DUP5 MSTORE PUSH1 0x1 DUP5 DUP4 ADD DUP2 SWAP1 MSTORE PUSH1 0x40 DUP1 DUP7 ADD DUP10 SWAP1 MSTORE PUSH1 0x6 SLOAD PUSH4 0xFFFFFFFF PUSH1 0x1 PUSH1 0x20 SHL SWAP1 SWAP2 DIV AND PUSH1 0x60 SWAP1 SWAP7 ADD SWAP6 SWAP1 SWAP6 MSTORE DUP7 SLOAD DUP1 DUP3 ADD DUP9 SSTORE SWAP7 DUP5 MSTORE SWAP3 DUP3 SWAP1 KECCAK256 DUP6 MLOAD PUSH1 0x72 SWAP1 SWAP8 MUL ADD DUP1 SLOAD SWAP3 DUP7 ADD MLOAD ISZERO ISZERO PUSH1 0x1 PUSH1 0xA0 SHL MUL PUSH1 0x1 PUSH1 0x1 PUSH1 0xA8 SHL SUB NOT SWAP1 SWAP4 AND SWAP7 SWAP1 SWAP2 AND SWAP6 SWAP1 SWAP6 OR OR DUP5 SSTORE SWAP1 DUP3 ADD MLOAD SWAP2 SWAP3 SWAP2 PUSH2 0x192E SWAP2 DUP4 ADD SWAP1 PUSH1 0x70 PUSH2 0x21DA JUMP JUMPDEST POP PUSH1 0x60 SWAP2 SWAP1 SWAP2 ADD MLOAD PUSH1 0x71 SWAP1 SWAP2 ADD SSTORE PUSH1 0x6 DUP1 SLOAD PUSH1 0x1 SWAP2 SWAP1 PUSH1 0x0 SWAP1 PUSH2 0x1958 SWAP1 DUP5 SWAP1 PUSH4 0xFFFFFFFF AND PUSH2 0x28CC JUMP JUMPDEST SWAP3 POP PUSH2 0x100 EXP DUP2 SLOAD DUP2 PUSH4 0xFFFFFFFF MUL NOT AND SWAP1 DUP4 PUSH4 0xFFFFFFFF AND MUL OR SWAP1 SSTORE POP PUSH1 0x7 DUP1 SLOAD DUP1 PUSH2 0x1987 JUMPI PUSH2 0x1987 PUSH2 0x2899 JUMP JUMPDEST PUSH1 0x0 DUP3 DUP2 MSTORE PUSH1 0x20 DUP2 KECCAK256 PUSH1 0x2 PUSH1 0x0 NOT SWAP1 SWAP4 ADD SWAP3 DUP4 MUL ADD DUP1 SLOAD PUSH1 0x1 PUSH1 0x1 PUSH1 0xA0 SHL SUB NOT AND DUP2 SSTORE PUSH1 0x1 ADD SSTORE SWAP1 SSTORE POP JUMP JUMPDEST PUSH2 0x19BC DUP2 PUSH2 0x595 JUMP JUMPDEST PUSH2 0x1A08 JUMPI PUSH1 0x40 MLOAD PUSH3 0x461BCD PUSH1 0xE5 SHL DUP2 MSTORE PUSH1 0x20 PUSH1 0x4 DUP3 ADD MSTORE PUSH1 0x1A PUSH1 0x24 DUP3 ADD MSTORE PUSH32 0x41646472657373206973206E6F742076616C6964206E6F64652E000000000000 PUSH1 0x44 DUP3 ADD MSTORE PUSH1 0x64 ADD PUSH2 0x5D9 JUMP JUMPDEST PUSH1 0x1 PUSH1 0x1 PUSH1 0xA0 SHL SUB DUP2 AND PUSH1 0x0 SWAP1 DUP2 MSTORE PUSH1 0x4 PUSH1 0x20 MSTORE PUSH1 0x40 SWAP1 KECCAK256 SLOAD PUSH1 0x5 SWAP1 PUSH2 0x1A30 SWAP1 PUSH1 0x3 SWAP1 PUSH2 0x2703 JUMP JUMPDEST DUP2 SLOAD DUP2 LT PUSH2 0x1A40 JUMPI PUSH2 0x1A40 PUSH2 0x2716 JUMP JUMPDEST PUSH1 0x0 SWAP2 DUP3 MSTORE PUSH1 0x20 SWAP1 SWAP2 KECCAK256 PUSH1 0x72 SWAP1 SWAP2 MUL ADD SLOAD PUSH1 0x1 PUSH1 0xA0 SHL SWAP1 DIV PUSH1 0xFF AND PUSH2 0x1AA7 JUMPI PUSH1 0x40 MLOAD PUSH3 0x461BCD PUSH1 0xE5 SHL DUP2 MSTORE PUSH1 0x20 PUSH1 0x4 DUP3 ADD MSTORE PUSH1 0x18 PUSH1 0x24 DUP3 ADD MSTORE PUSH32 0x4E6F646520697320616C726561647920696E6163746976650000000000000000 PUSH1 0x44 DUP3 ADD MSTORE PUSH1 0x64 ADD PUSH2 0x5D9 JUMP JUMPDEST PUSH1 0x1 PUSH1 0x1 PUSH1 0xA0 SHL SUB DUP2 AND PUSH1 0x0 SWAP1 DUP2 MSTORE PUSH1 0x4 PUSH1 0x20 MSTORE PUSH1 0x40 SWAP1 KECCAK256 SLOAD PUSH1 0x1 SWAP1 PUSH1 0x5 SWAP1 PUSH2 0xFF1 SWAP1 PUSH1 0x3 SWAP1 PUSH2 0x2703 JUMP JUMPDEST PUSH2 0x1ADB CALLER PUSH2 0x595 JUMP JUMPDEST PUSH2 0x1AF7 JUMPI PUSH1 0x40 MLOAD PUSH3 0x461BCD PUSH1 0xE5 SHL DUP2 MSTORE PUSH1 0x4 ADD PUSH2 0x5D9 SWAP1 PUSH2 0x26A6 JUMP JUMPDEST PUSH1 0x9 SLOAD PUSH1 0x8 SWAP1 PUSH1 0x0 SWAP1 PUSH2 0x1B12 SWAP1 PUSH1 0x1 SWAP1 PUSH4 0xFFFFFFFF AND PUSH2 0x272C JUMP JUMPDEST PUSH4 0xFFFFFFFF SWAP1 DUP2 AND DUP3 MSTORE PUSH1 0x20 DUP3 ADD SWAP3 SWAP1 SWAP3 MSTORE PUSH1 0x40 ADD PUSH1 0x0 KECCAK256 PUSH1 0x4 ADD SLOAD PUSH1 0x9 SLOAD SWAP1 DUP3 AND PUSH1 0x1 PUSH1 0x28 SHL SWAP1 SWAP2 DIV SWAP1 SWAP2 AND LT PUSH2 0x1B8C JUMPI PUSH1 0x40 MLOAD PUSH3 0x461BCD PUSH1 0xE5 SHL DUP2 MSTORE PUSH1 0x20 PUSH1 0x4 DUP3 ADD MSTORE PUSH1 0x1A PUSH1 0x24 DUP3 ADD MSTORE PUSH32 0x4E6F206D6F726520726F756E647320746F20706572666F726D2E000000000000 PUSH1 0x44 DUP3 ADD MSTORE PUSH1 0x64 ADD PUSH2 0x5D9 JUMP JUMPDEST PUSH1 0x9 SLOAD PUSH1 0x0 SWAP1 PUSH1 0x8 SWAP1 DUP3 SWAP1 PUSH2 0x1BA9 SWAP1 PUSH1 0x1 SWAP1 PUSH4 0xFFFFFFFF AND PUSH2 0x272C JUMP JUMPDEST PUSH4 0xFFFFFFFF SWAP1 DUP2 AND DUP3 MSTORE PUSH1 0x20 DUP1 DUP4 ADD SWAP4 SWAP1 SWAP4 MSTORE PUSH1 0x40 SWAP2 DUP3 ADD PUSH1 0x0 SWAP1 DUP2 KECCAK256 PUSH1 0x9 DUP1 SLOAD PUSH1 0x1 PUSH1 0x28 SHL SWAP1 DIV SWAP1 SWAP4 AND DUP3 MSTORE SWAP2 SWAP1 SWAP2 ADD DUP4 MSTORE DUP2 DUP2 KECCAK256 CALLER DUP3 MSTORE PUSH1 0x2 DUP2 ADD SWAP1 SWAP4 MSTORE KECCAK256 DUP1 SLOAD SWAP2 SWAP3 POP SWAP1 PUSH2 0x1BF9 SWAP1 PUSH2 0x2750 JUMP JUMPDEST ISZERO SWAP1 POP PUSH2 0x1C52 JUMPI PUSH1 0x40 MLOAD PUSH3 0x461BCD PUSH1 0xE5 SHL DUP2 MSTORE PUSH1 0x20 PUSH1 0x4 DUP3 ADD MSTORE PUSH1 0x21 PUSH1 0x24 DUP3 ADD MSTORE PUSH32 0x4D6F64656C20616C72656164792073656E7420666F72207468697320726F756E PUSH1 0x44 DUP3 ADD MSTORE PUSH1 0x19 PUSH1 0xFA SHL PUSH1 0x64 DUP3 ADD MSTORE PUSH1 0x84 ADD PUSH2 0x5D9 JUMP JUMPDEST CALLER PUSH1 0x0 SWAP1 DUP2 MSTORE PUSH1 0x2 DUP3 ADD PUSH1 0x20 MSTORE PUSH1 0x40 SWAP1 KECCAK256 PUSH2 0x1C6D DUP4 DUP3 PUSH2 0x27D9 JUMP JUMPDEST POP PUSH1 0x1 DUP2 PUSH1 0x1 ADD PUSH1 0x0 DUP3 DUP3 SLOAD PUSH2 0x1C83 SWAP2 SWAP1 PUSH2 0x29A2 JUMP JUMPDEST SWAP1 SWAP2 SSTORE POP POP PUSH1 0x6 SLOAD PUSH1 0x1 DUP3 ADD SLOAD PUSH4 0xFFFFFFFF SWAP1 SWAP2 AND GT PUSH2 0x1202 JUMPI DUP1 SLOAD PUSH1 0xFF NOT AND PUSH1 0x1 SWAP1 DUP2 OR DUP3 SSTORE PUSH1 0x9 DUP1 SLOAD PUSH1 0x5 SWAP1 PUSH2 0x1CCA SWAP1 DUP5 SWAP1 PUSH4 0xFFFFFFFF PUSH1 0x1 PUSH1 0x28 SHL SWAP1 SWAP2 DIV AND PUSH2 0x28CC JUMP JUMPDEST SWAP3 POP PUSH2 0x100 EXP DUP2 SLOAD DUP2 PUSH4 0xFFFFFFFF MUL NOT AND SWAP1 DUP4 PUSH4 0xFFFFFFFF AND MUL OR SWAP1 SSTORE POP POP POP JUMP JUMPDEST CALLER PUSH1 0x0 SWAP1 DUP2 MSTORE PUSH1 0x20 DUP2 SWAP1 MSTORE PUSH1 0x40 SWAP1 KECCAK256 SLOAD PUSH1 0x1 PUSH1 0x1 PUSH1 0xA0 SHL SUB AND PUSH2 0x1D21 JUMPI PUSH1 0x40 MLOAD PUSH3 0x461BCD PUSH1 0xE5 SHL DUP2 MSTORE PUSH1 0x4 ADD PUSH2 0x5D9 SWAP1 PUSH2 0x28E9 JUMP JUMPDEST PUSH1 0x1 PUSH1 0x1 PUSH1 0xA0 SHL SUB DUP2 AND PUSH1 0x0 SWAP1 DUP2 MSTORE PUSH1 0x2 PUSH1 0x20 DUP2 SWAP1 MSTORE PUSH1 0x40 SWAP1 SWAP2 KECCAK256 ADD SLOAD PUSH1 0x3 DUP1 SLOAD DUP3 SWAP1 DUP2 LT PUSH2 0x1D52 JUMPI PUSH2 0x1D52 PUSH2 0x2716 JUMP JUMPDEST PUSH1 0x0 SWAP2 DUP3 MSTORE PUSH1 0x20 DUP1 DUP4 KECCAK256 SWAP1 SWAP2 ADD DUP1 SLOAD PUSH1 0x1 PUSH1 0x1 PUSH1 0xA0 SHL SUB NOT SWAP1 DUP2 AND SWAP1 SWAP2 SSTORE PUSH1 0x1 PUSH1 0x1 PUSH1 0xA0 SHL SUB DUP6 AND DUP4 MSTORE PUSH1 0x2 SWAP2 DUP3 SWAP1 MSTORE PUSH1 0x40 DUP4 KECCAK256 DUP1 SLOAD SWAP1 SWAP2 AND DUP2 SSTORE PUSH1 0x1 DUP2 DUP2 ADD DUP5 SWAP1 SSTORE SWAP2 ADD DUP3 SWAP1 SSTORE PUSH1 0x3 DUP1 SLOAD SWAP1 SWAP2 PUSH2 0x1DA9 SWAP2 PUSH2 0x2703 JUMP JUMPDEST DUP2 SLOAD DUP2 LT PUSH2 0x1DB9 JUMPI PUSH2 0x1DB9 PUSH2 0x2716 JUMP JUMPDEST PUSH1 0x0 SWAP2 DUP3 MSTORE PUSH1 0x20 DUP1 DUP4 KECCAK256 SWAP1 SWAP2 ADD SLOAD PUSH1 0x1 PUSH1 0x1 PUSH1 0xA0 SHL SUB AND DUP1 DUP4 MSTORE PUSH1 0x2 SWAP2 DUP3 SWAP1 MSTORE PUSH1 0x40 SWAP1 SWAP3 KECCAK256 ADD DUP4 SWAP1 SSTORE PUSH1 0x3 DUP1 SLOAD SWAP2 SWAP3 POP DUP3 SWAP2 DUP5 SWAP1 DUP2 LT PUSH2 0x1DFB JUMPI PUSH2 0x1DFB PUSH2 0x2716 JUMP JUMPDEST SWAP1 PUSH1 0x0 MSTORE PUSH1 0x20 PUSH1 0x0 KECCAK256 ADD PUSH1 0x0 PUSH2 0x100 EXP DUP2 SLOAD DUP2 PUSH1 0x1 PUSH1 0x1 PUSH1 0xA0 SHL SUB MUL NOT AND SWAP1 DUP4 PUSH1 0x1 PUSH1 0x1 PUSH1 0xA0 SHL SUB AND MUL OR SWAP1 SSTORE POP PUSH1 0x3 DUP1 SLOAD DUP1 PUSH2 0x1E3A JUMPI PUSH2 0x1E3A PUSH2 0x2899 JUMP JUMPDEST PUSH1 0x0 DUP3 DUP2 MSTORE PUSH1 0x20 SWAP1 KECCAK256 DUP2 ADD PUSH1 0x0 NOT SWAP1 DUP2 ADD DUP1 SLOAD PUSH1 0x1 PUSH1 0x1 PUSH1 0xA0 SHL SUB NOT AND SWAP1 SSTORE ADD SWAP1 SSTORE POP POP POP JUMP JUMPDEST CALLER PUSH1 0x0 SWAP1 DUP2 MSTORE PUSH1 0x20 DUP2 SWAP1 MSTORE PUSH1 0x40 SWAP1 KECCAK256 SLOAD PUSH1 0x1 PUSH1 0x1 PUSH1 0xA0 SHL SUB AND PUSH2 0x1E96 JUMPI PUSH1 0x40 MLOAD PUSH3 0x461BCD PUSH1 0xE5 SHL DUP2 MSTORE PUSH1 0x4 ADD PUSH2 0x5D9 SWAP1 PUSH2 0x28E9 JUMP JUMPDEST PUSH1 0x9 SLOAD PUSH1 0x1 PUSH1 0x20 SHL SWAP1 DIV PUSH1 0xFF AND ISZERO PUSH2 0x1EFF JUMPI PUSH1 0x40 MLOAD PUSH3 0x461BCD PUSH1 0xE5 SHL DUP2 MSTORE PUSH1 0x20 PUSH1 0x4 DUP3 ADD MSTORE PUSH1 0x26 PUSH1 0x24 DUP3 ADD MSTORE PUSH32 0x416E6F7468657220706C616E20697320616C7265616479206265696E67206578 PUSH1 0x44 DUP3 ADD MSTORE PUSH6 0x1958DD5D1959 PUSH1 0xD2 SHL PUSH1 0x64 DUP3 ADD MSTORE PUSH1 0x84 ADD PUSH2 0x5D9 JUMP JUMPDEST PUSH1 0x6 SLOAD PUSH4 0xFFFFFFFF AND PUSH2 0x1F60 JUMPI PUSH1 0x40 MLOAD PUSH3 0x461BCD PUSH1 0xE5 SHL DUP2 MSTORE PUSH1 0x20 PUSH1 0x4 DUP3 ADD MSTORE PUSH1 0x23 PUSH1 0x24 DUP3 ADD MSTORE PUSH32 0x4E6F20616374697665206E6F64657320746F2065786563757465207468652070 PUSH1 0x44 DUP3 ADD MSTORE PUSH3 0x3630B7 PUSH1 0xE9 SHL PUSH1 0x64 DUP3 ADD MSTORE PUSH1 0x84 ADD PUSH2 0x5D9 JUMP JUMPDEST PUSH1 0x9 DUP1 SLOAD PUSH1 0x0 SWAP2 PUSH1 0x8 SWAP2 DUP4 SWAP2 PUSH4 0xFFFFFFFF SWAP1 SWAP2 AND SWAP1 DUP3 PUSH2 0x1F7F DUP4 PUSH2 0x29B5 JUMP JUMPDEST DUP3 SLOAD PUSH2 0x100 SWAP3 SWAP1 SWAP3 EXP PUSH4 0xFFFFFFFF DUP2 DUP2 MUL NOT SWAP1 SWAP4 AND SWAP2 DUP4 AND MUL OR SWAP1 SWAP2 SSTORE AND DUP2 MSTORE PUSH1 0x20 DUP2 ADD SWAP2 SWAP1 SWAP2 MSTORE PUSH1 0x40 ADD PUSH1 0x0 KECCAK256 DUP1 SLOAD CALLER PUSH1 0x1 PUSH1 0x1 PUSH1 0xA0 SHL SUB NOT SWAP1 SWAP2 AND OR DUP2 SSTORE SWAP1 POP PUSH1 0x2 DUP2 ADD PUSH2 0x1FCF DUP6 DUP3 PUSH2 0x27D9 JUMP JUMPDEST POP PUSH1 0x4 DUP2 ADD DUP1 SLOAD PUSH4 0xFFFFFFFF NOT AND PUSH4 0xFFFFFFFF DUP6 DUP2 AND SWAP2 SWAP1 SWAP2 OR SWAP1 SWAP2 SSTORE PUSH1 0x6 SLOAD AND PUSH1 0x5 DUP3 ADD SSTORE PUSH1 0x7 DUP2 ADD DUP3 SWAP1 SSTORE PUSH2 0x2006 DUP4 DUP4 PUSH2 0x2114 JUMP JUMPDEST PUSH1 0x6 DUP3 DUP2 ADD SWAP2 SWAP1 SWAP2 SSTORE SLOAD PUSH1 0x1 PUSH1 0x20 SHL SWAP1 DIV PUSH4 0xFFFFFFFF AND PUSH1 0x8 DUP3 ADD SSTORE PUSH1 0x0 PUSH2 0x202C PUSH2 0x2141 JUMP JUMPDEST PUSH1 0x5 SLOAD SWAP1 SWAP2 POP PUSH1 0x0 SWAP1 PUSH2 0x203F SWAP1 DUP4 PUSH2 0x29D8 JUMP JUMPDEST SWAP1 POP JUMPDEST PUSH1 0x5 DUP1 SLOAD PUSH2 0x2050 SWAP1 DUP4 PUSH2 0x29D8 JUMP JUMPDEST DUP2 SLOAD DUP2 LT PUSH2 0x2060 JUMPI PUSH2 0x2060 PUSH2 0x2716 JUMP JUMPDEST PUSH1 0x0 SWAP2 DUP3 MSTORE PUSH1 0x20 SWAP1 SWAP2 KECCAK256 PUSH1 0x72 SWAP1 SWAP2 MUL ADD SLOAD PUSH1 0x1 PUSH1 0xA0 SHL SWAP1 DIV PUSH1 0xFF AND PUSH2 0x208F JUMPI PUSH2 0x2088 DUP2 PUSH2 0x29FA JUMP JUMPDEST SWAP1 POP PUSH2 0x2042 JUMP JUMPDEST PUSH1 0x5 DUP1 SLOAD PUSH2 0x209D SWAP1 DUP4 PUSH2 0x29D8 JUMP JUMPDEST DUP2 SLOAD DUP2 LT PUSH2 0x20AD JUMPI PUSH2 0x20AD PUSH2 0x2716 JUMP JUMPDEST PUSH1 0x0 SWAP2 DUP3 MSTORE PUSH1 0x20 SWAP1 SWAP2 KECCAK256 PUSH1 0x72 SWAP1 SWAP2 MUL ADD SLOAD PUSH1 0x1 SWAP4 SWAP1 SWAP4 ADD DUP1 SLOAD PUSH4 0xFFFFFFFF SWAP1 SWAP4 AND PUSH1 0x1 PUSH1 0xA0 SHL MUL PUSH1 0x1 PUSH1 0x1 PUSH1 0xC0 SHL SUB NOT SWAP1 SWAP4 AND PUSH1 0x1 PUSH1 0x1 PUSH1 0xA0 SHL SUB SWAP1 SWAP5 AND SWAP4 SWAP1 SWAP4 OR SWAP2 SWAP1 SWAP2 OR SWAP1 SWAP2 SSTORE POP POP PUSH1 0x9 DUP1 SLOAD PUSH9 0xFFFFFFFFFF00000000 NOT AND PUSH1 0x1 PUSH1 0x20 SHL OR SWAP1 SSTORE POP POP JUMP JUMPDEST PUSH1 0x6 SLOAD PUSH1 0x0 SWAP1 PUSH4 0xFFFFFFFF SWAP1 DUP2 AND SWAP1 PUSH2 0x2130 SWAP1 DUP5 SWAP1 DUP7 AND PUSH2 0x2A13 JUMP JUMPDEST PUSH2 0x213A SWAP2 SWAP1 PUSH2 0x2A13 JUMP JUMPDEST SWAP4 SWAP3 POP POP POP JUMP JUMPDEST PUSH1 0xA SLOAD PUSH1 0x0 SWAP1 PUSH2 0x2152 PUSH1 0x1 NUMBER PUSH2 0x2703 JUMP JUMPDEST BLOCKHASH COINBASE DIFFICULTY PUSH1 0x40 MLOAD PUSH1 0x20 ADD PUSH2 0x2190 SWAP5 SWAP4 SWAP3 SWAP2 SWAP1 SWAP4 DUP5 MSTORE PUSH1 0x20 DUP5 ADD SWAP3 SWAP1 SWAP3 MSTORE PUSH1 0x60 SHL PUSH12 0xFFFFFFFFFFFFFFFFFFFFFFFF NOT AND PUSH1 0x40 DUP4 ADD MSTORE PUSH1 0x54 DUP3 ADD MSTORE PUSH1 0x74 ADD SWAP1 JUMP JUMPDEST PUSH1 0x40 DUP1 MLOAD PUSH1 0x1F NOT DUP2 DUP5 SUB ADD DUP2 MSTORE SWAP2 SWAP1 MSTORE DUP1 MLOAD PUSH1 0x20 SWAP1 SWAP2 ADD KECCAK256 PUSH1 0xA DUP2 SWAP1 SSTORE SWAP2 SWAP1 POP JUMP JUMPDEST PUSH1 0x40 MLOAD DUP1 PUSH2 0xE00 ADD PUSH1 0x40 MSTORE DUP1 PUSH1 0x70 SWAP1 JUMPDEST PUSH1 0x60 DUP2 MSTORE PUSH1 0x20 ADD SWAP1 PUSH1 0x1 SWAP1 SUB SWAP1 DUP2 PUSH2 0x21C2 JUMPI SWAP1 POP POP SWAP1 JUMP JUMPDEST DUP3 PUSH1 0x70 DUP2 ADD SWAP3 DUP3 ISZERO PUSH2 0x2213 JUMPI SWAP2 PUSH1 0x20 MUL DUP3 ADD JUMPDEST DUP3 DUP2 GT ISZERO PUSH2 0x2213 JUMPI DUP3 MLOAD DUP3 SWAP1 PUSH2 0x2203 SWAP1 DUP3 PUSH2 0x27D9 JUMP JUMPDEST POP SWAP2 PUSH1 0x20 ADD SWAP2 SWAP1 PUSH1 0x1 ADD SWAP1 PUSH2 0x21ED JUMP JUMPDEST POP PUSH2 0x221F SWAP3 SWAP2 POP PUSH2 0x2223 JUMP JUMPDEST POP SWAP1 JUMP JUMPDEST DUP1 DUP3 GT ISZERO PUSH2 0x221F JUMPI PUSH1 0x0 PUSH2 0x2237 DUP3 DUP3 PUSH2 0x2240 JUMP JUMPDEST POP PUSH1 0x1 ADD PUSH2 0x2223 JUMP JUMPDEST POP DUP1 SLOAD PUSH2 0x224C SWAP1 PUSH2 0x2750 JUMP JUMPDEST PUSH1 0x0 DUP3 SSTORE DUP1 PUSH1 0x1F LT PUSH2 0x225C JUMPI POP POP JUMP JUMPDEST PUSH1 0x1F ADD PUSH1 0x20 SWAP1 DIV SWAP1 PUSH1 0x0 MSTORE PUSH1 0x20 PUSH1 0x0 KECCAK256 SWAP1 DUP2 ADD SWAP1 PUSH2 0x10A3 SWAP2 SWAP1 JUMPDEST DUP1 DUP3 GT ISZERO PUSH2 0x221F JUMPI PUSH1 0x0 DUP2 SSTORE PUSH1 0x1 ADD PUSH2 0x2276 JUMP JUMPDEST DUP1 CALLDATALOAD PUSH1 0x1 PUSH1 0x1 PUSH1 0xA0 SHL SUB DUP2 AND DUP2 EQ PUSH2 0x22A1 JUMPI PUSH1 0x0 DUP1 REVERT JUMPDEST SWAP2 SWAP1 POP JUMP JUMPDEST PUSH1 0x0 PUSH1 0x20 DUP3 DUP5 SUB SLT ISZERO PUSH2 0x22B8 JUMPI PUSH1 0x0 DUP1 REVERT JUMPDEST PUSH2 0x213A DUP3 PUSH2 0x228A JUMP JUMPDEST PUSH1 0x0 PUSH1 0x20 DUP3 DUP5 SUB SLT ISZERO PUSH2 0x22D3 JUMPI PUSH1 0x0 DUP1 REVERT JUMPDEST POP CALLDATALOAD SWAP2 SWAP1 POP JUMP JUMPDEST PUSH1 0x0 DUP1 PUSH1 0x40 DUP4 DUP6 SUB SLT ISZERO PUSH2 0x22ED JUMPI PUSH1 0x0 DUP1 REVERT JUMPDEST DUP3 CALLDATALOAD SWAP2 POP PUSH2 0x22FD PUSH1 0x20 DUP5 ADD PUSH2 0x228A JUMP JUMPDEST SWAP1 POP SWAP3 POP SWAP3 SWAP1 POP JUMP JUMPDEST PUSH1 0x0 DUP2 MLOAD DUP1 DUP5 MSTORE PUSH1 0x0 JUMPDEST DUP2 DUP2 LT ISZERO PUSH2 0x232C JUMPI PUSH1 0x20 DUP2 DUP6 ADD DUP2 ADD MLOAD DUP7 DUP4 ADD DUP3 ADD MSTORE ADD PUSH2 0x2310 JUMP JUMPDEST POP PUSH1 0x0 PUSH1 0x20 DUP3 DUP7 ADD ADD MSTORE PUSH1 0x20 PUSH1 0x1F NOT PUSH1 0x1F DUP4 ADD AND DUP6 ADD ADD SWAP2 POP POP SWAP3 SWAP2 POP POP JUMP JUMPDEST PUSH1 0x20 DUP2 MSTORE PUSH1 0x0 PUSH2 0x213A PUSH1 0x20 DUP4 ADD DUP5 PUSH2 0x2306 JUMP JUMPDEST PUSH1 0x20 DUP1 DUP3 MSTORE PUSH1 0x0 SWAP1 PUSH2 0xE20 DUP4 ADD DUP4 DUP3 ADD DUP6 DUP5 JUMPDEST PUSH1 0x70 DUP2 LT ISZERO PUSH2 0x23A1 JUMPI PUSH1 0x1F NOT DUP8 DUP6 SUB ADD DUP4 MSTORE PUSH2 0x238F DUP5 DUP4 MLOAD PUSH2 0x2306 JUMP JUMPDEST SWAP4 POP SWAP2 DUP5 ADD SWAP2 SWAP1 DUP5 ADD SWAP1 PUSH1 0x1 ADD PUSH2 0x2372 JUMP JUMPDEST POP SWAP2 SWAP7 SWAP6 POP POP POP POP POP POP JUMP JUMPDEST PUSH4 0x4E487B71 PUSH1 0xE0 SHL PUSH1 0x0 MSTORE PUSH1 0x41 PUSH1 0x4 MSTORE PUSH1 0x24 PUSH1 0x0 REVERT JUMPDEST PUSH1 0x40 MLOAD PUSH2 0xE00 DUP2 ADD PUSH8 0xFFFFFFFFFFFFFFFF DUP2 GT DUP3 DUP3 LT OR ISZERO PUSH2 0x23E7 JUMPI PUSH2 0x23E7 PUSH2 0x23AD JUMP JUMPDEST PUSH1 0x40 MSTORE SWAP1 JUMP JUMPDEST PUSH1 0x0 PUSH8 0xFFFFFFFFFFFFFFFF DUP1 DUP5 GT ISZERO PUSH2 0x2408 JUMPI PUSH2 0x2408 PUSH2 0x23AD JUMP JUMPDEST PUSH1 0x40 MLOAD PUSH1 0x1F DUP6 ADD PUSH1 0x1F NOT SWAP1 DUP2 AND PUSH1 0x3F ADD AND DUP2 ADD SWAP1 DUP3 DUP3 GT DUP2 DUP4 LT OR ISZERO PUSH2 0x2430 JUMPI PUSH2 0x2430 PUSH2 0x23AD JUMP JUMPDEST DUP2 PUSH1 0x40 MSTORE DUP1 SWAP4 POP DUP6 DUP2 MSTORE DUP7 DUP7 DUP7 ADD GT ISZERO PUSH2 0x2449 JUMPI PUSH1 0x0 DUP1 REVERT JUMPDEST DUP6 DUP6 PUSH1 0x20 DUP4 ADD CALLDATACOPY PUSH1 0x0 PUSH1 0x20 DUP8 DUP4 ADD ADD MSTORE POP POP POP SWAP4 SWAP3 POP POP POP JUMP JUMPDEST PUSH1 0x0 DUP3 PUSH1 0x1F DUP4 ADD SLT PUSH2 0x2474 JUMPI PUSH1 0x0 DUP1 REVERT JUMPDEST PUSH2 0x213A DUP4 DUP4 CALLDATALOAD PUSH1 0x20 DUP6 ADD PUSH2 0x23ED JUMP JUMPDEST PUSH1 0x0 PUSH1 0x20 DUP3 DUP5 SUB SLT ISZERO PUSH2 0x2495 JUMPI PUSH1 0x0 DUP1 REVERT JUMPDEST DUP2 CALLDATALOAD PUSH8 0xFFFFFFFFFFFFFFFF DUP2 GT ISZERO PUSH2 0x24AC JUMPI PUSH1 0x0 DUP1 REVERT JUMPDEST PUSH2 0x24B8 DUP5 DUP3 DUP6 ADD PUSH2 0x2463 JUMP JUMPDEST SWAP5 SWAP4 POP POP POP POP JUMP JUMPDEST DUP1 ISZERO ISZERO DUP2 EQ PUSH2 0x10A3 JUMPI PUSH1 0x0 DUP1 REVERT JUMPDEST PUSH1 0x0 PUSH1 0x20 DUP3 DUP5 SUB SLT ISZERO PUSH2 0x24E0 JUMPI PUSH1 0x0 DUP1 REVERT JUMPDEST DUP2 CALLDATALOAD PUSH2 0x213A DUP2 PUSH2 0x24C0 JUMP JUMPDEST PUSH1 0x0 DUP1 PUSH1 0x0 PUSH1 0x60 DUP5 DUP7 SUB SLT ISZERO PUSH2 0x2500 JUMPI PUSH1 0x0 DUP1 REVERT JUMPDEST DUP4 CALLDATALOAD PUSH8 0xFFFFFFFFFFFFFFFF DUP2 GT ISZERO PUSH2 0x2517 JUMPI PUSH1 0x0 DUP1 REVERT JUMPDEST PUSH2 0x2523 DUP7 DUP3 DUP8 ADD PUSH2 0x2463 JUMP JUMPDEST SWAP4 POP POP PUSH1 0x20 DUP5 ADD CALLDATALOAD PUSH4 0xFFFFFFFF DUP2 AND DUP2 EQ PUSH2 0x253D JUMPI PUSH1 0x0 DUP1 REVERT JUMPDEST SWAP3 SWAP6 SWAP3 SWAP5 POP POP POP PUSH1 0x40 SWAP2 SWAP1 SWAP2 ADD CALLDATALOAD SWAP1 JUMP JUMPDEST PUSH1 0x1 PUSH1 0x1 PUSH1 0xA0 SHL SUB DUP12 DUP2 AND DUP3 MSTORE DUP11 AND PUSH1 0x20 DUP3 ADD MSTORE PUSH4 0xFFFFFFFF DUP10 DUP2 AND PUSH1 0x40 DUP4 ADD MSTORE PUSH2 0x140 PUSH1 0x60 DUP4 ADD DUP2 SWAP1 MSTORE PUSH1 0x0 SWAP2 PUSH2 0x2588 DUP5 DUP4 ADD DUP13 PUSH2 0x2306 JUMP JUMPDEST SWAP2 POP DUP4 DUP3 SUB PUSH1 0x80 DUP6 ADD MSTORE PUSH2 0x259C DUP3 DUP12 PUSH2 0x2306 JUMP JUMPDEST SWAP9 AND PUSH1 0xA0 DUP5 ADD MSTORE POP POP PUSH1 0xC0 DUP2 ADD SWAP5 SWAP1 SWAP5 MSTORE PUSH1 0xE0 DUP5 ADD SWAP3 SWAP1 SWAP3 MSTORE PUSH2 0x100 DUP4 ADD MSTORE PUSH2 0x120 SWAP1 SWAP2 ADD MSTORE SWAP6 SWAP5 POP POP POP POP POP JUMP JUMPDEST PUSH1 0x0 DUP1 PUSH1 0x40 DUP4 DUP6 SUB SLT ISZERO PUSH2 0x25DE JUMPI PUSH1 0x0 DUP1 REVERT JUMPDEST PUSH2 0x25E7 DUP4 PUSH2 0x228A JUMP JUMPDEST SWAP5 PUSH1 0x20 SWAP4 SWAP1 SWAP4 ADD CALLDATALOAD SWAP4 POP POP POP JUMP JUMPDEST PUSH1 0x0 PUSH1 0x20 DUP1 DUP4 DUP6 SUB SLT ISZERO PUSH2 0x2608 JUMPI PUSH1 0x0 DUP1 REVERT JUMPDEST DUP3 CALLDATALOAD PUSH8 0xFFFFFFFFFFFFFFFF DUP1 DUP3 GT ISZERO PUSH2 0x2620 JUMPI PUSH1 0x0 DUP1 REVERT JUMPDEST DUP2 DUP6 ADD SWAP2 POP PUSH1 0x1F DUP7 DUP2 DUP5 ADD SLT PUSH2 0x2635 JUMPI PUSH1 0x0 DUP1 REVERT JUMPDEST PUSH2 0x263D PUSH2 0x23C3 JUMP JUMPDEST DUP1 PUSH2 0xE00 DUP6 ADD DUP10 DUP2 GT ISZERO PUSH2 0x2650 JUMPI PUSH1 0x0 DUP1 REVERT JUMPDEST DUP6 JUMPDEST DUP2 DUP2 LT ISZERO PUSH2 0x2697 JUMPI DUP1 CALLDATALOAD DUP7 DUP2 GT ISZERO PUSH2 0x266A JUMPI PUSH1 0x0 DUP1 DUP2 REVERT JUMPDEST DUP8 ADD DUP6 DUP2 ADD DUP13 SGT PUSH2 0x267B JUMPI PUSH1 0x0 DUP1 DUP2 REVERT JUMPDEST PUSH2 0x2689 DUP13 DUP3 CALLDATALOAD DUP12 DUP5 ADD PUSH2 0x23ED JUMP JUMPDEST DUP6 MSTORE POP SWAP3 DUP8 ADD SWAP3 DUP8 ADD PUSH2 0x2652 JUMP JUMPDEST POP SWAP1 SWAP10 SWAP9 POP POP POP POP POP POP POP POP POP JUMP JUMPDEST PUSH1 0x20 DUP1 DUP3 MSTORE PUSH1 0x27 SWAP1 DUP3 ADD MSTORE PUSH32 0x4F6E6C79206E6F6465732061726520616C6C6F77656420746F20657865637574 PUSH1 0x40 DUP3 ADD MSTORE PUSH7 0x32903A3434B997 PUSH1 0xC9 SHL PUSH1 0x60 DUP3 ADD MSTORE PUSH1 0x80 ADD SWAP1 JUMP JUMPDEST PUSH4 0x4E487B71 PUSH1 0xE0 SHL PUSH1 0x0 MSTORE PUSH1 0x11 PUSH1 0x4 MSTORE PUSH1 0x24 PUSH1 0x0 REVERT JUMPDEST DUP2 DUP2 SUB DUP2 DUP2 GT ISZERO PUSH2 0x83A JUMPI PUSH2 0x83A PUSH2 0x26ED JUMP JUMPDEST PUSH4 0x4E487B71 PUSH1 0xE0 SHL PUSH1 0x0 MSTORE PUSH1 0x32 PUSH1 0x4 MSTORE PUSH1 0x24 PUSH1 0x0 REVERT JUMPDEST PUSH4 0xFFFFFFFF DUP3 DUP2 AND DUP3 DUP3 AND SUB SWAP1 DUP1 DUP3 GT ISZERO PUSH2 0x2749 JUMPI PUSH2 0x2749 PUSH2 0x26ED JUMP JUMPDEST POP SWAP3 SWAP2 POP POP JUMP JUMPDEST PUSH1 0x1 DUP2 DUP2 SHR SWAP1 DUP3 AND DUP1 PUSH2 0x2764 JUMPI PUSH1 0x7F DUP3 AND SWAP2 POP JUMPDEST PUSH1 0x20 DUP3 LT DUP2 SUB PUSH2 0x2784 JUMPI PUSH4 0x4E487B71 PUSH1 0xE0 SHL PUSH1 0x0 MSTORE PUSH1 0x22 PUSH1 0x4 MSTORE PUSH1 0x24 PUSH1 0x0 REVERT JUMPDEST POP SWAP2 SWAP1 POP JUMP JUMPDEST PUSH1 0x1F DUP3 GT ISZERO PUSH2 0x27D4 JUMPI PUSH1 0x0 DUP2 DUP2 MSTORE PUSH1 0x20 DUP2 KECCAK256 PUSH1 0x1F DUP6 ADD PUSH1 0x5 SHR DUP2 ADD PUSH1 0x20 DUP7 LT ISZERO PUSH2 0x27B1 JUMPI POP DUP1 JUMPDEST PUSH1 0x1F DUP6 ADD PUSH1 0x5 SHR DUP3 ADD SWAP2 POP JUMPDEST DUP2 DUP2 LT ISZERO PUSH2 0x27D0 JUMPI DUP3 DUP2 SSTORE PUSH1 0x1 ADD PUSH2 0x27BD JUMP JUMPDEST POP POP POP JUMPDEST POP POP POP JUMP JUMPDEST DUP2 MLOAD PUSH8 0xFFFFFFFFFFFFFFFF DUP2 GT ISZERO PUSH2 0x27F3 JUMPI PUSH2 0x27F3 PUSH2 0x23AD JUMP JUMPDEST PUSH2 0x2807 DUP2 PUSH2 0x2801 DUP5 SLOAD PUSH2 0x2750 JUMP JUMPDEST DUP5 PUSH2 0x278A JUMP JUMPDEST PUSH1 0x20 DUP1 PUSH1 0x1F DUP4 GT PUSH1 0x1 DUP2 EQ PUSH2 0x283C JUMPI PUSH1 0x0 DUP5 ISZERO PUSH2 0x2824 JUMPI POP DUP6 DUP4 ADD MLOAD JUMPDEST PUSH1 0x0 NOT PUSH1 0x3 DUP7 SWAP1 SHL SHR NOT AND PUSH1 0x1 DUP6 SWAP1 SHL OR DUP6 SSTORE PUSH2 0x27D0 JUMP JUMPDEST PUSH1 0x0 DUP6 DUP2 MSTORE PUSH1 0x20 DUP2 KECCAK256 PUSH1 0x1F NOT DUP7 AND SWAP2 JUMPDEST DUP3 DUP2 LT ISZERO PUSH2 0x286B JUMPI DUP9 DUP7 ADD MLOAD DUP3 SSTORE SWAP5 DUP5 ADD SWAP5 PUSH1 0x1 SWAP1 SWAP2 ADD SWAP1 DUP5 ADD PUSH2 0x284C JUMP JUMPDEST POP DUP6 DUP3 LT ISZERO PUSH2 0x2889 JUMPI DUP8 DUP6 ADD MLOAD PUSH1 0x0 NOT PUSH1 0x3 DUP9 SWAP1 SHL PUSH1 0xF8 AND SHR NOT AND DUP2 SSTORE JUMPDEST POP POP POP POP POP PUSH1 0x1 SWAP1 DUP2 SHL ADD SWAP1 SSTORE POP JUMP JUMPDEST PUSH4 0x4E487B71 PUSH1 0xE0 SHL PUSH1 0x0 MSTORE PUSH1 0x31 PUSH1 0x4 MSTORE PUSH1 0x24 PUSH1 0x0 REVERT JUMPDEST PUSH1 0x0 PUSH1 0x20 DUP3 DUP5 SUB SLT ISZERO PUSH2 0x28C1 JUMPI PUSH1 0x0 DUP1 REVERT JUMPDEST DUP2 MLOAD PUSH2 0x213A DUP2 PUSH2 0x24C0 JUMP JUMPDEST PUSH4 0xFFFFFFFF DUP2 DUP2 AND DUP4 DUP3 AND ADD SWAP1 DUP1 DUP3 GT ISZERO PUSH2 0x2749 JUMPI PUSH2 0x2749 PUSH2 0x26ED JUMP JUMPDEST PUSH1 0x20 DUP1 DUP3 MSTORE PUSH1 0x2A SWAP1 DUP3 ADD MSTORE PUSH32 0x4F6E6C79206275696C646572732061726520616C6C6F77656420746F20657865 PUSH1 0x40 DUP3 ADD MSTORE PUSH10 0x31BABA32903A3434B997 PUSH1 0xB1 SHL PUSH1 0x60 DUP3 ADD MSTORE PUSH1 0x80 ADD SWAP1 JUMP JUMPDEST PUSH1 0x20 DUP1 DUP3 MSTORE PUSH1 0x49 SWAP1 DUP3 ADD MSTORE PUSH32 0x41646472657373206F66206E6577206275696C646572206861736E2774206372 PUSH1 0x40 DUP3 ADD MSTORE PUSH32 0x656174656420726571756573742E20436F6E7369646572207573696E67206164 PUSH1 0x60 DUP3 ADD MSTORE PUSH9 0x32213AB4B63232B917 PUSH1 0xB9 SHL PUSH1 0x80 DUP3 ADD MSTORE PUSH1 0xA0 ADD SWAP1 JUMP JUMPDEST DUP1 DUP3 ADD DUP1 DUP3 GT ISZERO PUSH2 0x83A JUMPI PUSH2 0x83A PUSH2 0x26ED JUMP JUMPDEST PUSH1 0x0 PUSH4 0xFFFFFFFF DUP1 DUP4 AND DUP2 DUP2 SUB PUSH2 0x29CE JUMPI PUSH2 0x29CE PUSH2 0x26ED JUMP JUMPDEST PUSH1 0x1 ADD SWAP4 SWAP3 POP POP POP JUMP JUMPDEST PUSH1 0x0 DUP3 PUSH2 0x29F5 JUMPI PUSH4 0x4E487B71 PUSH1 0xE0 SHL PUSH1 0x0 MSTORE PUSH1 0x12 PUSH1 0x4 MSTORE PUSH1 0x24 PUSH1 0x0 REVERT JUMPDEST POP MOD SWAP1 JUMP JUMPDEST PUSH1 0x0 PUSH1 0x1 DUP3 ADD PUSH2 0x2A0C JUMPI PUSH2 0x2A0C PUSH2 0x26ED JUMP JUMPDEST POP PUSH1 0x1 ADD SWAP1 JUMP JUMPDEST DUP1 DUP3 MUL DUP2 ISZERO DUP3 DUP3 DIV DUP5 EQ OR PUSH2 0x83A JUMPI PUSH2 0x83A PUSH2 0x26ED JUMP INVALID LOG2 PUSH5 0x6970667358 0x22 SLT KECCAK256 0xB3 JUMPDEST 0x26 PUSH13 0xABBAFA2851CFFFEB0DD3AC8BDD 0xB4 SWAP6 DUP9 SDIV 0xED 0xD9 0xDE 0x4C EXP NUMBER JUMPDEST 0xBA KECCAK256 0xD2 0x4D PUSH5 0x736F6C6343 STOP ADDMOD GT STOP CALLER ","sha1":"c6d90a8f11357ad8c4fb5f78c6d110a64c9cecaa","source":"// SPDX-License-Identifier: GPL3\npragma solidity ^0.8.0;\n\nimport \"./Token.sol\";\nimport \"./project/TrainingPlans.sol\";\n\n// TODO: Make interface/abstract project contract\n\n/**\n * @title Project Contract\n * @notice Project Contract manages references to Data Providers (nodes) and\n * Builders (scientists). Data providers must watch this contract and execute\n * new plans. Builders creat training plans.\n * @dev This contract is instantiated for each project and can be edited for individual needs.\n */\ncontract ProjectContract is TrainingPlans {\n    FELToken private token;\n\n    /**\n     * @dev Initializes the project. Creator becomes both builder and data provider, might be changed in future\n     * @param _token address of the FELToken\n     * @param publicKey - Builder setup\n     * @param secret - Encrypted secret for the owner (owner encrypts for himself)\n     */\n    constructor(FELToken _token, bytes32 publicKey, bytes[112] memory secret) {\n        token = _token;\n\n        builders[msg.sender] = Builder({\n            _address: msg.sender,\n            publicKey: publicKey\n        });\n        buildersArray.push(msg.sender);\n\n        nodeState[msg.sender] = 3;\n        nodesArray.push(Node({\n            _address: msg.sender,\n            activated: false,\n            secret: secret,\n            entryKeyTurn: 0\n        }));\n    }\n\n    /**\n     * @notice Builder creates training plan\n     * @param modelCID - ipfs CID\n     * @param rounds - number of training rounds\n     * @param reward - reward for data providers for each model submitted\n     */\n    function createPlan(string memory modelCID, uint32 rounds, uint reward) public {\n        _addPlan(modelCID, rounds, reward);\n\n        // Builder has to provide the reward\n        uint totalReward = _calculateTotalReward(rounds, reward);\n        token.transferFrom(msg.sender, address(this), totalReward);\n    }\n\n    /**\n     * @notice Data provider submits model\n     * @param modelCID - ipfs CID\n     */\n    function submitModel(string memory modelCID) public {\n        _saveModel(modelCID);\n\n        // Send reward to node\n        token.transfer(msg.sender, plans[numPlans - 1].nodeReward);\n        plans[numPlans - 1].totalReward -= plans[numPlans - 1].nodeReward;\n    }\n\n\n    /** TODO:\n     *    - Sponsor projects\n     *    - Request/Buy model\n     *    - Validation\n     *    - Settings public/private\n     *        - possible to join for new nodes/builders\n     */\n\n\n    // Vote for removing fake node\n    //   - Also must reestablish the secret\n    // function voteNodeRemove(address _address) public onlyNode {\n    //    // TODO: check if already voted\n    //    // Increment vote count of node, kick if vote count above half\n    // }\n}\n","sourcePath":"contracts/ProjectContract.sol","type":"contract","deployment":{"address":"0xBC71154F1BEbfE923fEE3a47280b21aC2d89aCf9","chainid":"dev","blockHeight":6}}