{
  "abi": [
    {
      "inputs": [],
      "name": "abortPlan",
      "outputs": [],
      "stateMutability": "nonpayable",
      "type": "function"
    },
    {
      "inputs": [
        {
          "internalType": "address",
          "name": "newBuilderAddress",
          "type": "address"
        }
      ],
      "name": "acceptBuilderJoinRequest",
      "outputs": [],
      "stateMutability": "nonpayable",
      "type": "function"
    },
    {
      "inputs": [
        {
          "internalType": "bytes[112]",
          "name": "secret",
          "type": "bytes[112]"
        }
      ],
      "name": "acceptNode",
      "outputs": [],
      "stateMutability": "nonpayable",
      "type": "function"
    },
    {
      "inputs": [],
      "name": "activate",
      "outputs": [],
      "stateMutability": "nonpayable",
      "type": "function"
    },
    {
      "inputs": [],
      "name": "activeNodes",
      "outputs": [
        {
          "internalType": "uint32",
          "name": "",
          "type": "uint32"
        }
      ],
      "stateMutability": "view",
      "type": "function"
    },
    {
      "inputs": [
        {
          "internalType": "address",
          "name": "newBuilderAddress",
          "type": "address"
        },
        {
          "internalType": "bytes32",
          "name": "publicKey",
          "type": "bytes32"
        }
      ],
      "name": "addBuilder",
      "outputs": [],
      "stateMutability": "nonpayable",
      "type": "function"
    },
    {
      "inputs": [
        {
          "internalType": "address",
          "name": "",
          "type": "address"
        }
      ],
      "name": "builderRequests",
      "outputs": [
        {
          "internalType": "address",
          "name": "builderAddress",
          "type": "address"
        },
        {
          "internalType": "bytes32",
          "name": "publicKey",
          "type": "bytes32"
        },
        {
          "internalType": "uint256",
          "name": "index",
          "type": "uint256"
        }
      ],
      "stateMutability": "view",
      "type": "function"
    },
    {
      "inputs": [
        {
          "internalType": "uint256",
          "name": "",
          "type": "uint256"
        }
      ],
      "name": "builderRequestsArray",
      "outputs": [
        {
          "internalType": "address",
          "name": "",
          "type": "address"
        }
      ],
      "stateMutability": "view",
      "type": "function"
    },
    {
      "inputs": [
        {
          "internalType": "address",
          "name": "",
          "type": "address"
        }
      ],
      "name": "builders",
      "outputs": [
        {
          "internalType": "address",
          "name": "_address",
          "type": "address"
        },
        {
          "internalType": "bytes32",
          "name": "publicKey",
          "type": "bytes32"
        }
      ],
      "stateMutability": "view",
      "type": "function"
    },
    {
      "inputs": [
        {
          "internalType": "uint256",
          "name": "",
          "type": "uint256"
        }
      ],
      "name": "buildersArray",
      "outputs": [
        {
          "internalType": "address",
          "name": "",
          "type": "address"
        }
      ],
      "stateMutability": "view",
      "type": "function"
    },
    {
      "inputs": [
        {
          "internalType": "bool",
          "name": "status",
          "type": "bool"
        }
      ],
      "name": "changeNodeStatus",
      "outputs": [],
      "stateMutability": "nonpayable",
      "type": "function"
    },
    {
      "inputs": [],
      "name": "currentRound",
      "outputs": [
        {
          "internalType": "uint32",
          "name": "",
          "type": "uint32"
        }
      ],
      "stateMutability": "view",
      "type": "function"
    },
    {
      "inputs": [],
      "name": "deactivate",
      "outputs": [],
      "stateMutability": "nonpayable",
      "type": "function"
    },
    {
      "inputs": [
        {
          "internalType": "address",
          "name": "newBuilderAddress",
          "type": "address"
        }
      ],
      "name": "declineBuilderJoinRequest",
      "outputs": [],
      "stateMutability": "nonpayable",
      "type": "function"
    },
    {
      "inputs": [],
      "name": "declineNode",
      "outputs": [],
      "stateMutability": "nonpayable",
      "type": "function"
    },
    {
      "inputs": [
        {
          "internalType": "string",
          "name": "modelCID",
          "type": "string"
        }
      ],
      "name": "finishPlan",
      "outputs": [],
      "stateMutability": "nonpayable",
      "type": "function"
    },
    {
      "inputs": [],
      "name": "getBuilderRequestsLength",
      "outputs": [
        {
          "internalType": "uint256",
          "name": "",
          "type": "uint256"
        }
      ],
      "stateMutability": "view",
      "type": "function"
    },
    {
      "inputs": [],
      "name": "getBuildersLength",
      "outputs": [
        {
          "internalType": "uint256",
          "name": "",
          "type": "uint256"
        }
      ],
      "stateMutability": "view",
      "type": "function"
    },
    {
      "inputs": [],
      "name": "getNodeRequestsLength",
      "outputs": [
        {
          "internalType": "uint256",
          "name": "",
          "type": "uint256"
        }
      ],
      "stateMutability": "view",
      "type": "function"
    },
    {
      "inputs": [
        {
          "internalType": "address",
          "name": "_address",
          "type": "address"
        }
      ],
      "name": "getNodeSecret",
      "outputs": [
        {
          "internalType": "bytes[112]",
          "name": "",
          "type": "bytes[112]"
        }
      ],
      "stateMutability": "view",
      "type": "function"
    },
    {
      "inputs": [],
      "name": "getNodesLength",
      "outputs": [
        {
          "internalType": "uint256",
          "name": "",
          "type": "uint256"
        }
      ],
      "stateMutability": "view",
      "type": "function"
    },
    {
      "inputs": [
        {
          "internalType": "uint256",
          "name": "roundIdx",
          "type": "uint256"
        },
        {
          "internalType": "address",
          "name": "nodeAddress",
          "type": "address"
        }
      ],
      "name": "getRoundModel",
      "outputs": [
        {
          "internalType": "string",
          "name": "",
          "type": "string"
        }
      ],
      "stateMutability": "view",
      "type": "function"
    },
    {
      "inputs": [
        {
          "internalType": "address",
          "name": "_address",
          "type": "address"
        }
      ],
      "name": "isNode",
      "outputs": [
        {
          "internalType": "bool",
          "name": "",
          "type": "bool"
        }
      ],
      "stateMutability": "view",
      "type": "function"
    },
    {
      "inputs": [],
      "name": "isPlanRunning",
      "outputs": [
        {
          "internalType": "bool",
          "name": "",
          "type": "bool"
        }
      ],
      "stateMutability": "view",
      "type": "function"
    },
    {
      "inputs": [],
      "name": "keyTurn",
      "outputs": [
        {
          "internalType": "uint32",
          "name": "",
          "type": "uint32"
        }
      ],
      "stateMutability": "view",
      "type": "function"
    },
    {
      "inputs": [
        {
          "internalType": "uint256",
          "name": "",
          "type": "uint256"
        }
      ],
      "name": "nodeRequests",
      "outputs": [
        {
          "internalType": "address",
          "name": "_address",
          "type": "address"
        },
        {
          "internalType": "bytes32",
          "name": "publicKey",
          "type": "bytes32"
        }
      ],
      "stateMutability": "view",
      "type": "function"
    },
    {
      "inputs": [
        {
          "internalType": "address",
          "name": "",
          "type": "address"
        }
      ],
      "name": "nodeState",
      "outputs": [
        {
          "internalType": "uint256",
          "name": "",
          "type": "uint256"
        }
      ],
      "stateMutability": "view",
      "type": "function"
    },
    {
      "inputs": [
        {
          "internalType": "uint256",
          "name": "",
          "type": "uint256"
        }
      ],
      "name": "nodesArray",
      "outputs": [
        {
          "internalType": "address",
          "name": "_address",
          "type": "address"
        },
        {
          "internalType": "bool",
          "name": "activated",
          "type": "bool"
        },
        {
          "internalType": "uint256",
          "name": "entryKeyTurn",
          "type": "uint256"
        }
      ],
      "stateMutability": "view",
      "type": "function"
    },
    {
      "inputs": [],
      "name": "numPlans",
      "outputs": [
        {
          "internalType": "uint32",
          "name": "",
          "type": "uint32"
        }
      ],
      "stateMutability": "view",
      "type": "function"
    },
    {
      "inputs": [
        {
          "internalType": "uint256",
          "name": "",
          "type": "uint256"
        }
      ],
      "name": "plans",
      "outputs": [
        {
          "internalType": "address",
          "name": "creator",
          "type": "address"
        },
        {
          "internalType": "address",
          "name": "finalNode",
          "type": "address"
        },
        {
          "internalType": "uint32",
          "name": "randomSeed",
          "type": "uint32"
        },
        {
          "internalType": "string",
          "name": "baseModelCID",
          "type": "string"
        },
        {
          "internalType": "string",
          "name": "finalModelCID",
          "type": "string"
        },
        {
          "internalType": "uint32",
          "name": "numRounds",
          "type": "uint32"
        },
        {
          "internalType": "uint256",
          "name": "numNodes",
          "type": "uint256"
        },
        {
          "internalType": "uint256",
          "name": "totalReward",
          "type": "uint256"
        },
        {
          "internalType": "uint256",
          "name": "nodeReward",
          "type": "uint256"
        },
        {
          "internalType": "uint256",
          "name": "keyTurn",
          "type": "uint256"
        }
      ],
      "stateMutability": "view",
      "type": "function"
    },
    {
      "inputs": [
        {
          "internalType": "bytes32",
          "name": "publicKey",
          "type": "bytes32"
        }
      ],
      "name": "requestJoinBuilder",
      "outputs": [],
      "stateMutability": "nonpayable",
      "type": "function"
    },
    {
      "inputs": [
        {
          "internalType": "bytes32",
          "name": "publicKey",
          "type": "bytes32"
        }
      ],
      "name": "requestJoinNode",
      "outputs": [],
      "stateMutability": "nonpayable",
      "type": "function"
    },
    {
      "inputs": [
        {
          "internalType": "bytes32",
          "name": "publicKey",
          "type": "bytes32"
        }
      ],
      "name": "setBuilderPublickey",
      "outputs": [],
      "stateMutability": "nonpayable",
      "type": "function"
    }
  ],
  "bytecode": "6080604052600680546001600160401b0319169055600980546001600160481b03191690556007600a5534801561003557600080fd5b506121d9806100456000396000f3fe608060405234801561001057600080fd5b50600436106101fb5760003560e01c80638a19c8bc1161011a578063b777a893116100ad578063bc946ead1161007c578063bc946ead146104e2578063c4e10a14146104f5578063da0986aa1461052d578063e27c87a014610542578063ef2dc65e1461055557600080fd5b8063b777a8931461049c578063b7b92f47146104a4578063b9fae085146104b7578063ba7925cb146104ca57600080fd5b8063b155533a116100e9578063b155533a146103f1578063b162061614610404578063b4fa6ba91461042d578063b59672691461048c57600080fd5b80638a19c8bc1461039f57806394613cd7146103b8578063a0572b2a146103cb578063a2f6f781146103de57600080fd5b80634244609b116101925780636f2690a5116101615780636f2690a51461035157806372ab489f146103645780637cf3110c1461036c5780638518a0471461037f57600080fd5b80634244609b1461030e5780634c781da51461032e57806350c62ac31461034157806351b42b001461034957600080fd5b8063144ddefc116101ce578063144ddefc14610269578063168168a7146102bb5780631821aa62146102e657806331888d88146102ee57600080fd5b8063017501521461020057806307f19651146102285780630f15f4c01461024d57806313029e0314610257575b600080fd5b61021361020e366004611b22565b61055d565b60405190151581526020015b60405180910390f35b6006546102389063ffffffff1681565b60405163ffffffff909116815260200161021f565b61025561057c565b005b6007545b60405190815260200161021f565b61029c610277366004611b22565b600060208190529081526040902080546001909101546001600160a01b039091169082565b604080516001600160a01b03909316835260208301919091520161021f565b6102ce6102c9366004611b44565b61069f565b6040516001600160a01b03909116815260200161021f565b60055461025b565b6103016102fc366004611b5d565b6106c9565b60405161021f9190611bcf565b61032161031c366004611b22565b610808565b60405161021f9190611be2565b61025561033c366004611ce6565b610973565b60015461025b565b610255610ac5565b61029c61035f366004611b44565b610ad0565b610255610b08565b6102ce61037a366004611b44565b610c05565b61025b61038d366004611b22565b60046020526000908152604090205481565b6009546102389065010000000000900463ffffffff1681565b6102556103c6366004611b44565b610c15565b6102556103d9366004611d37565b610d17565b6102556103ec366004611b22565b610ead565b6102556103ff366004611b22565b610f25565b610417610412366004611b44565b610feb565b60405161021f9a99989796959493929190611d59565b61046761043b366004611b22565b60026020819052600091825260409091208054600182015491909201546001600160a01b039092169183565b604080516001600160a01b03909416845260208401929092529082015260600161021f565b6009546102389063ffffffff1681565b610255611167565b6102556104b2366004611b44565b611214565b6102556104c5366004611dd6565b611372565b60065461023890640100000000900463ffffffff1681565b6102556104f0366004611b44565b611485565b610508610503366004611b44565b6114f8565b604080516001600160a01b03909416845291151560208401529082015260600161021f565b60095461021390640100000000900460ff1681565b610255610550366004611e00565b61153b565b60035461025b565b6001600160a01b03166000908152600460205260409020546003111590565b6105853361055d565b6105aa5760405162461bcd60e51b81526004016105a190611eb1565b60405180910390fd5b336000908152600460205260409020546005906105c990600390611f0e565b815481106105d9576105d9611f21565b6000918252602090912060729091020154600160a01b900460ff16156106415760405162461bcd60e51b815260206004820152601760248201527f4e6f646520697320616c7265616479206163746976652e00000000000000000060448201526064016105a1565b3360009081526004602052604090205460019060059061066390600390611f0e565b8154811061067357610673611f21565b600091825260209091206072909102018054911515600160a01b0260ff60a01b19909216919091179055565b600381815481106106af57600080fd5b6000918252602090912001546001600160a01b0316905081565b60095460609063ffffffff166107215760405162461bcd60e51b815260206004820152601960248201527f4e6f20747261696e696e6720706c616e7320637265617465640000000000000060448201526064016105a1565b60095460089060009061073c9060019063ffffffff16611f37565b63ffffffff1681526020808201929092526040908101600090812086825260090183528181206001600160a01b03861682526002019092529020805461078190611f5b565b80601f01602080910402602001604051908101604052809291908181526020018280546107ad90611f5b565b80156107fa5780601f106107cf576101008083540402835291602001916107fa565b820191906000526020600020905b8154815290600101906020018083116107dd57829003601f168201915b505050505090505b92915050565b610810611a2e565b6108198261055d565b6108655760405162461bcd60e51b815260206004820152601e60248201527f4164647265737320646f65736e27742062656c6f6e6720746f206e6f6465000060448201526064016105a1565b6001600160a01b03821660009081526004602052604090205460059061088d90600390611f0e565b8154811061089d5761089d611f21565b9060005260206000209060720201600101607080602002604051908101604052809291906000905b828210156109685783820180546108db90611f5b565b80601f016020809104026020016040519081016040528092919081815260200182805461090790611f5b565b80156109545780601f1061092957610100808354040283529160200191610954565b820191906000526020600020905b81548152906001019060200180831161093757829003601f168201915b5050505050815260200190600101906108c5565b505050509050919050565b61097c3361055d565b6109985760405162461bcd60e51b81526004016105a190611eb1565b60095460009060089082906109b59060019063ffffffff16611f37565b63ffffffff168152602081019190915260400160002060018101549091506001600160a01b03163314610a395760405162461bcd60e51b815260206004820152602660248201527f4f6e6c79207072652d73656c6563746564206e6f64652063616e2066696e69736044820152653410383630b760d11b60648201526084016105a1565b600481015460095463ffffffff918216650100000000009091049091161015610aa45760405162461bcd60e51b815260206004820152601c60248201527f416c6c20726f756e6473206d75737420626520636f6d706c657465640000000060448201526064016105a1565b60038101610ab28382611fe4565b50506009805464ff000000001916905550565b610ace3361179a565b565b60078181548110610ae057600080fd5b6000918252602090912060029091020180546001909101546001600160a01b03909116915082565b610b113361055d565b610b2d5760405162461bcd60e51b81526004016105a190611eb1565b600754610b755760405162461bcd60e51b81526020600482015260166024820152752737903932b8bab2b9ba103a3790383937b1b2b9b99760511b60448201526064016105a1565b60026004600060076001600780549050610b8f9190611f0e565b81548110610b9f57610b9f611f21565b600091825260208083206002909202909101546001600160a01b031683528201929092526040019020556007805480610bda57610bda6120a4565b60008281526020812060026000199093019283020180546001600160a01b0319168155600101559055565b600181815481106106af57600080fd5b3360009081526004602052604090205415610c725760405162461bcd60e51b815260206004820152601d60248201527f4164647265737320616c7265616479206d61646520726571756573742e00000060448201526064016105a1565b3360008181526004602090815260408083206001908190558151808301909252938152908101938452600780549384018155909152517fa66cc928b5edb82af9bd49922954155ab7b0942694bea4ce44661d9a8736c688600290920291820180546001600160a01b0319166001600160a01b0390921691909117905590517fa66cc928b5edb82af9bd49922954155ab7b0942694bea4ce44661d9a8736c68990910155565b610d203361055d565b610d3c5760405162461bcd60e51b81526004016105a190611eb1565b600954640100000000900460ff1615610dac5760405162461bcd60e51b815260206004820152602c60248201527f4e6f64652063616e2774206368616e676520737461747573207768696c65207060448201526b3630b710393ab73734b7339760a11b60648201526084016105a1565b3360009081526004602052604090205481151590600590610dcf90600390611f0e565b81548110610ddf57610ddf611f21565b6000918252602090912060729091020154600160a01b900460ff16151514610e4f5780610e2057600654610e1b9060019063ffffffff16611f37565b610e34565b600654610e349063ffffffff1660016120ba565b6006805463ffffffff191663ffffffff929092169190911790555b336000908152600460205260409020548190600590610e7090600390611f0e565b81548110610e8057610e80611f21565b600091825260209091206072909102018054911515600160a01b0260ff60a01b1990921691909117905550565b336000908152602081905260409020546001600160a01b0316610ee25760405162461bcd60e51b81526004016105a1906120d7565b6001600160a01b0381811660009081526002602052604090205416610f195760405162461bcd60e51b81526004016105a190612121565b610f22816118b9565b50565b336000908152602081905260409020546001600160a01b0316610f5a5760405162461bcd60e51b81526004016105a1906120d7565b6001600160a01b0381811660009081526002602052604090205416610f915760405162461bcd60e51b81526004016105a190612121565b6001600160a01b0380821660009081526002602081815260409283902083516060810185528154909516855260018101549185018290529091015491830191909152610fde908390611372565b610fe7826118b9565b5050565b6008602052600090815260409020805460018201546002830180546001600160a01b039384169493831693600160a01b90930463ffffffff1692919061103090611f5b565b80601f016020809104026020016040519081016040528092919081815260200182805461105c90611f5b565b80156110a95780601f1061107e576101008083540402835291602001916110a9565b820191906000526020600020905b81548152906001019060200180831161108c57829003601f168201915b5050505050908060030180546110be90611f5b565b80601f01602080910402602001604051908101604052809291908181526020018280546110ea90611f5b565b80156111375780601f1061110c57610100808354040283529160200191611137565b820191906000526020600020905b81548152906001019060200180831161111a57829003601f168201915b5050506004840154600585015460068601546007870154600890970154959663ffffffff9093169591945092508a565b60095463ffffffff16158015906111b8575060095433906008906000906111969060019063ffffffff16611f37565b63ffffffff1681526020810191909152604001600020546001600160a01b0316145b6112045760405162461bcd60e51b815260206004820152601f60248201527f4f6e6c792063726561746f722063616e2061626f72742074686520706c616e0060448201526064016105a1565b6009805464ff0000000019169055565b336000908152602081905260409020546001600160a01b0316156112735760405162461bcd60e51b81526020600482015260166024820152754275696c64657220616c72656164792065786973747360501b60448201526064016105a1565b336000908152600260205260409020546001600160a01b0316156112d95760405162461bcd60e51b815260206004820152601e60248201527f4275696c64657220616c726561647920726571756573746564206a6f696e000060448201526064016105a1565b60408051606081018252338082526020808301948552600380548486019081526000848152600293849052958620945185546001600160a01b03919091166001600160a01b031991821617865596516001808701919091559051949092019390935582549081018355919092527fc2575a0e9e593c00f959f8c92f12db2869c3395a3b0502d05e2516446f71f85b018054909216179055565b336000908152602081905260409020546001600160a01b03166113a75760405162461bcd60e51b81526004016105a1906120d7565b6001600160a01b0382811660009081526020819052604090205416156114085760405162461bcd60e51b81526020600482015260166024820152754275696c64657220616c72656164792065786973747360501b60448201526064016105a1565b6040805180820182526001600160a01b0393841680825260208083019485526000828152908190529283209151825495166001600160a01b031995861617825592516001918201558054808201825591527fb10e2d527612073b26eecdfd717e6a320cf44b4afac2b0732d9fcbe2b7fa0cf6018054909216179055565b336000818152602081905260409020546001600160a01b0316146114e35760405162461bcd60e51b815260206004820152601560248201527429b2b73232b91034b9903737ba10313ab4b63232b960591b60448201526064016105a1565b33600090815260208190526040902060010155565b6005818154811061150857600080fd5b6000918252602090912060729091020180546071909101546001600160a01b0382169250600160a01b90910460ff169083565b6115443361055d565b6115605760405162461bcd60e51b81526004016105a190611eb1565b6007546115a85760405162461bcd60e51b81526020600482015260166024820152752737903932b8bab2b9ba103a3790383937b1b2b9b99760511b60448201526064016105a1565b6005546115b6906003612190565b600780546004916000916115cc90600190611f0e565b815481106115dc576115dc611f21565b600091825260208083206002909202909101546001600160a01b03168352820192909252604001902055600680546001919060049061162b90849063ffffffff640100000000909104166120ba565b92506101000a81548163ffffffff021916908363ffffffff160217905550600560405180608001604052806007600160078054905061166a9190611f0e565b8154811061167a5761167a611f21565b600091825260208083206002909202909101546001600160a01b0390811684526001848301819052604080860189905260065463ffffffff64010000000090910416606090960195909552865480820188559684529282902085516072909702018054928601511515600160a01b026001600160a81b0319909316969091169590951717845590820151919291611715918301906070611a56565b5060609190910151607190910155600680546001919060009061173f90849063ffffffff166120ba565b92506101000a81548163ffffffff021916908363ffffffff160217905550600780548061176e5761176e6120a4565b60008281526020812060026000199093019283020180546001600160a01b031916815560010155905550565b6117a38161055d565b6117ef5760405162461bcd60e51b815260206004820152601a60248201527f41646472657373206973206e6f742076616c6964206e6f64652e00000000000060448201526064016105a1565b6001600160a01b03811660009081526004602052604090205460059061181790600390611f0e565b8154811061182757611827611f21565b6000918252602090912060729091020154600160a01b900460ff1661188e5760405162461bcd60e51b815260206004820152601860248201527f4e6f646520697320616c726561647920696e616374697665000000000000000060448201526064016105a1565b6001600160a01b038116600090815260046020526040902054600190600590610e7090600390611f0e565b336000908152602081905260409020546001600160a01b03166118ee5760405162461bcd60e51b81526004016105a1906120d7565b6001600160a01b03811660009081526002602081905260409091200154600380548290811061191f5761191f611f21565b6000918252602080832090910180546001600160a01b03199081169091556001600160a01b038516835260029182905260408320805490911681556001818101849055910182905560038054909161197691611f0e565b8154811061198657611986611f21565b60009182526020808320909101546001600160a01b0316808352600291829052604090922001839055600380549192508291849081106119c8576119c8611f21565b9060005260206000200160006101000a8154816001600160a01b0302191690836001600160a01b031602179055506003805480611a0757611a076120a4565b600082815260209020810160001990810180546001600160a01b0319169055019055505050565b60405180610e0001604052806070905b6060815260200190600190039081611a3e5790505090565b8260708101928215611a8f579160200282015b82811115611a8f5782518290611a7f9082611fe4565b5091602001919060010190611a69565b50611a9b929150611a9f565b5090565b80821115611a9b576000611ab38282611abc565b50600101611a9f565b508054611ac890611f5b565b6000825580601f10611ad8575050565b601f016020900490600052602060002090810190610f2291905b80821115611a9b5760008155600101611af2565b80356001600160a01b0381168114611b1d57600080fd5b919050565b600060208284031215611b3457600080fd5b611b3d82611b06565b9392505050565b600060208284031215611b5657600080fd5b5035919050565b60008060408385031215611b7057600080fd5b82359150611b8060208401611b06565b90509250929050565b6000815180845260005b81811015611baf57602081850181015186830182015201611b93565b506000602082860101526020601f19601f83011685010191505092915050565b602081526000611b3d6020830184611b89565b6020808252600090610e20830183820185845b6070811015611c2457601f19878503018352611c12848351611b89565b93509184019190840190600101611bf5565b50919695505050505050565b634e487b7160e01b600052604160045260246000fd5b604051610e00810167ffffffffffffffff81118282101715611c6a57611c6a611c30565b60405290565b600067ffffffffffffffff80841115611c8b57611c8b611c30565b604051601f8501601f19908116603f01168101908282118183101715611cb357611cb3611c30565b81604052809350858152868686011115611ccc57600080fd5b858560208301376000602087830101525050509392505050565b600060208284031215611cf857600080fd5b813567ffffffffffffffff811115611d0f57600080fd5b8201601f81018413611d2057600080fd5b611d2f84823560208401611c70565b949350505050565b600060208284031215611d4957600080fd5b81358015158114611b3d57600080fd5b6001600160a01b038b811682528a16602082015263ffffffff898116604083015261014060608301819052600091611d938483018c611b89565b91508382036080850152611da7828b611b89565b981660a0840152505060c081019490945260e08401929092526101008301526101209091015295945050505050565b60008060408385031215611de957600080fd5b611df283611b06565b946020939093013593505050565b60006020808385031215611e1357600080fd5b823567ffffffffffffffff80821115611e2b57600080fd5b8185019150601f8681840112611e4057600080fd5b611e48611c46565b80610e00850189811115611e5b57600080fd5b855b81811015611ea257803586811115611e755760008081fd5b87018581018c13611e865760008081fd5b611e948c82358b8401611c70565b855250928701928701611e5d565b50909998505050505050505050565b60208082526027908201527f4f6e6c79206e6f6465732061726520616c6c6f77656420746f2065786563757460408201526632903a3434b99760c91b606082015260800190565b634e487b7160e01b600052601160045260246000fd5b8181038181111561080257610802611ef8565b634e487b7160e01b600052603260045260246000fd5b63ffffffff828116828216039080821115611f5457611f54611ef8565b5092915050565b600181811c90821680611f6f57607f821691505b602082108103611f8f57634e487b7160e01b600052602260045260246000fd5b50919050565b601f821115611fdf57600081815260208120601f850160051c81016020861015611fbc5750805b601f850160051c820191505b81811015611fdb57828155600101611fc8565b5050505b505050565b815167ffffffffffffffff811115611ffe57611ffe611c30565b6120128161200c8454611f5b565b84611f95565b602080601f831160018114612047576000841561202f5750858301515b600019600386901b1c1916600185901b178555611fdb565b600085815260208120601f198616915b8281101561207657888601518255948401946001909101908401612057565b50858210156120945787850151600019600388901b60f8161c191681555b5050505050600190811b01905550565b634e487b7160e01b600052603160045260246000fd5b63ffffffff818116838216019080821115611f5457611f54611ef8565b6020808252602a908201527f4f6e6c79206275696c646572732061726520616c6c6f77656420746f2065786560408201526931baba32903a3434b99760b11b606082015260800190565b60208082526049908201527f41646472657373206f66206e6577206275696c646572206861736e277420637260408201527f656174656420726571756573742e20436f6e7369646572207573696e6720616460608201526832213ab4b63232b91760b91b608082015260a00190565b8082018082111561080257610802611ef856fea264697066735822122076a07e849d2b474edbe86bcf349e2cfc4d1fd0d2ba26ca7b4427da39e566667764736f6c63430008110033",
  "bytecodeSha1": "1d3578c2159f649f25a53124b07d45c3fef0c197",
  "compiler": {
    "evm_version": "istanbul",
    "optimizer": {
      "enabled": true,
      "runs": 200
    },
    "version": "0.8.17+commit.8df45f5f"
  },
  "contractName": "TrainingPlans",
  "language": "Solidity",
  "natspec": {
    "details": "A contract that manages the training plans for the project. There is always only 1 plan running at a time. All the plans are stored on the blockchain",
    "kind": "dev",
    "methods": {
      "acceptBuilderJoinRequest(address)": {
        "notice": "Already accepted builder can accept new builder.",
        "params": {
          "newBuilderAddress": "address of the new builder"
        }
      },
      "acceptNode(bytes[112])": {
        "notice": "Accepting first request in the stack",
        "params": {
          "secret": "sharing encrypted common secret for nodes TODO: Secret should be updated as hash of previous secret So that the node doesn't have access to previous models TODO: Should not accept node when plan is running"
        }
      },
      "activate()": {
        "notice": "Node activates itself"
      },
      "addBuilder(address,bytes32)": {
        "notice": "Already accepted builder can add new builder.",
        "params": {
          "newBuilderAddress": "address of the new builder",
          "publicKey": "compressed public key value"
        }
      },
      "changeNodeStatus(bool)": {
        "notice": "Function node can become active/inactive "
      },
      "deactivate()": {
        "details": "onlyNode modifier is not required. It is checked inside _deactivateNode(...)",
        "notice": "Node deactivates itself"
      },
      "declineBuilderJoinRequest(address)": {
        "notice": "Already accepted builder can accept new builder.",
        "params": {
          "newBuilderAddress": "address of the new builder"
        }
      },
      "declineNode()": {
        "notice": "Declining first request in the stack"
      },
      "isNode(address)": {
        "notice": "Check if given address belongs to node",
        "params": {
          "_address": "address to check"
        }
      },
      "requestJoinBuilder(bytes32)": {
        "notice": "Anyone can request to become a builder.",
        "params": {
          "publicKey": "compressed public key value"
        }
      },
      "requestJoinNode(bytes32)": {
        "notice": "Node can request to join providing their public key.",
        "params": {
          "publicKey": "compressed public key value"
        }
      },
      "setBuilderPublickey(bytes32)": {
        "notice": "Builder can update his public key.",
        "params": {
          "publicKey": "compressed public key value"
        }
      }
    },
    "version": 1
  },
  "opcodes": "PUSH1 0x80 PUSH1 0x40 MSTORE CALLVALUE DUP1 ISZERO PUSH2 0x10 JUMPI PUSH1 0x0 DUP1 REVERT JUMPDEST POP PUSH1 0x4 CALLDATASIZE LT PUSH2 0x1FB JUMPI PUSH1 0x0 CALLDATALOAD PUSH1 0xE0 SHR DUP1 PUSH4 0x8A19C8BC GT PUSH2 0x11A JUMPI DUP1 PUSH4 0xB777A893 GT PUSH2 0xAD JUMPI DUP1 PUSH4 0xBC946EAD GT PUSH2 0x7C JUMPI DUP1 PUSH4 0xBC946EAD EQ PUSH2 0x4E2 JUMPI DUP1 PUSH4 0xC4E10A14 EQ PUSH2 0x4F5 JUMPI DUP1 PUSH4 0xDA0986AA EQ PUSH2 0x52D JUMPI DUP1 PUSH4 0xE27C87A0 EQ PUSH2 0x542 JUMPI DUP1 PUSH4 0xEF2DC65E EQ PUSH2 0x555 JUMPI PUSH1 0x0 DUP1 REVERT JUMPDEST DUP1 PUSH4 0xB777A893 EQ PUSH2 0x49C JUMPI DUP1 PUSH4 0xB7B92F47 EQ PUSH2 0x4A4 JUMPI DUP1 PUSH4 0xB9FAE085 EQ PUSH2 0x4B7 JUMPI DUP1 PUSH4 0xBA7925CB EQ PUSH2 0x4CA JUMPI PUSH1 0x0 DUP1 REVERT JUMPDEST DUP1 PUSH4 0xB155533A GT PUSH2 0xE9 JUMPI DUP1 PUSH4 0xB155533A EQ PUSH2 0x3F1 JUMPI DUP1 PUSH4 0xB1620616 EQ PUSH2 0x404 JUMPI DUP1 PUSH4 0xB4FA6BA9 EQ PUSH2 0x42D JUMPI DUP1 PUSH4 0xB5967269 EQ PUSH2 0x48C JUMPI PUSH1 0x0 DUP1 REVERT JUMPDEST DUP1 PUSH4 0x8A19C8BC EQ PUSH2 0x39F JUMPI DUP1 PUSH4 0x94613CD7 EQ PUSH2 0x3B8 JUMPI DUP1 PUSH4 0xA0572B2A EQ PUSH2 0x3CB JUMPI DUP1 PUSH4 0xA2F6F781 EQ PUSH2 0x3DE JUMPI PUSH1 0x0 DUP1 REVERT JUMPDEST DUP1 PUSH4 0x4244609B GT PUSH2 0x192 JUMPI DUP1 PUSH4 0x6F2690A5 GT PUSH2 0x161 JUMPI DUP1 PUSH4 0x6F2690A5 EQ PUSH2 0x351 JUMPI DUP1 PUSH4 0x72AB489F EQ PUSH2 0x364 JUMPI DUP1 PUSH4 0x7CF3110C EQ PUSH2 0x36C JUMPI DUP1 PUSH4 0x8518A047 EQ PUSH2 0x37F JUMPI PUSH1 0x0 DUP1 REVERT JUMPDEST DUP1 PUSH4 0x4244609B EQ PUSH2 0x30E JUMPI DUP1 PUSH4 0x4C781DA5 EQ PUSH2 0x32E JUMPI DUP1 PUSH4 0x50C62AC3 EQ PUSH2 0x341 JUMPI DUP1 PUSH4 0x51B42B00 EQ PUSH2 0x349 JUMPI PUSH1 0x0 DUP1 REVERT JUMPDEST DUP1 PUSH4 0x144DDEFC GT PUSH2 0x1CE JUMPI DUP1 PUSH4 0x144DDEFC EQ PUSH2 0x269 JUMPI DUP1 PUSH4 0x168168A7 EQ PUSH2 0x2BB JUMPI DUP1 PUSH4 0x1821AA62 EQ PUSH2 0x2E6 JUMPI DUP1 PUSH4 0x31888D88 EQ PUSH2 0x2EE JUMPI PUSH1 0x0 DUP1 REVERT JUMPDEST DUP1 PUSH4 0x1750152 EQ PUSH2 0x200 JUMPI DUP1 PUSH4 0x7F19651 EQ PUSH2 0x228 JUMPI DUP1 PUSH4 0xF15F4C0 EQ PUSH2 0x24D JUMPI DUP1 PUSH4 0x13029E03 EQ PUSH2 0x257 JUMPI JUMPDEST PUSH1 0x0 DUP1 REVERT JUMPDEST PUSH2 0x213 PUSH2 0x20E CALLDATASIZE PUSH1 0x4 PUSH2 0x1B22 JUMP JUMPDEST PUSH2 0x55D JUMP JUMPDEST PUSH1 0x40 MLOAD SWAP1 ISZERO ISZERO DUP2 MSTORE PUSH1 0x20 ADD JUMPDEST PUSH1 0x40 MLOAD DUP1 SWAP2 SUB SWAP1 RETURN JUMPDEST PUSH1 0x6 SLOAD PUSH2 0x238 SWAP1 PUSH4 0xFFFFFFFF AND DUP2 JUMP JUMPDEST PUSH1 0x40 MLOAD PUSH4 0xFFFFFFFF SWAP1 SWAP2 AND DUP2 MSTORE PUSH1 0x20 ADD PUSH2 0x21F JUMP JUMPDEST PUSH2 0x255 PUSH2 0x57C JUMP JUMPDEST STOP JUMPDEST PUSH1 0x7 SLOAD JUMPDEST PUSH1 0x40 MLOAD SWAP1 DUP2 MSTORE PUSH1 0x20 ADD PUSH2 0x21F JUMP JUMPDEST PUSH2 0x29C PUSH2 0x277 CALLDATASIZE PUSH1 0x4 PUSH2 0x1B22 JUMP JUMPDEST PUSH1 0x0 PUSH1 0x20 DUP2 SWAP1 MSTORE SWAP1 DUP2 MSTORE PUSH1 0x40 SWAP1 KECCAK256 DUP1 SLOAD PUSH1 0x1 SWAP1 SWAP2 ADD SLOAD PUSH1 0x1 PUSH1 0x1 PUSH1 0xA0 SHL SUB SWAP1 SWAP2 AND SWAP1 DUP3 JUMP JUMPDEST PUSH1 0x40 DUP1 MLOAD PUSH1 0x1 PUSH1 0x1 PUSH1 0xA0 SHL SUB SWAP1 SWAP4 AND DUP4 MSTORE PUSH1 0x20 DUP4 ADD SWAP2 SWAP1 SWAP2 MSTORE ADD PUSH2 0x21F JUMP JUMPDEST PUSH2 0x2CE PUSH2 0x2C9 CALLDATASIZE PUSH1 0x4 PUSH2 0x1B44 JUMP JUMPDEST PUSH2 0x69F JUMP JUMPDEST PUSH1 0x40 MLOAD PUSH1 0x1 PUSH1 0x1 PUSH1 0xA0 SHL SUB SWAP1 SWAP2 AND DUP2 MSTORE PUSH1 0x20 ADD PUSH2 0x21F JUMP JUMPDEST PUSH1 0x5 SLOAD PUSH2 0x25B JUMP JUMPDEST PUSH2 0x301 PUSH2 0x2FC CALLDATASIZE PUSH1 0x4 PUSH2 0x1B5D JUMP JUMPDEST PUSH2 0x6C9 JUMP JUMPDEST PUSH1 0x40 MLOAD PUSH2 0x21F SWAP2 SWAP1 PUSH2 0x1BCF JUMP JUMPDEST PUSH2 0x321 PUSH2 0x31C CALLDATASIZE PUSH1 0x4 PUSH2 0x1B22 JUMP JUMPDEST PUSH2 0x808 JUMP JUMPDEST PUSH1 0x40 MLOAD PUSH2 0x21F SWAP2 SWAP1 PUSH2 0x1BE2 JUMP JUMPDEST PUSH2 0x255 PUSH2 0x33C CALLDATASIZE PUSH1 0x4 PUSH2 0x1CE6 JUMP JUMPDEST PUSH2 0x973 JUMP JUMPDEST PUSH1 0x1 SLOAD PUSH2 0x25B JUMP JUMPDEST PUSH2 0x255 PUSH2 0xAC5 JUMP JUMPDEST PUSH2 0x29C PUSH2 0x35F CALLDATASIZE PUSH1 0x4 PUSH2 0x1B44 JUMP JUMPDEST PUSH2 0xAD0 JUMP JUMPDEST PUSH2 0x255 PUSH2 0xB08 JUMP JUMPDEST PUSH2 0x2CE PUSH2 0x37A CALLDATASIZE PUSH1 0x4 PUSH2 0x1B44 JUMP JUMPDEST PUSH2 0xC05 JUMP JUMPDEST PUSH2 0x25B PUSH2 0x38D CALLDATASIZE PUSH1 0x4 PUSH2 0x1B22 JUMP JUMPDEST PUSH1 0x4 PUSH1 0x20 MSTORE PUSH1 0x0 SWAP1 DUP2 MSTORE PUSH1 0x40 SWAP1 KECCAK256 SLOAD DUP2 JUMP JUMPDEST PUSH1 0x9 SLOAD PUSH2 0x238 SWAP1 PUSH6 0x10000000000 SWAP1 DIV PUSH4 0xFFFFFFFF AND DUP2 JUMP JUMPDEST PUSH2 0x255 PUSH2 0x3C6 CALLDATASIZE PUSH1 0x4 PUSH2 0x1B44 JUMP JUMPDEST PUSH2 0xC15 JUMP JUMPDEST PUSH2 0x255 PUSH2 0x3D9 CALLDATASIZE PUSH1 0x4 PUSH2 0x1D37 JUMP JUMPDEST PUSH2 0xD17 JUMP JUMPDEST PUSH2 0x255 PUSH2 0x3EC CALLDATASIZE PUSH1 0x4 PUSH2 0x1B22 JUMP JUMPDEST PUSH2 0xEAD JUMP JUMPDEST PUSH2 0x255 PUSH2 0x3FF CALLDATASIZE PUSH1 0x4 PUSH2 0x1B22 JUMP JUMPDEST PUSH2 0xF25 JUMP JUMPDEST PUSH2 0x417 PUSH2 0x412 CALLDATASIZE PUSH1 0x4 PUSH2 0x1B44 JUMP JUMPDEST PUSH2 0xFEB JUMP JUMPDEST PUSH1 0x40 MLOAD PUSH2 0x21F SWAP11 SWAP10 SWAP9 SWAP8 SWAP7 SWAP6 SWAP5 SWAP4 SWAP3 SWAP2 SWAP1 PUSH2 0x1D59 JUMP JUMPDEST PUSH2 0x467 PUSH2 0x43B CALLDATASIZE PUSH1 0x4 PUSH2 0x1B22 JUMP JUMPDEST PUSH1 0x2 PUSH1 0x20 DUP2 SWAP1 MSTORE PUSH1 0x0 SWAP2 DUP3 MSTORE PUSH1 0x40 SWAP1 SWAP2 KECCAK256 DUP1 SLOAD PUSH1 0x1 DUP3 ADD SLOAD SWAP2 SWAP1 SWAP3 ADD SLOAD PUSH1 0x1 PUSH1 0x1 PUSH1 0xA0 SHL SUB SWAP1 SWAP3 AND SWAP2 DUP4 JUMP JUMPDEST PUSH1 0x40 DUP1 MLOAD PUSH1 0x1 PUSH1 0x1 PUSH1 0xA0 SHL SUB SWAP1 SWAP5 AND DUP5 MSTORE PUSH1 0x20 DUP5 ADD SWAP3 SWAP1 SWAP3 MSTORE SWAP1 DUP3 ADD MSTORE PUSH1 0x60 ADD PUSH2 0x21F JUMP JUMPDEST PUSH1 0x9 SLOAD PUSH2 0x238 SWAP1 PUSH4 0xFFFFFFFF AND DUP2 JUMP JUMPDEST PUSH2 0x255 PUSH2 0x1167 JUMP JUMPDEST PUSH2 0x255 PUSH2 0x4B2 CALLDATASIZE PUSH1 0x4 PUSH2 0x1B44 JUMP JUMPDEST PUSH2 0x1214 JUMP JUMPDEST PUSH2 0x255 PUSH2 0x4C5 CALLDATASIZE PUSH1 0x4 PUSH2 0x1DD6 JUMP JUMPDEST PUSH2 0x1372 JUMP JUMPDEST PUSH1 0x6 SLOAD PUSH2 0x238 SWAP1 PUSH5 0x100000000 SWAP1 DIV PUSH4 0xFFFFFFFF AND DUP2 JUMP JUMPDEST PUSH2 0x255 PUSH2 0x4F0 CALLDATASIZE PUSH1 0x4 PUSH2 0x1B44 JUMP JUMPDEST PUSH2 0x1485 JUMP JUMPDEST PUSH2 0x508 PUSH2 0x503 CALLDATASIZE PUSH1 0x4 PUSH2 0x1B44 JUMP JUMPDEST PUSH2 0x14F8 JUMP JUMPDEST PUSH1 0x40 DUP1 MLOAD PUSH1 0x1 PUSH1 0x1 PUSH1 0xA0 SHL SUB SWAP1 SWAP5 AND DUP5 MSTORE SWAP2 ISZERO ISZERO PUSH1 0x20 DUP5 ADD MSTORE SWAP1 DUP3 ADD MSTORE PUSH1 0x60 ADD PUSH2 0x21F JUMP JUMPDEST PUSH1 0x9 SLOAD PUSH2 0x213 SWAP1 PUSH5 0x100000000 SWAP1 DIV PUSH1 0xFF AND DUP2 JUMP JUMPDEST PUSH2 0x255 PUSH2 0x550 CALLDATASIZE PUSH1 0x4 PUSH2 0x1E00 JUMP JUMPDEST PUSH2 0x153B JUMP JUMPDEST PUSH1 0x3 SLOAD PUSH2 0x25B JUMP JUMPDEST PUSH1 0x1 PUSH1 0x1 PUSH1 0xA0 SHL SUB AND PUSH1 0x0 SWAP1 DUP2 MSTORE PUSH1 0x4 PUSH1 0x20 MSTORE PUSH1 0x40 SWAP1 KECCAK256 SLOAD PUSH1 0x3 GT ISZERO SWAP1 JUMP JUMPDEST PUSH2 0x585 CALLER PUSH2 0x55D JUMP JUMPDEST PUSH2 0x5AA JUMPI PUSH1 0x40 MLOAD PUSH3 0x461BCD PUSH1 0xE5 SHL DUP2 MSTORE PUSH1 0x4 ADD PUSH2 0x5A1 SWAP1 PUSH2 0x1EB1 JUMP JUMPDEST PUSH1 0x40 MLOAD DUP1 SWAP2 SUB SWAP1 REVERT JUMPDEST CALLER PUSH1 0x0 SWAP1 DUP2 MSTORE PUSH1 0x4 PUSH1 0x20 MSTORE PUSH1 0x40 SWAP1 KECCAK256 SLOAD PUSH1 0x5 SWAP1 PUSH2 0x5C9 SWAP1 PUSH1 0x3 SWAP1 PUSH2 0x1F0E JUMP JUMPDEST DUP2 SLOAD DUP2 LT PUSH2 0x5D9 JUMPI PUSH2 0x5D9 PUSH2 0x1F21 JUMP JUMPDEST PUSH1 0x0 SWAP2 DUP3 MSTORE PUSH1 0x20 SWAP1 SWAP2 KECCAK256 PUSH1 0x72 SWAP1 SWAP2 MUL ADD SLOAD PUSH1 0x1 PUSH1 0xA0 SHL SWAP1 DIV PUSH1 0xFF AND ISZERO PUSH2 0x641 JUMPI PUSH1 0x40 MLOAD PUSH3 0x461BCD PUSH1 0xE5 SHL DUP2 MSTORE PUSH1 0x20 PUSH1 0x4 DUP3 ADD MSTORE PUSH1 0x17 PUSH1 0x24 DUP3 ADD MSTORE PUSH32 0x4E6F646520697320616C7265616479206163746976652E000000000000000000 PUSH1 0x44 DUP3 ADD MSTORE PUSH1 0x64 ADD PUSH2 0x5A1 JUMP JUMPDEST CALLER PUSH1 0x0 SWAP1 DUP2 MSTORE PUSH1 0x4 PUSH1 0x20 MSTORE PUSH1 0x40 SWAP1 KECCAK256 SLOAD PUSH1 0x1 SWAP1 PUSH1 0x5 SWAP1 PUSH2 0x663 SWAP1 PUSH1 0x3 SWAP1 PUSH2 0x1F0E JUMP JUMPDEST DUP2 SLOAD DUP2 LT PUSH2 0x673 JUMPI PUSH2 0x673 PUSH2 0x1F21 JUMP JUMPDEST PUSH1 0x0 SWAP2 DUP3 MSTORE PUSH1 0x20 SWAP1 SWAP2 KECCAK256 PUSH1 0x72 SWAP1 SWAP2 MUL ADD DUP1 SLOAD SWAP2 ISZERO ISZERO PUSH1 0x1 PUSH1 0xA0 SHL MUL PUSH1 0xFF PUSH1 0xA0 SHL NOT SWAP1 SWAP3 AND SWAP2 SWAP1 SWAP2 OR SWAP1 SSTORE JUMP JUMPDEST PUSH1 0x3 DUP2 DUP2 SLOAD DUP2 LT PUSH2 0x6AF JUMPI PUSH1 0x0 DUP1 REVERT JUMPDEST PUSH1 0x0 SWAP2 DUP3 MSTORE PUSH1 0x20 SWAP1 SWAP2 KECCAK256 ADD SLOAD PUSH1 0x1 PUSH1 0x1 PUSH1 0xA0 SHL SUB AND SWAP1 POP DUP2 JUMP JUMPDEST PUSH1 0x9 SLOAD PUSH1 0x60 SWAP1 PUSH4 0xFFFFFFFF AND PUSH2 0x721 JUMPI PUSH1 0x40 MLOAD PUSH3 0x461BCD PUSH1 0xE5 SHL DUP2 MSTORE PUSH1 0x20 PUSH1 0x4 DUP3 ADD MSTORE PUSH1 0x19 PUSH1 0x24 DUP3 ADD MSTORE PUSH32 0x4E6F20747261696E696E6720706C616E73206372656174656400000000000000 PUSH1 0x44 DUP3 ADD MSTORE PUSH1 0x64 ADD PUSH2 0x5A1 JUMP JUMPDEST PUSH1 0x9 SLOAD PUSH1 0x8 SWAP1 PUSH1 0x0 SWAP1 PUSH2 0x73C SWAP1 PUSH1 0x1 SWAP1 PUSH4 0xFFFFFFFF AND PUSH2 0x1F37 JUMP JUMPDEST PUSH4 0xFFFFFFFF AND DUP2 MSTORE PUSH1 0x20 DUP1 DUP3 ADD SWAP3 SWAP1 SWAP3 MSTORE PUSH1 0x40 SWAP1 DUP2 ADD PUSH1 0x0 SWAP1 DUP2 KECCAK256 DUP7 DUP3 MSTORE PUSH1 0x9 ADD DUP4 MSTORE DUP2 DUP2 KECCAK256 PUSH1 0x1 PUSH1 0x1 PUSH1 0xA0 SHL SUB DUP7 AND DUP3 MSTORE PUSH1 0x2 ADD SWAP1 SWAP3 MSTORE SWAP1 KECCAK256 DUP1 SLOAD PUSH2 0x781 SWAP1 PUSH2 0x1F5B JUMP JUMPDEST DUP1 PUSH1 0x1F ADD PUSH1 0x20 DUP1 SWAP2 DIV MUL PUSH1 0x20 ADD PUSH1 0x40 MLOAD SWAP1 DUP2 ADD PUSH1 0x40 MSTORE DUP1 SWAP3 SWAP2 SWAP1 DUP2 DUP2 MSTORE PUSH1 0x20 ADD DUP3 DUP1 SLOAD PUSH2 0x7AD SWAP1 PUSH2 0x1F5B JUMP JUMPDEST DUP1 ISZERO PUSH2 0x7FA JUMPI DUP1 PUSH1 0x1F LT PUSH2 0x7CF JUMPI PUSH2 0x100 DUP1 DUP4 SLOAD DIV MUL DUP4 MSTORE SWAP2 PUSH1 0x20 ADD SWAP2 PUSH2 0x7FA JUMP JUMPDEST DUP3 ADD SWAP2 SWAP1 PUSH1 0x0 MSTORE PUSH1 0x20 PUSH1 0x0 KECCAK256 SWAP1 JUMPDEST DUP2 SLOAD DUP2 MSTORE SWAP1 PUSH1 0x1 ADD SWAP1 PUSH1 0x20 ADD DUP1 DUP4 GT PUSH2 0x7DD JUMPI DUP3 SWAP1 SUB PUSH1 0x1F AND DUP3 ADD SWAP2 JUMPDEST POP POP POP POP POP SWAP1 POP JUMPDEST SWAP3 SWAP2 POP POP JUMP JUMPDEST PUSH2 0x810 PUSH2 0x1A2E JUMP JUMPDEST PUSH2 0x819 DUP3 PUSH2 0x55D JUMP JUMPDEST PUSH2 0x865 JUMPI PUSH1 0x40 MLOAD PUSH3 0x461BCD PUSH1 0xE5 SHL DUP2 MSTORE PUSH1 0x20 PUSH1 0x4 DUP3 ADD MSTORE PUSH1 0x1E PUSH1 0x24 DUP3 ADD MSTORE PUSH32 0x4164647265737320646F65736E27742062656C6F6E6720746F206E6F64650000 PUSH1 0x44 DUP3 ADD MSTORE PUSH1 0x64 ADD PUSH2 0x5A1 JUMP JUMPDEST PUSH1 0x1 PUSH1 0x1 PUSH1 0xA0 SHL SUB DUP3 AND PUSH1 0x0 SWAP1 DUP2 MSTORE PUSH1 0x4 PUSH1 0x20 MSTORE PUSH1 0x40 SWAP1 KECCAK256 SLOAD PUSH1 0x5 SWAP1 PUSH2 0x88D SWAP1 PUSH1 0x3 SWAP1 PUSH2 0x1F0E JUMP JUMPDEST DUP2 SLOAD DUP2 LT PUSH2 0x89D JUMPI PUSH2 0x89D PUSH2 0x1F21 JUMP JUMPDEST SWAP1 PUSH1 0x0 MSTORE PUSH1 0x20 PUSH1 0x0 KECCAK256 SWAP1 PUSH1 0x72 MUL ADD PUSH1 0x1 ADD PUSH1 0x70 DUP1 PUSH1 0x20 MUL PUSH1 0x40 MLOAD SWAP1 DUP2 ADD PUSH1 0x40 MSTORE DUP1 SWAP3 SWAP2 SWAP1 PUSH1 0x0 SWAP1 JUMPDEST DUP3 DUP3 LT ISZERO PUSH2 0x968 JUMPI DUP4 DUP3 ADD DUP1 SLOAD PUSH2 0x8DB SWAP1 PUSH2 0x1F5B JUMP JUMPDEST DUP1 PUSH1 0x1F ADD PUSH1 0x20 DUP1 SWAP2 DIV MUL PUSH1 0x20 ADD PUSH1 0x40 MLOAD SWAP1 DUP2 ADD PUSH1 0x40 MSTORE DUP1 SWAP3 SWAP2 SWAP1 DUP2 DUP2 MSTORE PUSH1 0x20 ADD DUP3 DUP1 SLOAD PUSH2 0x907 SWAP1 PUSH2 0x1F5B JUMP JUMPDEST DUP1 ISZERO PUSH2 0x954 JUMPI DUP1 PUSH1 0x1F LT PUSH2 0x929 JUMPI PUSH2 0x100 DUP1 DUP4 SLOAD DIV MUL DUP4 MSTORE SWAP2 PUSH1 0x20 ADD SWAP2 PUSH2 0x954 JUMP JUMPDEST DUP3 ADD SWAP2 SWAP1 PUSH1 0x0 MSTORE PUSH1 0x20 PUSH1 0x0 KECCAK256 SWAP1 JUMPDEST DUP2 SLOAD DUP2 MSTORE SWAP1 PUSH1 0x1 ADD SWAP1 PUSH1 0x20 ADD DUP1 DUP4 GT PUSH2 0x937 JUMPI DUP3 SWAP1 SUB PUSH1 0x1F AND DUP3 ADD SWAP2 JUMPDEST POP POP POP POP POP DUP2 MSTORE PUSH1 0x20 ADD SWAP1 PUSH1 0x1 ADD SWAP1 PUSH2 0x8C5 JUMP JUMPDEST POP POP POP POP SWAP1 POP SWAP2 SWAP1 POP JUMP JUMPDEST PUSH2 0x97C CALLER PUSH2 0x55D JUMP JUMPDEST PUSH2 0x998 JUMPI PUSH1 0x40 MLOAD PUSH3 0x461BCD PUSH1 0xE5 SHL DUP2 MSTORE PUSH1 0x4 ADD PUSH2 0x5A1 SWAP1 PUSH2 0x1EB1 JUMP JUMPDEST PUSH1 0x9 SLOAD PUSH1 0x0 SWAP1 PUSH1 0x8 SWAP1 DUP3 SWAP1 PUSH2 0x9B5 SWAP1 PUSH1 0x1 SWAP1 PUSH4 0xFFFFFFFF AND PUSH2 0x1F37 JUMP JUMPDEST PUSH4 0xFFFFFFFF AND DUP2 MSTORE PUSH1 0x20 DUP2 ADD SWAP2 SWAP1 SWAP2 MSTORE PUSH1 0x40 ADD PUSH1 0x0 KECCAK256 PUSH1 0x1 DUP2 ADD SLOAD SWAP1 SWAP2 POP PUSH1 0x1 PUSH1 0x1 PUSH1 0xA0 SHL SUB AND CALLER EQ PUSH2 0xA39 JUMPI PUSH1 0x40 MLOAD PUSH3 0x461BCD PUSH1 0xE5 SHL DUP2 MSTORE PUSH1 0x20 PUSH1 0x4 DUP3 ADD MSTORE PUSH1 0x26 PUSH1 0x24 DUP3 ADD MSTORE PUSH32 0x4F6E6C79207072652D73656C6563746564206E6F64652063616E2066696E6973 PUSH1 0x44 DUP3 ADD MSTORE PUSH6 0x3410383630B7 PUSH1 0xD1 SHL PUSH1 0x64 DUP3 ADD MSTORE PUSH1 0x84 ADD PUSH2 0x5A1 JUMP JUMPDEST PUSH1 0x4 DUP2 ADD SLOAD PUSH1 0x9 SLOAD PUSH4 0xFFFFFFFF SWAP2 DUP3 AND PUSH6 0x10000000000 SWAP1 SWAP2 DIV SWAP1 SWAP2 AND LT ISZERO PUSH2 0xAA4 JUMPI PUSH1 0x40 MLOAD PUSH3 0x461BCD PUSH1 0xE5 SHL DUP2 MSTORE PUSH1 0x20 PUSH1 0x4 DUP3 ADD MSTORE PUSH1 0x1C PUSH1 0x24 DUP3 ADD MSTORE PUSH32 0x416C6C20726F756E6473206D75737420626520636F6D706C6574656400000000 PUSH1 0x44 DUP3 ADD MSTORE PUSH1 0x64 ADD PUSH2 0x5A1 JUMP JUMPDEST PUSH1 0x3 DUP2 ADD PUSH2 0xAB2 DUP4 DUP3 PUSH2 0x1FE4 JUMP JUMPDEST POP POP PUSH1 0x9 DUP1 SLOAD PUSH5 0xFF00000000 NOT AND SWAP1 SSTORE POP JUMP JUMPDEST PUSH2 0xACE CALLER PUSH2 0x179A JUMP JUMPDEST JUMP JUMPDEST PUSH1 0x7 DUP2 DUP2 SLOAD DUP2 LT PUSH2 0xAE0 JUMPI PUSH1 0x0 DUP1 REVERT JUMPDEST PUSH1 0x0 SWAP2 DUP3 MSTORE PUSH1 0x20 SWAP1 SWAP2 KECCAK256 PUSH1 0x2 SWAP1 SWAP2 MUL ADD DUP1 SLOAD PUSH1 0x1 SWAP1 SWAP2 ADD SLOAD PUSH1 0x1 PUSH1 0x1 PUSH1 0xA0 SHL SUB SWAP1 SWAP2 AND SWAP2 POP DUP3 JUMP JUMPDEST PUSH2 0xB11 CALLER PUSH2 0x55D JUMP JUMPDEST PUSH2 0xB2D JUMPI PUSH1 0x40 MLOAD PUSH3 0x461BCD PUSH1 0xE5 SHL DUP2 MSTORE PUSH1 0x4 ADD PUSH2 0x5A1 SWAP1 PUSH2 0x1EB1 JUMP JUMPDEST PUSH1 0x7 SLOAD PUSH2 0xB75 JUMPI PUSH1 0x40 MLOAD PUSH3 0x461BCD PUSH1 0xE5 SHL DUP2 MSTORE PUSH1 0x20 PUSH1 0x4 DUP3 ADD MSTORE PUSH1 0x16 PUSH1 0x24 DUP3 ADD MSTORE PUSH22 0x2737903932B8BAB2B9BA103A3790383937B1B2B9B997 PUSH1 0x51 SHL PUSH1 0x44 DUP3 ADD MSTORE PUSH1 0x64 ADD PUSH2 0x5A1 JUMP JUMPDEST PUSH1 0x2 PUSH1 0x4 PUSH1 0x0 PUSH1 0x7 PUSH1 0x1 PUSH1 0x7 DUP1 SLOAD SWAP1 POP PUSH2 0xB8F SWAP2 SWAP1 PUSH2 0x1F0E JUMP JUMPDEST DUP2 SLOAD DUP2 LT PUSH2 0xB9F JUMPI PUSH2 0xB9F PUSH2 0x1F21 JUMP JUMPDEST PUSH1 0x0 SWAP2 DUP3 MSTORE PUSH1 0x20 DUP1 DUP4 KECCAK256 PUSH1 0x2 SWAP1 SWAP3 MUL SWAP1 SWAP2 ADD SLOAD PUSH1 0x1 PUSH1 0x1 PUSH1 0xA0 SHL SUB AND DUP4 MSTORE DUP3 ADD SWAP3 SWAP1 SWAP3 MSTORE PUSH1 0x40 ADD SWAP1 KECCAK256 SSTORE PUSH1 0x7 DUP1 SLOAD DUP1 PUSH2 0xBDA JUMPI PUSH2 0xBDA PUSH2 0x20A4 JUMP JUMPDEST PUSH1 0x0 DUP3 DUP2 MSTORE PUSH1 0x20 DUP2 KECCAK256 PUSH1 0x2 PUSH1 0x0 NOT SWAP1 SWAP4 ADD SWAP3 DUP4 MUL ADD DUP1 SLOAD PUSH1 0x1 PUSH1 0x1 PUSH1 0xA0 SHL SUB NOT AND DUP2 SSTORE PUSH1 0x1 ADD SSTORE SWAP1 SSTORE JUMP JUMPDEST PUSH1 0x1 DUP2 DUP2 SLOAD DUP2 LT PUSH2 0x6AF JUMPI PUSH1 0x0 DUP1 REVERT JUMPDEST CALLER PUSH1 0x0 SWAP1 DUP2 MSTORE PUSH1 0x4 PUSH1 0x20 MSTORE PUSH1 0x40 SWAP1 KECCAK256 SLOAD ISZERO PUSH2 0xC72 JUMPI PUSH1 0x40 MLOAD PUSH3 0x461BCD PUSH1 0xE5 SHL DUP2 MSTORE PUSH1 0x20 PUSH1 0x4 DUP3 ADD MSTORE PUSH1 0x1D PUSH1 0x24 DUP3 ADD MSTORE PUSH32 0x4164647265737320616C7265616479206D61646520726571756573742E000000 PUSH1 0x44 DUP3 ADD MSTORE PUSH1 0x64 ADD PUSH2 0x5A1 JUMP JUMPDEST CALLER PUSH1 0x0 DUP2 DUP2 MSTORE PUSH1 0x4 PUSH1 0x20 SWAP1 DUP2 MSTORE PUSH1 0x40 DUP1 DUP4 KECCAK256 PUSH1 0x1 SWAP1 DUP2 SWAP1 SSTORE DUP2 MLOAD DUP1 DUP4 ADD SWAP1 SWAP3 MSTORE SWAP4 DUP2 MSTORE SWAP1 DUP2 ADD SWAP4 DUP5 MSTORE PUSH1 0x7 DUP1 SLOAD SWAP4 DUP5 ADD DUP2 SSTORE SWAP1 SWAP2 MSTORE MLOAD PUSH32 0xA66CC928B5EDB82AF9BD49922954155AB7B0942694BEA4CE44661D9A8736C688 PUSH1 0x2 SWAP1 SWAP3 MUL SWAP2 DUP3 ADD DUP1 SLOAD PUSH1 0x1 PUSH1 0x1 PUSH1 0xA0 SHL SUB NOT AND PUSH1 0x1 PUSH1 0x1 PUSH1 0xA0 SHL SUB SWAP1 SWAP3 AND SWAP2 SWAP1 SWAP2 OR SWAP1 SSTORE SWAP1 MLOAD PUSH32 0xA66CC928B5EDB82AF9BD49922954155AB7B0942694BEA4CE44661D9A8736C689 SWAP1 SWAP2 ADD SSTORE JUMP JUMPDEST PUSH2 0xD20 CALLER PUSH2 0x55D JUMP JUMPDEST PUSH2 0xD3C JUMPI PUSH1 0x40 MLOAD PUSH3 0x461BCD PUSH1 0xE5 SHL DUP2 MSTORE PUSH1 0x4 ADD PUSH2 0x5A1 SWAP1 PUSH2 0x1EB1 JUMP JUMPDEST PUSH1 0x9 SLOAD PUSH5 0x100000000 SWAP1 DIV PUSH1 0xFF AND ISZERO PUSH2 0xDAC JUMPI PUSH1 0x40 MLOAD PUSH3 0x461BCD PUSH1 0xE5 SHL DUP2 MSTORE PUSH1 0x20 PUSH1 0x4 DUP3 ADD MSTORE PUSH1 0x2C PUSH1 0x24 DUP3 ADD MSTORE PUSH32 0x4E6F64652063616E2774206368616E676520737461747573207768696C652070 PUSH1 0x44 DUP3 ADD MSTORE PUSH12 0x3630B710393AB73734B73397 PUSH1 0xA1 SHL PUSH1 0x64 DUP3 ADD MSTORE PUSH1 0x84 ADD PUSH2 0x5A1 JUMP JUMPDEST CALLER PUSH1 0x0 SWAP1 DUP2 MSTORE PUSH1 0x4 PUSH1 0x20 MSTORE PUSH1 0x40 SWAP1 KECCAK256 SLOAD DUP2 ISZERO ISZERO SWAP1 PUSH1 0x5 SWAP1 PUSH2 0xDCF SWAP1 PUSH1 0x3 SWAP1 PUSH2 0x1F0E JUMP JUMPDEST DUP2 SLOAD DUP2 LT PUSH2 0xDDF JUMPI PUSH2 0xDDF PUSH2 0x1F21 JUMP JUMPDEST PUSH1 0x0 SWAP2 DUP3 MSTORE PUSH1 0x20 SWAP1 SWAP2 KECCAK256 PUSH1 0x72 SWAP1 SWAP2 MUL ADD SLOAD PUSH1 0x1 PUSH1 0xA0 SHL SWAP1 DIV PUSH1 0xFF AND ISZERO ISZERO EQ PUSH2 0xE4F JUMPI DUP1 PUSH2 0xE20 JUMPI PUSH1 0x6 SLOAD PUSH2 0xE1B SWAP1 PUSH1 0x1 SWAP1 PUSH4 0xFFFFFFFF AND PUSH2 0x1F37 JUMP JUMPDEST PUSH2 0xE34 JUMP JUMPDEST PUSH1 0x6 SLOAD PUSH2 0xE34 SWAP1 PUSH4 0xFFFFFFFF AND PUSH1 0x1 PUSH2 0x20BA JUMP JUMPDEST PUSH1 0x6 DUP1 SLOAD PUSH4 0xFFFFFFFF NOT AND PUSH4 0xFFFFFFFF SWAP3 SWAP1 SWAP3 AND SWAP2 SWAP1 SWAP2 OR SWAP1 SSTORE JUMPDEST CALLER PUSH1 0x0 SWAP1 DUP2 MSTORE PUSH1 0x4 PUSH1 0x20 MSTORE PUSH1 0x40 SWAP1 KECCAK256 SLOAD DUP2 SWAP1 PUSH1 0x5 SWAP1 PUSH2 0xE70 SWAP1 PUSH1 0x3 SWAP1 PUSH2 0x1F0E JUMP JUMPDEST DUP2 SLOAD DUP2 LT PUSH2 0xE80 JUMPI PUSH2 0xE80 PUSH2 0x1F21 JUMP JUMPDEST PUSH1 0x0 SWAP2 DUP3 MSTORE PUSH1 0x20 SWAP1 SWAP2 KECCAK256 PUSH1 0x72 SWAP1 SWAP2 MUL ADD DUP1 SLOAD SWAP2 ISZERO ISZERO PUSH1 0x1 PUSH1 0xA0 SHL MUL PUSH1 0xFF PUSH1 0xA0 SHL NOT SWAP1 SWAP3 AND SWAP2 SWAP1 SWAP2 OR SWAP1 SSTORE POP JUMP JUMPDEST CALLER PUSH1 0x0 SWAP1 DUP2 MSTORE PUSH1 0x20 DUP2 SWAP1 MSTORE PUSH1 0x40 SWAP1 KECCAK256 SLOAD PUSH1 0x1 PUSH1 0x1 PUSH1 0xA0 SHL SUB AND PUSH2 0xEE2 JUMPI PUSH1 0x40 MLOAD PUSH3 0x461BCD PUSH1 0xE5 SHL DUP2 MSTORE PUSH1 0x4 ADD PUSH2 0x5A1 SWAP1 PUSH2 0x20D7 JUMP JUMPDEST PUSH1 0x1 PUSH1 0x1 PUSH1 0xA0 SHL SUB DUP2 DUP2 AND PUSH1 0x0 SWAP1 DUP2 MSTORE PUSH1 0x2 PUSH1 0x20 MSTORE PUSH1 0x40 SWAP1 KECCAK256 SLOAD AND PUSH2 0xF19 JUMPI PUSH1 0x40 MLOAD PUSH3 0x461BCD PUSH1 0xE5 SHL DUP2 MSTORE PUSH1 0x4 ADD PUSH2 0x5A1 SWAP1 PUSH2 0x2121 JUMP JUMPDEST PUSH2 0xF22 DUP2 PUSH2 0x18B9 JUMP JUMPDEST POP JUMP JUMPDEST CALLER PUSH1 0x0 SWAP1 DUP2 MSTORE PUSH1 0x20 DUP2 SWAP1 MSTORE PUSH1 0x40 SWAP1 KECCAK256 SLOAD PUSH1 0x1 PUSH1 0x1 PUSH1 0xA0 SHL SUB AND PUSH2 0xF5A JUMPI PUSH1 0x40 MLOAD PUSH3 0x461BCD PUSH1 0xE5 SHL DUP2 MSTORE PUSH1 0x4 ADD PUSH2 0x5A1 SWAP1 PUSH2 0x20D7 JUMP JUMPDEST PUSH1 0x1 PUSH1 0x1 PUSH1 0xA0 SHL SUB DUP2 DUP2 AND PUSH1 0x0 SWAP1 DUP2 MSTORE PUSH1 0x2 PUSH1 0x20 MSTORE PUSH1 0x40 SWAP1 KECCAK256 SLOAD AND PUSH2 0xF91 JUMPI PUSH1 0x40 MLOAD PUSH3 0x461BCD PUSH1 0xE5 SHL DUP2 MSTORE PUSH1 0x4 ADD PUSH2 0x5A1 SWAP1 PUSH2 0x2121 JUMP JUMPDEST PUSH1 0x1 PUSH1 0x1 PUSH1 0xA0 SHL SUB DUP1 DUP3 AND PUSH1 0x0 SWAP1 DUP2 MSTORE PUSH1 0x2 PUSH1 0x20 DUP2 DUP2 MSTORE PUSH1 0x40 SWAP3 DUP4 SWAP1 KECCAK256 DUP4 MLOAD PUSH1 0x60 DUP2 ADD DUP6 MSTORE DUP2 SLOAD SWAP1 SWAP6 AND DUP6 MSTORE PUSH1 0x1 DUP2 ADD SLOAD SWAP2 DUP6 ADD DUP3 SWAP1 MSTORE SWAP1 SWAP2 ADD SLOAD SWAP2 DUP4 ADD SWAP2 SWAP1 SWAP2 MSTORE PUSH2 0xFDE SWAP1 DUP4 SWAP1 PUSH2 0x1372 JUMP JUMPDEST PUSH2 0xFE7 DUP3 PUSH2 0x18B9 JUMP JUMPDEST POP POP JUMP JUMPDEST PUSH1 0x8 PUSH1 0x20 MSTORE PUSH1 0x0 SWAP1 DUP2 MSTORE PUSH1 0x40 SWAP1 KECCAK256 DUP1 SLOAD PUSH1 0x1 DUP3 ADD SLOAD PUSH1 0x2 DUP4 ADD DUP1 SLOAD PUSH1 0x1 PUSH1 0x1 PUSH1 0xA0 SHL SUB SWAP4 DUP5 AND SWAP5 SWAP4 DUP4 AND SWAP4 PUSH1 0x1 PUSH1 0xA0 SHL SWAP1 SWAP4 DIV PUSH4 0xFFFFFFFF AND SWAP3 SWAP2 SWAP1 PUSH2 0x1030 SWAP1 PUSH2 0x1F5B JUMP JUMPDEST DUP1 PUSH1 0x1F ADD PUSH1 0x20 DUP1 SWAP2 DIV MUL PUSH1 0x20 ADD PUSH1 0x40 MLOAD SWAP1 DUP2 ADD PUSH1 0x40 MSTORE DUP1 SWAP3 SWAP2 SWAP1 DUP2 DUP2 MSTORE PUSH1 0x20 ADD DUP3 DUP1 SLOAD PUSH2 0x105C SWAP1 PUSH2 0x1F5B JUMP JUMPDEST DUP1 ISZERO PUSH2 0x10A9 JUMPI DUP1 PUSH1 0x1F LT PUSH2 0x107E JUMPI PUSH2 0x100 DUP1 DUP4 SLOAD DIV MUL DUP4 MSTORE SWAP2 PUSH1 0x20 ADD SWAP2 PUSH2 0x10A9 JUMP JUMPDEST DUP3 ADD SWAP2 SWAP1 PUSH1 0x0 MSTORE PUSH1 0x20 PUSH1 0x0 KECCAK256 SWAP1 JUMPDEST DUP2 SLOAD DUP2 MSTORE SWAP1 PUSH1 0x1 ADD SWAP1 PUSH1 0x20 ADD DUP1 DUP4 GT PUSH2 0x108C JUMPI DUP3 SWAP1 SUB PUSH1 0x1F AND DUP3 ADD SWAP2 JUMPDEST POP POP POP POP POP SWAP1 DUP1 PUSH1 0x3 ADD DUP1 SLOAD PUSH2 0x10BE SWAP1 PUSH2 0x1F5B JUMP JUMPDEST DUP1 PUSH1 0x1F ADD PUSH1 0x20 DUP1 SWAP2 DIV MUL PUSH1 0x20 ADD PUSH1 0x40 MLOAD SWAP1 DUP2 ADD PUSH1 0x40 MSTORE DUP1 SWAP3 SWAP2 SWAP1 DUP2 DUP2 MSTORE PUSH1 0x20 ADD DUP3 DUP1 SLOAD PUSH2 0x10EA SWAP1 PUSH2 0x1F5B JUMP JUMPDEST DUP1 ISZERO PUSH2 0x1137 JUMPI DUP1 PUSH1 0x1F LT PUSH2 0x110C JUMPI PUSH2 0x100 DUP1 DUP4 SLOAD DIV MUL DUP4 MSTORE SWAP2 PUSH1 0x20 ADD SWAP2 PUSH2 0x1137 JUMP JUMPDEST DUP3 ADD SWAP2 SWAP1 PUSH1 0x0 MSTORE PUSH1 0x20 PUSH1 0x0 KECCAK256 SWAP1 JUMPDEST DUP2 SLOAD DUP2 MSTORE SWAP1 PUSH1 0x1 ADD SWAP1 PUSH1 0x20 ADD DUP1 DUP4 GT PUSH2 0x111A JUMPI DUP3 SWAP1 SUB PUSH1 0x1F AND DUP3 ADD SWAP2 JUMPDEST POP POP POP PUSH1 0x4 DUP5 ADD SLOAD PUSH1 0x5 DUP6 ADD SLOAD PUSH1 0x6 DUP7 ADD SLOAD PUSH1 0x7 DUP8 ADD SLOAD PUSH1 0x8 SWAP1 SWAP8 ADD SLOAD SWAP6 SWAP7 PUSH4 0xFFFFFFFF SWAP1 SWAP4 AND SWAP6 SWAP2 SWAP5 POP SWAP3 POP DUP11 JUMP JUMPDEST PUSH1 0x9 SLOAD PUSH4 0xFFFFFFFF AND ISZERO DUP1 ISZERO SWAP1 PUSH2 0x11B8 JUMPI POP PUSH1 0x9 SLOAD CALLER SWAP1 PUSH1 0x8 SWAP1 PUSH1 0x0 SWAP1 PUSH2 0x1196 SWAP1 PUSH1 0x1 SWAP1 PUSH4 0xFFFFFFFF AND PUSH2 0x1F37 JUMP JUMPDEST PUSH4 0xFFFFFFFF AND DUP2 MSTORE PUSH1 0x20 DUP2 ADD SWAP2 SWAP1 SWAP2 MSTORE PUSH1 0x40 ADD PUSH1 0x0 KECCAK256 SLOAD PUSH1 0x1 PUSH1 0x1 PUSH1 0xA0 SHL SUB AND EQ JUMPDEST PUSH2 0x1204 JUMPI PUSH1 0x40 MLOAD PUSH3 0x461BCD PUSH1 0xE5 SHL DUP2 MSTORE PUSH1 0x20 PUSH1 0x4 DUP3 ADD MSTORE PUSH1 0x1F PUSH1 0x24 DUP3 ADD MSTORE PUSH32 0x4F6E6C792063726561746F722063616E2061626F72742074686520706C616E00 PUSH1 0x44 DUP3 ADD MSTORE PUSH1 0x64 ADD PUSH2 0x5A1 JUMP JUMPDEST PUSH1 0x9 DUP1 SLOAD PUSH5 0xFF00000000 NOT AND SWAP1 SSTORE JUMP JUMPDEST CALLER PUSH1 0x0 SWAP1 DUP2 MSTORE PUSH1 0x20 DUP2 SWAP1 MSTORE PUSH1 0x40 SWAP1 KECCAK256 SLOAD PUSH1 0x1 PUSH1 0x1 PUSH1 0xA0 SHL SUB AND ISZERO PUSH2 0x1273 JUMPI PUSH1 0x40 MLOAD PUSH3 0x461BCD PUSH1 0xE5 SHL DUP2 MSTORE PUSH1 0x20 PUSH1 0x4 DUP3 ADD MSTORE PUSH1 0x16 PUSH1 0x24 DUP3 ADD MSTORE PUSH22 0x4275696C64657220616C726561647920657869737473 PUSH1 0x50 SHL PUSH1 0x44 DUP3 ADD MSTORE PUSH1 0x64 ADD PUSH2 0x5A1 JUMP JUMPDEST CALLER PUSH1 0x0 SWAP1 DUP2 MSTORE PUSH1 0x2 PUSH1 0x20 MSTORE PUSH1 0x40 SWAP1 KECCAK256 SLOAD PUSH1 0x1 PUSH1 0x1 PUSH1 0xA0 SHL SUB AND ISZERO PUSH2 0x12D9 JUMPI PUSH1 0x40 MLOAD PUSH3 0x461BCD PUSH1 0xE5 SHL DUP2 MSTORE PUSH1 0x20 PUSH1 0x4 DUP3 ADD MSTORE PUSH1 0x1E PUSH1 0x24 DUP3 ADD MSTORE PUSH32 0x4275696C64657220616C726561647920726571756573746564206A6F696E0000 PUSH1 0x44 DUP3 ADD MSTORE PUSH1 0x64 ADD PUSH2 0x5A1 JUMP JUMPDEST PUSH1 0x40 DUP1 MLOAD PUSH1 0x60 DUP2 ADD DUP3 MSTORE CALLER DUP1 DUP3 MSTORE PUSH1 0x20 DUP1 DUP4 ADD SWAP5 DUP6 MSTORE PUSH1 0x3 DUP1 SLOAD DUP5 DUP7 ADD SWAP1 DUP2 MSTORE PUSH1 0x0 DUP5 DUP2 MSTORE PUSH1 0x2 SWAP4 DUP5 SWAP1 MSTORE SWAP6 DUP7 KECCAK256 SWAP5 MLOAD DUP6 SLOAD PUSH1 0x1 PUSH1 0x1 PUSH1 0xA0 SHL SUB SWAP2 SWAP1 SWAP2 AND PUSH1 0x1 PUSH1 0x1 PUSH1 0xA0 SHL SUB NOT SWAP2 DUP3 AND OR DUP7 SSTORE SWAP7 MLOAD PUSH1 0x1 DUP1 DUP8 ADD SWAP2 SWAP1 SWAP2 SSTORE SWAP1 MLOAD SWAP5 SWAP1 SWAP3 ADD SWAP4 SWAP1 SWAP4 SSTORE DUP3 SLOAD SWAP1 DUP2 ADD DUP4 SSTORE SWAP2 SWAP1 SWAP3 MSTORE PUSH32 0xC2575A0E9E593C00F959F8C92F12DB2869C3395A3B0502D05E2516446F71F85B ADD DUP1 SLOAD SWAP1 SWAP3 AND OR SWAP1 SSTORE JUMP JUMPDEST CALLER PUSH1 0x0 SWAP1 DUP2 MSTORE PUSH1 0x20 DUP2 SWAP1 MSTORE PUSH1 0x40 SWAP1 KECCAK256 SLOAD PUSH1 0x1 PUSH1 0x1 PUSH1 0xA0 SHL SUB AND PUSH2 0x13A7 JUMPI PUSH1 0x40 MLOAD PUSH3 0x461BCD PUSH1 0xE5 SHL DUP2 MSTORE PUSH1 0x4 ADD PUSH2 0x5A1 SWAP1 PUSH2 0x20D7 JUMP JUMPDEST PUSH1 0x1 PUSH1 0x1 PUSH1 0xA0 SHL SUB DUP3 DUP2 AND PUSH1 0x0 SWAP1 DUP2 MSTORE PUSH1 0x20 DUP2 SWAP1 MSTORE PUSH1 0x40 SWAP1 KECCAK256 SLOAD AND ISZERO PUSH2 0x1408 JUMPI PUSH1 0x40 MLOAD PUSH3 0x461BCD PUSH1 0xE5 SHL DUP2 MSTORE PUSH1 0x20 PUSH1 0x4 DUP3 ADD MSTORE PUSH1 0x16 PUSH1 0x24 DUP3 ADD MSTORE PUSH22 0x4275696C64657220616C726561647920657869737473 PUSH1 0x50 SHL PUSH1 0x44 DUP3 ADD MSTORE PUSH1 0x64 ADD PUSH2 0x5A1 JUMP JUMPDEST PUSH1 0x40 DUP1 MLOAD DUP1 DUP3 ADD DUP3 MSTORE PUSH1 0x1 PUSH1 0x1 PUSH1 0xA0 SHL SUB SWAP4 DUP5 AND DUP1 DUP3 MSTORE PUSH1 0x20 DUP1 DUP4 ADD SWAP5 DUP6 MSTORE PUSH1 0x0 DUP3 DUP2 MSTORE SWAP1 DUP2 SWAP1 MSTORE SWAP3 DUP4 KECCAK256 SWAP2 MLOAD DUP3 SLOAD SWAP6 AND PUSH1 0x1 PUSH1 0x1 PUSH1 0xA0 SHL SUB NOT SWAP6 DUP7 AND OR DUP3 SSTORE SWAP3 MLOAD PUSH1 0x1 SWAP2 DUP3 ADD SSTORE DUP1 SLOAD DUP1 DUP3 ADD DUP3 SSTORE SWAP2 MSTORE PUSH32 0xB10E2D527612073B26EECDFD717E6A320CF44B4AFAC2B0732D9FCBE2B7FA0CF6 ADD DUP1 SLOAD SWAP1 SWAP3 AND OR SWAP1 SSTORE JUMP JUMPDEST CALLER PUSH1 0x0 DUP2 DUP2 MSTORE PUSH1 0x20 DUP2 SWAP1 MSTORE PUSH1 0x40 SWAP1 KECCAK256 SLOAD PUSH1 0x1 PUSH1 0x1 PUSH1 0xA0 SHL SUB AND EQ PUSH2 0x14E3 JUMPI PUSH1 0x40 MLOAD PUSH3 0x461BCD PUSH1 0xE5 SHL DUP2 MSTORE PUSH1 0x20 PUSH1 0x4 DUP3 ADD MSTORE PUSH1 0x15 PUSH1 0x24 DUP3 ADD MSTORE PUSH21 0x29B2B73232B91034B9903737BA10313AB4B63232B9 PUSH1 0x59 SHL PUSH1 0x44 DUP3 ADD MSTORE PUSH1 0x64 ADD PUSH2 0x5A1 JUMP JUMPDEST CALLER PUSH1 0x0 SWAP1 DUP2 MSTORE PUSH1 0x20 DUP2 SWAP1 MSTORE PUSH1 0x40 SWAP1 KECCAK256 PUSH1 0x1 ADD SSTORE JUMP JUMPDEST PUSH1 0x5 DUP2 DUP2 SLOAD DUP2 LT PUSH2 0x1508 JUMPI PUSH1 0x0 DUP1 REVERT JUMPDEST PUSH1 0x0 SWAP2 DUP3 MSTORE PUSH1 0x20 SWAP1 SWAP2 KECCAK256 PUSH1 0x72 SWAP1 SWAP2 MUL ADD DUP1 SLOAD PUSH1 0x71 SWAP1 SWAP2 ADD SLOAD PUSH1 0x1 PUSH1 0x1 PUSH1 0xA0 SHL SUB DUP3 AND SWAP3 POP PUSH1 0x1 PUSH1 0xA0 SHL SWAP1 SWAP2 DIV PUSH1 0xFF AND SWAP1 DUP4 JUMP JUMPDEST PUSH2 0x1544 CALLER PUSH2 0x55D JUMP JUMPDEST PUSH2 0x1560 JUMPI PUSH1 0x40 MLOAD PUSH3 0x461BCD PUSH1 0xE5 SHL DUP2 MSTORE PUSH1 0x4 ADD PUSH2 0x5A1 SWAP1 PUSH2 0x1EB1 JUMP JUMPDEST PUSH1 0x7 SLOAD PUSH2 0x15A8 JUMPI PUSH1 0x40 MLOAD PUSH3 0x461BCD PUSH1 0xE5 SHL DUP2 MSTORE PUSH1 0x20 PUSH1 0x4 DUP3 ADD MSTORE PUSH1 0x16 PUSH1 0x24 DUP3 ADD MSTORE PUSH22 0x2737903932B8BAB2B9BA103A3790383937B1B2B9B997 PUSH1 0x51 SHL PUSH1 0x44 DUP3 ADD MSTORE PUSH1 0x64 ADD PUSH2 0x5A1 JUMP JUMPDEST PUSH1 0x5 SLOAD PUSH2 0x15B6 SWAP1 PUSH1 0x3 PUSH2 0x2190 JUMP JUMPDEST PUSH1 0x7 DUP1 SLOAD PUSH1 0x4 SWAP2 PUSH1 0x0 SWAP2 PUSH2 0x15CC SWAP1 PUSH1 0x1 SWAP1 PUSH2 0x1F0E JUMP JUMPDEST DUP2 SLOAD DUP2 LT PUSH2 0x15DC JUMPI PUSH2 0x15DC PUSH2 0x1F21 JUMP JUMPDEST PUSH1 0x0 SWAP2 DUP3 MSTORE PUSH1 0x20 DUP1 DUP4 KECCAK256 PUSH1 0x2 SWAP1 SWAP3 MUL SWAP1 SWAP2 ADD SLOAD PUSH1 0x1 PUSH1 0x1 PUSH1 0xA0 SHL SUB AND DUP4 MSTORE DUP3 ADD SWAP3 SWAP1 SWAP3 MSTORE PUSH1 0x40 ADD SWAP1 KECCAK256 SSTORE PUSH1 0x6 DUP1 SLOAD PUSH1 0x1 SWAP2 SWAP1 PUSH1 0x4 SWAP1 PUSH2 0x162B SWAP1 DUP5 SWAP1 PUSH4 0xFFFFFFFF PUSH5 0x100000000 SWAP1 SWAP2 DIV AND PUSH2 0x20BA JUMP JUMPDEST SWAP3 POP PUSH2 0x100 EXP DUP2 SLOAD DUP2 PUSH4 0xFFFFFFFF MUL NOT AND SWAP1 DUP4 PUSH4 0xFFFFFFFF AND MUL OR SWAP1 SSTORE POP PUSH1 0x5 PUSH1 0x40 MLOAD DUP1 PUSH1 0x80 ADD PUSH1 0x40 MSTORE DUP1 PUSH1 0x7 PUSH1 0x1 PUSH1 0x7 DUP1 SLOAD SWAP1 POP PUSH2 0x166A SWAP2 SWAP1 PUSH2 0x1F0E JUMP JUMPDEST DUP2 SLOAD DUP2 LT PUSH2 0x167A JUMPI PUSH2 0x167A PUSH2 0x1F21 JUMP JUMPDEST PUSH1 0x0 SWAP2 DUP3 MSTORE PUSH1 0x20 DUP1 DUP4 KECCAK256 PUSH1 0x2 SWAP1 SWAP3 MUL SWAP1 SWAP2 ADD SLOAD PUSH1 0x1 PUSH1 0x1 PUSH1 0xA0 SHL SUB SWAP1 DUP2 AND DUP5 MSTORE PUSH1 0x1 DUP5 DUP4 ADD DUP2 SWAP1 MSTORE PUSH1 0x40 DUP1 DUP7 ADD DUP10 SWAP1 MSTORE PUSH1 0x6 SLOAD PUSH4 0xFFFFFFFF PUSH5 0x100000000 SWAP1 SWAP2 DIV AND PUSH1 0x60 SWAP1 SWAP7 ADD SWAP6 SWAP1 SWAP6 MSTORE DUP7 SLOAD DUP1 DUP3 ADD DUP9 SSTORE SWAP7 DUP5 MSTORE SWAP3 DUP3 SWAP1 KECCAK256 DUP6 MLOAD PUSH1 0x72 SWAP1 SWAP8 MUL ADD DUP1 SLOAD SWAP3 DUP7 ADD MLOAD ISZERO ISZERO PUSH1 0x1 PUSH1 0xA0 SHL MUL PUSH1 0x1 PUSH1 0x1 PUSH1 0xA8 SHL SUB NOT SWAP1 SWAP4 AND SWAP7 SWAP1 SWAP2 AND SWAP6 SWAP1 SWAP6 OR OR DUP5 SSTORE SWAP1 DUP3 ADD MLOAD SWAP2 SWAP3 SWAP2 PUSH2 0x1715 SWAP2 DUP4 ADD SWAP1 PUSH1 0x70 PUSH2 0x1A56 JUMP JUMPDEST POP PUSH1 0x60 SWAP2 SWAP1 SWAP2 ADD MLOAD PUSH1 0x71 SWAP1 SWAP2 ADD SSTORE PUSH1 0x6 DUP1 SLOAD PUSH1 0x1 SWAP2 SWAP1 PUSH1 0x0 SWAP1 PUSH2 0x173F SWAP1 DUP5 SWAP1 PUSH4 0xFFFFFFFF AND PUSH2 0x20BA JUMP JUMPDEST SWAP3 POP PUSH2 0x100 EXP DUP2 SLOAD DUP2 PUSH4 0xFFFFFFFF MUL NOT AND SWAP1 DUP4 PUSH4 0xFFFFFFFF AND MUL OR SWAP1 SSTORE POP PUSH1 0x7 DUP1 SLOAD DUP1 PUSH2 0x176E JUMPI PUSH2 0x176E PUSH2 0x20A4 JUMP JUMPDEST PUSH1 0x0 DUP3 DUP2 MSTORE PUSH1 0x20 DUP2 KECCAK256 PUSH1 0x2 PUSH1 0x0 NOT SWAP1 SWAP4 ADD SWAP3 DUP4 MUL ADD DUP1 SLOAD PUSH1 0x1 PUSH1 0x1 PUSH1 0xA0 SHL SUB NOT AND DUP2 SSTORE PUSH1 0x1 ADD SSTORE SWAP1 SSTORE POP JUMP JUMPDEST PUSH2 0x17A3 DUP2 PUSH2 0x55D JUMP JUMPDEST PUSH2 0x17EF JUMPI PUSH1 0x40 MLOAD PUSH3 0x461BCD PUSH1 0xE5 SHL DUP2 MSTORE PUSH1 0x20 PUSH1 0x4 DUP3 ADD MSTORE PUSH1 0x1A PUSH1 0x24 DUP3 ADD MSTORE PUSH32 0x41646472657373206973206E6F742076616C6964206E6F64652E000000000000 PUSH1 0x44 DUP3 ADD MSTORE PUSH1 0x64 ADD PUSH2 0x5A1 JUMP JUMPDEST PUSH1 0x1 PUSH1 0x1 PUSH1 0xA0 SHL SUB DUP2 AND PUSH1 0x0 SWAP1 DUP2 MSTORE PUSH1 0x4 PUSH1 0x20 MSTORE PUSH1 0x40 SWAP1 KECCAK256 SLOAD PUSH1 0x5 SWAP1 PUSH2 0x1817 SWAP1 PUSH1 0x3 SWAP1 PUSH2 0x1F0E JUMP JUMPDEST DUP2 SLOAD DUP2 LT PUSH2 0x1827 JUMPI PUSH2 0x1827 PUSH2 0x1F21 JUMP JUMPDEST PUSH1 0x0 SWAP2 DUP3 MSTORE PUSH1 0x20 SWAP1 SWAP2 KECCAK256 PUSH1 0x72 SWAP1 SWAP2 MUL ADD SLOAD PUSH1 0x1 PUSH1 0xA0 SHL SWAP1 DIV PUSH1 0xFF AND PUSH2 0x188E JUMPI PUSH1 0x40 MLOAD PUSH3 0x461BCD PUSH1 0xE5 SHL DUP2 MSTORE PUSH1 0x20 PUSH1 0x4 DUP3 ADD MSTORE PUSH1 0x18 PUSH1 0x24 DUP3 ADD MSTORE PUSH32 0x4E6F646520697320616C726561647920696E6163746976650000000000000000 PUSH1 0x44 DUP3 ADD MSTORE PUSH1 0x64 ADD PUSH2 0x5A1 JUMP JUMPDEST PUSH1 0x1 PUSH1 0x1 PUSH1 0xA0 SHL SUB DUP2 AND PUSH1 0x0 SWAP1 DUP2 MSTORE PUSH1 0x4 PUSH1 0x20 MSTORE PUSH1 0x40 SWAP1 KECCAK256 SLOAD PUSH1 0x1 SWAP1 PUSH1 0x5 SWAP1 PUSH2 0xE70 SWAP1 PUSH1 0x3 SWAP1 PUSH2 0x1F0E JUMP JUMPDEST CALLER PUSH1 0x0 SWAP1 DUP2 MSTORE PUSH1 0x20 DUP2 SWAP1 MSTORE PUSH1 0x40 SWAP1 KECCAK256 SLOAD PUSH1 0x1 PUSH1 0x1 PUSH1 0xA0 SHL SUB AND PUSH2 0x18EE JUMPI PUSH1 0x40 MLOAD PUSH3 0x461BCD PUSH1 0xE5 SHL DUP2 MSTORE PUSH1 0x4 ADD PUSH2 0x5A1 SWAP1 PUSH2 0x20D7 JUMP JUMPDEST PUSH1 0x1 PUSH1 0x1 PUSH1 0xA0 SHL SUB DUP2 AND PUSH1 0x0 SWAP1 DUP2 MSTORE PUSH1 0x2 PUSH1 0x20 DUP2 SWAP1 MSTORE PUSH1 0x40 SWAP1 SWAP2 KECCAK256 ADD SLOAD PUSH1 0x3 DUP1 SLOAD DUP3 SWAP1 DUP2 LT PUSH2 0x191F JUMPI PUSH2 0x191F PUSH2 0x1F21 JUMP JUMPDEST PUSH1 0x0 SWAP2 DUP3 MSTORE PUSH1 0x20 DUP1 DUP4 KECCAK256 SWAP1 SWAP2 ADD DUP1 SLOAD PUSH1 0x1 PUSH1 0x1 PUSH1 0xA0 SHL SUB NOT SWAP1 DUP2 AND SWAP1 SWAP2 SSTORE PUSH1 0x1 PUSH1 0x1 PUSH1 0xA0 SHL SUB DUP6 AND DUP4 MSTORE PUSH1 0x2 SWAP2 DUP3 SWAP1 MSTORE PUSH1 0x40 DUP4 KECCAK256 DUP1 SLOAD SWAP1 SWAP2 AND DUP2 SSTORE PUSH1 0x1 DUP2 DUP2 ADD DUP5 SWAP1 SSTORE SWAP2 ADD DUP3 SWAP1 SSTORE PUSH1 0x3 DUP1 SLOAD SWAP1 SWAP2 PUSH2 0x1976 SWAP2 PUSH2 0x1F0E JUMP JUMPDEST DUP2 SLOAD DUP2 LT PUSH2 0x1986 JUMPI PUSH2 0x1986 PUSH2 0x1F21 JUMP JUMPDEST PUSH1 0x0 SWAP2 DUP3 MSTORE PUSH1 0x20 DUP1 DUP4 KECCAK256 SWAP1 SWAP2 ADD SLOAD PUSH1 0x1 PUSH1 0x1 PUSH1 0xA0 SHL SUB AND DUP1 DUP4 MSTORE PUSH1 0x2 SWAP2 DUP3 SWAP1 MSTORE PUSH1 0x40 SWAP1 SWAP3 KECCAK256 ADD DUP4 SWAP1 SSTORE PUSH1 0x3 DUP1 SLOAD SWAP2 SWAP3 POP DUP3 SWAP2 DUP5 SWAP1 DUP2 LT PUSH2 0x19C8 JUMPI PUSH2 0x19C8 PUSH2 0x1F21 JUMP JUMPDEST SWAP1 PUSH1 0x0 MSTORE PUSH1 0x20 PUSH1 0x0 KECCAK256 ADD PUSH1 0x0 PUSH2 0x100 EXP DUP2 SLOAD DUP2 PUSH1 0x1 PUSH1 0x1 PUSH1 0xA0 SHL SUB MUL NOT AND SWAP1 DUP4 PUSH1 0x1 PUSH1 0x1 PUSH1 0xA0 SHL SUB AND MUL OR SWAP1 SSTORE POP PUSH1 0x3 DUP1 SLOAD DUP1 PUSH2 0x1A07 JUMPI PUSH2 0x1A07 PUSH2 0x20A4 JUMP JUMPDEST PUSH1 0x0 DUP3 DUP2 MSTORE PUSH1 0x20 SWAP1 KECCAK256 DUP2 ADD PUSH1 0x0 NOT SWAP1 DUP2 ADD DUP1 SLOAD PUSH1 0x1 PUSH1 0x1 PUSH1 0xA0 SHL SUB NOT AND SWAP1 SSTORE ADD SWAP1 SSTORE POP POP POP JUMP JUMPDEST PUSH1 0x40 MLOAD DUP1 PUSH2 0xE00 ADD PUSH1 0x40 MSTORE DUP1 PUSH1 0x70 SWAP1 JUMPDEST PUSH1 0x60 DUP2 MSTORE PUSH1 0x20 ADD SWAP1 PUSH1 0x1 SWAP1 SUB SWAP1 DUP2 PUSH2 0x1A3E JUMPI SWAP1 POP POP SWAP1 JUMP JUMPDEST DUP3 PUSH1 0x70 DUP2 ADD SWAP3 DUP3 ISZERO PUSH2 0x1A8F JUMPI SWAP2 PUSH1 0x20 MUL DUP3 ADD JUMPDEST DUP3 DUP2 GT ISZERO PUSH2 0x1A8F JUMPI DUP3 MLOAD DUP3 SWAP1 PUSH2 0x1A7F SWAP1 DUP3 PUSH2 0x1FE4 JUMP JUMPDEST POP SWAP2 PUSH1 0x20 ADD SWAP2 SWAP1 PUSH1 0x1 ADD SWAP1 PUSH2 0x1A69 JUMP JUMPDEST POP PUSH2 0x1A9B SWAP3 SWAP2 POP PUSH2 0x1A9F JUMP JUMPDEST POP SWAP1 JUMP JUMPDEST DUP1 DUP3 GT ISZERO PUSH2 0x1A9B JUMPI PUSH1 0x0 PUSH2 0x1AB3 DUP3 DUP3 PUSH2 0x1ABC JUMP JUMPDEST POP PUSH1 0x1 ADD PUSH2 0x1A9F JUMP JUMPDEST POP DUP1 SLOAD PUSH2 0x1AC8 SWAP1 PUSH2 0x1F5B JUMP JUMPDEST PUSH1 0x0 DUP3 SSTORE DUP1 PUSH1 0x1F LT PUSH2 0x1AD8 JUMPI POP POP JUMP JUMPDEST PUSH1 0x1F ADD PUSH1 0x20 SWAP1 DIV SWAP1 PUSH1 0x0 MSTORE PUSH1 0x20 PUSH1 0x0 KECCAK256 SWAP1 DUP2 ADD SWAP1 PUSH2 0xF22 SWAP2 SWAP1 JUMPDEST DUP1 DUP3 GT ISZERO PUSH2 0x1A9B JUMPI PUSH1 0x0 DUP2 SSTORE PUSH1 0x1 ADD PUSH2 0x1AF2 JUMP JUMPDEST DUP1 CALLDATALOAD PUSH1 0x1 PUSH1 0x1 PUSH1 0xA0 SHL SUB DUP2 AND DUP2 EQ PUSH2 0x1B1D JUMPI PUSH1 0x0 DUP1 REVERT JUMPDEST SWAP2 SWAP1 POP JUMP JUMPDEST PUSH1 0x0 PUSH1 0x20 DUP3 DUP5 SUB SLT ISZERO PUSH2 0x1B34 JUMPI PUSH1 0x0 DUP1 REVERT JUMPDEST PUSH2 0x1B3D DUP3 PUSH2 0x1B06 JUMP JUMPDEST SWAP4 SWAP3 POP POP POP JUMP JUMPDEST PUSH1 0x0 PUSH1 0x20 DUP3 DUP5 SUB SLT ISZERO PUSH2 0x1B56 JUMPI PUSH1 0x0 DUP1 REVERT JUMPDEST POP CALLDATALOAD SWAP2 SWAP1 POP JUMP JUMPDEST PUSH1 0x0 DUP1 PUSH1 0x40 DUP4 DUP6 SUB SLT ISZERO PUSH2 0x1B70 JUMPI PUSH1 0x0 DUP1 REVERT JUMPDEST DUP3 CALLDATALOAD SWAP2 POP PUSH2 0x1B80 PUSH1 0x20 DUP5 ADD PUSH2 0x1B06 JUMP JUMPDEST SWAP1 POP SWAP3 POP SWAP3 SWAP1 POP JUMP JUMPDEST PUSH1 0x0 DUP2 MLOAD DUP1 DUP5 MSTORE PUSH1 0x0 JUMPDEST DUP2 DUP2 LT ISZERO PUSH2 0x1BAF JUMPI PUSH1 0x20 DUP2 DUP6 ADD DUP2 ADD MLOAD DUP7 DUP4 ADD DUP3 ADD MSTORE ADD PUSH2 0x1B93 JUMP JUMPDEST POP PUSH1 0x0 PUSH1 0x20 DUP3 DUP7 ADD ADD MSTORE PUSH1 0x20 PUSH1 0x1F NOT PUSH1 0x1F DUP4 ADD AND DUP6 ADD ADD SWAP2 POP POP SWAP3 SWAP2 POP POP JUMP JUMPDEST PUSH1 0x20 DUP2 MSTORE PUSH1 0x0 PUSH2 0x1B3D PUSH1 0x20 DUP4 ADD DUP5 PUSH2 0x1B89 JUMP JUMPDEST PUSH1 0x20 DUP1 DUP3 MSTORE PUSH1 0x0 SWAP1 PUSH2 0xE20 DUP4 ADD DUP4 DUP3 ADD DUP6 DUP5 JUMPDEST PUSH1 0x70 DUP2 LT ISZERO PUSH2 0x1C24 JUMPI PUSH1 0x1F NOT DUP8 DUP6 SUB ADD DUP4 MSTORE PUSH2 0x1C12 DUP5 DUP4 MLOAD PUSH2 0x1B89 JUMP JUMPDEST SWAP4 POP SWAP2 DUP5 ADD SWAP2 SWAP1 DUP5 ADD SWAP1 PUSH1 0x1 ADD PUSH2 0x1BF5 JUMP JUMPDEST POP SWAP2 SWAP7 SWAP6 POP POP POP POP POP POP JUMP JUMPDEST PUSH4 0x4E487B71 PUSH1 0xE0 SHL PUSH1 0x0 MSTORE PUSH1 0x41 PUSH1 0x4 MSTORE PUSH1 0x24 PUSH1 0x0 REVERT JUMPDEST PUSH1 0x40 MLOAD PUSH2 0xE00 DUP2 ADD PUSH8 0xFFFFFFFFFFFFFFFF DUP2 GT DUP3 DUP3 LT OR ISZERO PUSH2 0x1C6A JUMPI PUSH2 0x1C6A PUSH2 0x1C30 JUMP JUMPDEST PUSH1 0x40 MSTORE SWAP1 JUMP JUMPDEST PUSH1 0x0 PUSH8 0xFFFFFFFFFFFFFFFF DUP1 DUP5 GT ISZERO PUSH2 0x1C8B JUMPI PUSH2 0x1C8B PUSH2 0x1C30 JUMP JUMPDEST PUSH1 0x40 MLOAD PUSH1 0x1F DUP6 ADD PUSH1 0x1F NOT SWAP1 DUP2 AND PUSH1 0x3F ADD AND DUP2 ADD SWAP1 DUP3 DUP3 GT DUP2 DUP4 LT OR ISZERO PUSH2 0x1CB3 JUMPI PUSH2 0x1CB3 PUSH2 0x1C30 JUMP JUMPDEST DUP2 PUSH1 0x40 MSTORE DUP1 SWAP4 POP DUP6 DUP2 MSTORE DUP7 DUP7 DUP7 ADD GT ISZERO PUSH2 0x1CCC JUMPI PUSH1 0x0 DUP1 REVERT JUMPDEST DUP6 DUP6 PUSH1 0x20 DUP4 ADD CALLDATACOPY PUSH1 0x0 PUSH1 0x20 DUP8 DUP4 ADD ADD MSTORE POP POP POP SWAP4 SWAP3 POP POP POP JUMP JUMPDEST PUSH1 0x0 PUSH1 0x20 DUP3 DUP5 SUB SLT ISZERO PUSH2 0x1CF8 JUMPI PUSH1 0x0 DUP1 REVERT JUMPDEST DUP2 CALLDATALOAD PUSH8 0xFFFFFFFFFFFFFFFF DUP2 GT ISZERO PUSH2 0x1D0F JUMPI PUSH1 0x0 DUP1 REVERT JUMPDEST DUP3 ADD PUSH1 0x1F DUP2 ADD DUP5 SGT PUSH2 0x1D20 JUMPI PUSH1 0x0 DUP1 REVERT JUMPDEST PUSH2 0x1D2F DUP5 DUP3 CALLDATALOAD PUSH1 0x20 DUP5 ADD PUSH2 0x1C70 JUMP JUMPDEST SWAP5 SWAP4 POP POP POP POP JUMP JUMPDEST PUSH1 0x0 PUSH1 0x20 DUP3 DUP5 SUB SLT ISZERO PUSH2 0x1D49 JUMPI PUSH1 0x0 DUP1 REVERT JUMPDEST DUP2 CALLDATALOAD DUP1 ISZERO ISZERO DUP2 EQ PUSH2 0x1B3D JUMPI PUSH1 0x0 DUP1 REVERT JUMPDEST PUSH1 0x1 PUSH1 0x1 PUSH1 0xA0 SHL SUB DUP12 DUP2 AND DUP3 MSTORE DUP11 AND PUSH1 0x20 DUP3 ADD MSTORE PUSH4 0xFFFFFFFF DUP10 DUP2 AND PUSH1 0x40 DUP4 ADD MSTORE PUSH2 0x140 PUSH1 0x60 DUP4 ADD DUP2 SWAP1 MSTORE PUSH1 0x0 SWAP2 PUSH2 0x1D93 DUP5 DUP4 ADD DUP13 PUSH2 0x1B89 JUMP JUMPDEST SWAP2 POP DUP4 DUP3 SUB PUSH1 0x80 DUP6 ADD MSTORE PUSH2 0x1DA7 DUP3 DUP12 PUSH2 0x1B89 JUMP JUMPDEST SWAP9 AND PUSH1 0xA0 DUP5 ADD MSTORE POP POP PUSH1 0xC0 DUP2 ADD SWAP5 SWAP1 SWAP5 MSTORE PUSH1 0xE0 DUP5 ADD SWAP3 SWAP1 SWAP3 MSTORE PUSH2 0x100 DUP4 ADD MSTORE PUSH2 0x120 SWAP1 SWAP2 ADD MSTORE SWAP6 SWAP5 POP POP POP POP POP JUMP JUMPDEST PUSH1 0x0 DUP1 PUSH1 0x40 DUP4 DUP6 SUB SLT ISZERO PUSH2 0x1DE9 JUMPI PUSH1 0x0 DUP1 REVERT JUMPDEST PUSH2 0x1DF2 DUP4 PUSH2 0x1B06 JUMP JUMPDEST SWAP5 PUSH1 0x20 SWAP4 SWAP1 SWAP4 ADD CALLDATALOAD SWAP4 POP POP POP JUMP JUMPDEST PUSH1 0x0 PUSH1 0x20 DUP1 DUP4 DUP6 SUB SLT ISZERO PUSH2 0x1E13 JUMPI PUSH1 0x0 DUP1 REVERT JUMPDEST DUP3 CALLDATALOAD PUSH8 0xFFFFFFFFFFFFFFFF DUP1 DUP3 GT ISZERO PUSH2 0x1E2B JUMPI PUSH1 0x0 DUP1 REVERT JUMPDEST DUP2 DUP6 ADD SWAP2 POP PUSH1 0x1F DUP7 DUP2 DUP5 ADD SLT PUSH2 0x1E40 JUMPI PUSH1 0x0 DUP1 REVERT JUMPDEST PUSH2 0x1E48 PUSH2 0x1C46 JUMP JUMPDEST DUP1 PUSH2 0xE00 DUP6 ADD DUP10 DUP2 GT ISZERO PUSH2 0x1E5B JUMPI PUSH1 0x0 DUP1 REVERT JUMPDEST DUP6 JUMPDEST DUP2 DUP2 LT ISZERO PUSH2 0x1EA2 JUMPI DUP1 CALLDATALOAD DUP7 DUP2 GT ISZERO PUSH2 0x1E75 JUMPI PUSH1 0x0 DUP1 DUP2 REVERT JUMPDEST DUP8 ADD DUP6 DUP2 ADD DUP13 SGT PUSH2 0x1E86 JUMPI PUSH1 0x0 DUP1 DUP2 REVERT JUMPDEST PUSH2 0x1E94 DUP13 DUP3 CALLDATALOAD DUP12 DUP5 ADD PUSH2 0x1C70 JUMP JUMPDEST DUP6 MSTORE POP SWAP3 DUP8 ADD SWAP3 DUP8 ADD PUSH2 0x1E5D JUMP JUMPDEST POP SWAP1 SWAP10 SWAP9 POP POP POP POP POP POP POP POP POP JUMP JUMPDEST PUSH1 0x20 DUP1 DUP3 MSTORE PUSH1 0x27 SWAP1 DUP3 ADD MSTORE PUSH32 0x4F6E6C79206E6F6465732061726520616C6C6F77656420746F20657865637574 PUSH1 0x40 DUP3 ADD MSTORE PUSH7 0x32903A3434B997 PUSH1 0xC9 SHL PUSH1 0x60 DUP3 ADD MSTORE PUSH1 0x80 ADD SWAP1 JUMP JUMPDEST PUSH4 0x4E487B71 PUSH1 0xE0 SHL PUSH1 0x0 MSTORE PUSH1 0x11 PUSH1 0x4 MSTORE PUSH1 0x24 PUSH1 0x0 REVERT JUMPDEST DUP2 DUP2 SUB DUP2 DUP2 GT ISZERO PUSH2 0x802 JUMPI PUSH2 0x802 PUSH2 0x1EF8 JUMP JUMPDEST PUSH4 0x4E487B71 PUSH1 0xE0 SHL PUSH1 0x0 MSTORE PUSH1 0x32 PUSH1 0x4 MSTORE PUSH1 0x24 PUSH1 0x0 REVERT JUMPDEST PUSH4 0xFFFFFFFF DUP3 DUP2 AND DUP3 DUP3 AND SUB SWAP1 DUP1 DUP3 GT ISZERO PUSH2 0x1F54 JUMPI PUSH2 0x1F54 PUSH2 0x1EF8 JUMP JUMPDEST POP SWAP3 SWAP2 POP POP JUMP JUMPDEST PUSH1 0x1 DUP2 DUP2 SHR SWAP1 DUP3 AND DUP1 PUSH2 0x1F6F JUMPI PUSH1 0x7F DUP3 AND SWAP2 POP JUMPDEST PUSH1 0x20 DUP3 LT DUP2 SUB PUSH2 0x1F8F JUMPI PUSH4 0x4E487B71 PUSH1 0xE0 SHL PUSH1 0x0 MSTORE PUSH1 0x22 PUSH1 0x4 MSTORE PUSH1 0x24 PUSH1 0x0 REVERT JUMPDEST POP SWAP2 SWAP1 POP JUMP JUMPDEST PUSH1 0x1F DUP3 GT ISZERO PUSH2 0x1FDF JUMPI PUSH1 0x0 DUP2 DUP2 MSTORE PUSH1 0x20 DUP2 KECCAK256 PUSH1 0x1F DUP6 ADD PUSH1 0x5 SHR DUP2 ADD PUSH1 0x20 DUP7 LT ISZERO PUSH2 0x1FBC JUMPI POP DUP1 JUMPDEST PUSH1 0x1F DUP6 ADD PUSH1 0x5 SHR DUP3 ADD SWAP2 POP JUMPDEST DUP2 DUP2 LT ISZERO PUSH2 0x1FDB JUMPI DUP3 DUP2 SSTORE PUSH1 0x1 ADD PUSH2 0x1FC8 JUMP JUMPDEST POP POP POP JUMPDEST POP POP POP JUMP JUMPDEST DUP2 MLOAD PUSH8 0xFFFFFFFFFFFFFFFF DUP2 GT ISZERO PUSH2 0x1FFE JUMPI PUSH2 0x1FFE PUSH2 0x1C30 JUMP JUMPDEST PUSH2 0x2012 DUP2 PUSH2 0x200C DUP5 SLOAD PUSH2 0x1F5B JUMP JUMPDEST DUP5 PUSH2 0x1F95 JUMP JUMPDEST PUSH1 0x20 DUP1 PUSH1 0x1F DUP4 GT PUSH1 0x1 DUP2 EQ PUSH2 0x2047 JUMPI PUSH1 0x0 DUP5 ISZERO PUSH2 0x202F JUMPI POP DUP6 DUP4 ADD MLOAD JUMPDEST PUSH1 0x0 NOT PUSH1 0x3 DUP7 SWAP1 SHL SHR NOT AND PUSH1 0x1 DUP6 SWAP1 SHL OR DUP6 SSTORE PUSH2 0x1FDB JUMP JUMPDEST PUSH1 0x0 DUP6 DUP2 MSTORE PUSH1 0x20 DUP2 KECCAK256 PUSH1 0x1F NOT DUP7 AND SWAP2 JUMPDEST DUP3 DUP2 LT ISZERO PUSH2 0x2076 JUMPI DUP9 DUP7 ADD MLOAD DUP3 SSTORE SWAP5 DUP5 ADD SWAP5 PUSH1 0x1 SWAP1 SWAP2 ADD SWAP1 DUP5 ADD PUSH2 0x2057 JUMP JUMPDEST POP DUP6 DUP3 LT ISZERO PUSH2 0x2094 JUMPI DUP8 DUP6 ADD MLOAD PUSH1 0x0 NOT PUSH1 0x3 DUP9 SWAP1 SHL PUSH1 0xF8 AND SHR NOT AND DUP2 SSTORE JUMPDEST POP POP POP POP POP PUSH1 0x1 SWAP1 DUP2 SHL ADD SWAP1 SSTORE POP JUMP JUMPDEST PUSH4 0x4E487B71 PUSH1 0xE0 SHL PUSH1 0x0 MSTORE PUSH1 0x31 PUSH1 0x4 MSTORE PUSH1 0x24 PUSH1 0x0 REVERT JUMPDEST PUSH4 0xFFFFFFFF DUP2 DUP2 AND DUP4 DUP3 AND ADD SWAP1 DUP1 DUP3 GT ISZERO PUSH2 0x1F54 JUMPI PUSH2 0x1F54 PUSH2 0x1EF8 JUMP JUMPDEST PUSH1 0x20 DUP1 DUP3 MSTORE PUSH1 0x2A SWAP1 DUP3 ADD MSTORE PUSH32 0x4F6E6C79206275696C646572732061726520616C6C6F77656420746F20657865 PUSH1 0x40 DUP3 ADD MSTORE PUSH10 0x31BABA32903A3434B997 PUSH1 0xB1 SHL PUSH1 0x60 DUP3 ADD MSTORE PUSH1 0x80 ADD SWAP1 JUMP JUMPDEST PUSH1 0x20 DUP1 DUP3 MSTORE PUSH1 0x49 SWAP1 DUP3 ADD MSTORE PUSH32 0x41646472657373206F66206E6577206275696C646572206861736E2774206372 PUSH1 0x40 DUP3 ADD MSTORE PUSH32 0x656174656420726571756573742E20436F6E7369646572207573696E67206164 PUSH1 0x60 DUP3 ADD MSTORE PUSH9 0x32213AB4B63232B917 PUSH1 0xB9 SHL PUSH1 0x80 DUP3 ADD MSTORE PUSH1 0xA0 ADD SWAP1 JUMP JUMPDEST DUP1 DUP3 ADD DUP1 DUP3 GT ISZERO PUSH2 0x802 JUMPI PUSH2 0x802 PUSH2 0x1EF8 JUMP INVALID LOG2 PUSH5 0x6970667358 0x22 SLT KECCAK256 PUSH23 0xA07E849D2B474EDBE86BCF349E2CFC4D1FD0D2BA26CA7B DIFFICULTY 0x27 0xDA CODECOPY 0xE5 PUSH7 0x667764736F6C63 NUMBER STOP ADDMOD GT STOP CALLER ",
  "sha1": "c289ad4215f5beae69e91d3d19f9998559c25d74",
  "source": "// SPDX-License-Identifier: GPL3\npragma solidity ^0.8.0;\n\nimport \"./Builders.sol\";\nimport \"./DataProviders.sol\";\n\n/**\n * @dev A contract that manages the training plans for the project.\n * There is always only 1 plan running at a time. All the plans are\n * stored on the blockchain\n */\ncontract TrainingPlans is Builders, DataProviders {\n    // Training Plan Round\n    struct Round {\n        bool completed;\n        uint numSubmitted;\n        mapping(address => string) modelsCID;\n    }\n\n    // Training Plan defines instructions for training clients (data providers)\n    struct TrainingPlan {\n        // bytes data;\n        address creator;\n        address finalNode;\n        uint32 randomSeed;\n\n        // Base model uploaded by builder\n        string baseModelCID;\n        // Final model uploaded by finalNode\n        // Final model is encrypted using builder public key\n        string finalModelCID;\n\n        // Training params\n        uint32 numRounds;\n\n        // Number of nodes and rewards in training\n        uint numNodes;\n        uint totalReward;\n        uint nodeReward;\n\n        uint keyTurn;\n\n        // mapping (acting as array) of rounds\n        mapping(uint => Round) rounds;\n    }\n\n    mapping(uint => TrainingPlan) public plans;\n    uint32 public numPlans = 0;\n\n    bool public isPlanRunning = false;\n    uint32 public currentRound = 0;\n\n    // seed for pseudo random number generator\n    uint256 private _seed = 7;\n\n\n    function _calculateTotalReward(uint32 _rounds, uint _reward) internal view returns (uint) {\n        return uint(_rounds) * _reward * activeNodes;\n    }\n\n    // TODO: Add Chainlink Keeper to close round if time elapses\n    function _saveModel(string memory modelCID) internal onlyNode {\n        require(\n            currentRound < plans[numPlans - 1].numRounds,\n            \"No more rounds to perform.\"\n        );\n\n        Round storage round = plans[numPlans - 1].rounds[currentRound];\n        require(\n            bytes(round.modelsCID[msg.sender]).length == 0,\n            \"Model already sent for this round\"\n        );\n\n        // Store model CID and finish in case it is last\n        round.modelsCID[msg.sender] = modelCID;\n        round.numSubmitted += 1;\n        if (round.numSubmitted >= activeNodes) {\n            round.completed = true;\n            currentRound += 1;\n        }\n    }\n\n    function getRoundModel(uint roundIdx, address nodeAddress) public view returns(string memory) {\n        require(numPlans > 0, \"No training plans created\");\n        return plans[numPlans - 1].rounds[roundIdx].modelsCID[nodeAddress];\n    }\n\n    function _addPlan(string memory modelCID, uint32 rounds, uint reward) internal onlyBuilder {\n        require(!isPlanRunning, \"Another plan is already being executed\");\n        require(activeNodes > 0, \"No active nodes to execute the plan\");\n\n        TrainingPlan storage plan = plans[numPlans++];\n        plan.creator = msg.sender;\n        plan.baseModelCID = modelCID;\n        plan.numRounds = rounds;\n        plan.numNodes = activeNodes;\n        plan.nodeReward = reward;\n        plan.totalReward = _calculateTotalReward(rounds, reward);\n        plan.keyTurn = keyTurn;\n\n        uint256 randNum = _getRandomNumber();\n\n        // TODO: Deal better with inactive nodes so it is more fair\n        uint256 i = randNum % nodesArray.length;\n        for (; !nodesArray[i % nodesArray.length].activated; ++i) {}\n\n        plan.finalNode = nodesArray[i % nodesArray.length]._address;\n        plan.randomSeed = uint32(randNum);\n\n        currentRound = 0;\n        isPlanRunning = true;\n    }\n\n    // Abort plan\n    function abortPlan() public {\n        require(\n            numPlans > 0 && plans[numPlans - 1].creator == msg.sender,\n            \"Only creator can abort the plan\"\n        );\n        isPlanRunning = false;\n    }\n\n    // Finish plan\n    // IMPORTANT: Use combination of seed and secret to generate builder secret\n    // TODO add verification by other nodes\n    function finishPlan(\n        string memory modelCID\n    ) public onlyNode {\n        TrainingPlan storage plan = plans[numPlans - 1];\n        require(plan.finalNode == msg.sender, \"Only pre-selected node can finish plan\");\n        require(currentRound >= plan.numRounds, \"All rounds must be completed\");\n\n        plan.finalModelCID = modelCID;\n\n        isPlanRunning = false;\n    }\n\n\n    /** Function node can become active/inactive */\n    function changeNodeStatus(bool status) public onlyNode {\n        require(!isPlanRunning, \"Node can't change status while plan running.\");\n        if (nodesArray[nodeState[msg.sender] - 3].activated != status) {\n            activeNodes = (status) ? activeNodes + 1 : activeNodes - 1;\n        }\n        nodesArray[nodeState[msg.sender] - 3].activated = status;\n    }\n\n    // get pseudo random number\n    function _getRandomNumber() private returns (uint256) {\n        _seed = uint256(keccak256(abi.encodePacked(_seed, blockhash(block.number - 1), block.coinbase, block.difficulty)));\n        return _seed;\n    }\n}\n",
  "sourcePath": "contracts/project/TrainingPlans.sol",
  "type": "contract"
}